{"contracts/VaultFactory.sol":{"VaultFactory":{"abi":[{"inputs":[],"stateMutability":"nonpayable","type":"constructor"},{"inputs":[],"name":"EnforcedPause","type":"error"},{"inputs":[],"name":"ExpectedPause","type":"error"},{"inputs":[{"internalType":"address","name":"owner","type":"address"}],"name":"OwnableInvalidOwner","type":"error"},{"inputs":[{"internalType":"address","name":"account","type":"address"}],"name":"OwnableUnauthorizedAccount","type":"error"},{"anonymous":false,"inputs":[{"indexed":true,"internalType":"address","name":"previousOwner","type":"address"},{"indexed":true,"internalType":"address","name":"newOwner","type":"address"}],"name":"OwnershipTransferred","type":"event"},{"anonymous":false,"inputs":[{"indexed":false,"internalType":"address","name":"account","type":"address"}],"name":"Paused","type":"event"},{"anonymous":false,"inputs":[{"indexed":false,"internalType":"address","name":"account","type":"address"}],"name":"Unpaused","type":"event"},{"inputs":[{"internalType":"address","name":"","type":"address"}],"name":"AdminToVaultAddress","outputs":[{"internalType":"address","name":"","type":"address"}],"stateMutability":"view","type":"function"},{"inputs":[{"internalType":"address","name":"","type":"address"}],"name":"DeveloperToVaultAddress","outputs":[{"internalType":"address","name":"","type":"address"}],"stateMutability":"view","type":"function"},{"inputs":[{"internalType":"address","name":"","type":"address"}],"name":"FunderToVaultAddress","outputs":[{"internalType":"address","name":"","type":"address"}],"stateMutability":"view","type":"function"},{"inputs":[{"internalType":"uint256","name":"","type":"uint256"}],"name":"admins","outputs":[{"internalType":"address","name":"","type":"address"}],"stateMutability":"view","type":"function"},{"inputs":[{"internalType":"address","name":"_admin","type":"address"},{"internalType":"address","name":"_fund","type":"address"},{"internalType":"address","name":"_dev","type":"address"},{"internalType":"address","name":"_special","type":"address"},{"internalType":"address","name":"_subscription","type":"address"},{"internalType":"string","name":"_name","type":"string"}],"name":"createVault","outputs":[],"stateMutability":"nonpayable","type":"function"},{"inputs":[{"internalType":"uint256","name":"","type":"uint256"}],"name":"developer","outputs":[{"internalType":"address","name":"","type":"address"}],"stateMutability":"view","type":"function"},{"inputs":[{"internalType":"uint256","name":"","type":"uint256"}],"name":"funder","outputs":[{"internalType":"address","name":"","type":"address"}],"stateMutability":"view","type":"function"},{"inputs":[],"name":"getAdminsLength","outputs":[{"internalType":"uint256","name":"","type":"uint256"}],"stateMutability":"view","type":"function"},{"inputs":[],"name":"getDeveloperLength","outputs":[{"internalType":"uint256","name":"","type":"uint256"}],"stateMutability":"view","type":"function"},{"inputs":[],"name":"getFunderLength","outputs":[{"internalType":"uint256","name":"","type":"uint256"}],"stateMutability":"view","type":"function"},{"inputs":[{"internalType":"address","name":"","type":"address"}],"name":"getName","outputs":[{"internalType":"string","name":"","type":"string"}],"stateMutability":"view","type":"function"},{"inputs":[],"name":"getVaultsLength","outputs":[{"internalType":"uint256","name":"","type":"uint256"}],"stateMutability":"view","type":"function"},{"inputs":[],"name":"owner","outputs":[{"internalType":"address","name":"","type":"address"}],"stateMutability":"view","type":"function"},{"inputs":[],"name":"pause","outputs":[],"stateMutability":"nonpayable","type":"function"},{"inputs":[],"name":"paused","outputs":[{"internalType":"bool","name":"","type":"bool"}],"stateMutability":"view","type":"function"},{"inputs":[],"name":"renounceOwnership","outputs":[],"stateMutability":"nonpayable","type":"function"},{"inputs":[{"internalType":"address","name":"newOwner","type":"address"}],"name":"transferOwnership","outputs":[],"stateMutability":"nonpayable","type":"function"},{"inputs":[],"name":"unpause","outputs":[],"stateMutability":"nonpayable","type":"function"},{"inputs":[{"internalType":"address","name":"","type":"address"}],"name":"vaultAddressToAdmin","outputs":[{"internalType":"address","name":"","type":"address"}],"stateMutability":"view","type":"function"},{"inputs":[],"name":"vaultCount","outputs":[{"internalType":"uint256","name":"","type":"uint256"}],"stateMutability":"view","type":"function"},{"inputs":[{"internalType":"uint256","name":"","type":"uint256"}],"name":"vaults","outputs":[{"internalType":"address","name":"","type":"address"}],"stateMutability":"view","type":"function"}],"evm":{"bytecode":{"linkReferences":{},"object":"608060405234801561001057600080fd5b50338061003757604051631e4fbdf760e01b81526000600482015260240160405180910390fd5b61004081610053565b506000805460ff60a01b191690556100a3565b600080546001600160a01b038381166001600160a01b0319831681178455604051919092169283917f8be0079c531659141344cd1fd0a4f28419497f9722a3daafe3b4186f6b6457e09190a35050565b6127a0806100b26000396000f3fe60806040523480156200001157600080fd5b5060043610620001955760003560e01c80635fd4b08a11620000e95780638da5cb5b1162000097578063b96964a4116200006e578063b96964a41462000330578063c3932761146200035c578063f2fde38b146200038857600080fd5b80638da5cb5b14620002e8578063985de8e114620002fa578063a7c6a100146200032657600080fd5b806380d21c9d11620000cc57806380d21c9d146200029b5780638456cb5914620002c75780638c64ea4a14620002d157600080fd5b80635fd4b08a146200026b578063715018a6146200029157600080fd5b80633f4ba83a11620001475780634ea5015a116200012a5780634ea5015a146200022d5780635c975abb14620002445780635e0a7f61146200026257600080fd5b80633f4ba83a146200021a57806344b19dfc146200022457600080fd5b80631f2c9238116200017c5780631f2c923814620001e1578063300b086d14620001f857806337267bc3146200021157600080fd5b8063090fbbe0146200019a57806314bfd6d014620001b1575b600080fd5b6005545b6040519081526020015b60405180910390f35b620001c8620001c23660046200093c565b6200039f565b6040516001600160a01b039091168152602001620001a8565b620001c8620001f23660046200093c565b620003ca565b6200020f6200020936600462000989565b620003db565b005b6003546200019e565b6200020f620005fe565b6002546200019e565b620001c86200023e3660046200093c565b62000614565b600054600160a01b900460ff166040519015158152602001620001a8565b6004546200019e565b620002826200027c36600462000aa0565b62000625565b604051620001a8919062000ac5565b6200020f620006c7565b620001c8620002ac36600462000aa0565b6007602052600090815260409020546001600160a01b031681565b6200020f620006dd565b620001c8620002e23660046200093c565b620006f1565b6000546001600160a01b0316620001c8565b620001c86200030b36600462000aa0565b600a602052600090815260409020546001600160a01b031681565b6200019e60015481565b620001c86200034136600462000aa0565b6009602052600090815260409020546001600160a01b031681565b620001c86200036d36600462000aa0565b6008602052600090815260409020546001600160a01b031681565b6200020f6200039936600462000aa0565b62000702565b60038181548110620003b057600080fd5b6000918252602090912001546001600160a01b0316905081565b60048181548110620003b057600080fd5b60008686868686604051620003f0906200092e565b6001600160a01b0395861681529385166020850152918416604084015283166060830152909116608082015260a001604051809103906000f0801580156200043c573d6000803e3d6000fd5b506002805460018082019092557f405787fa12a823e0f2b7631cc41b3ba8828b3321ca811111fa75cd3aa3bb5ace01805473ffffffffffffffffffffffffffffffffffffffff199081166001600160a01b03858116918217909355600380548086019091557fc2575a0e9e593c00f959f8c92f12db2869c3395a3b0502d05e2516446f71f85b01805483168d8516179055600480548086019091557f8a35acfbc15ff81a39ae7d344fd709f28e8600b4aa8c65c6b64bfe7fe36bd19b01805483168c85161790556005805494850190557f036b6384b5eca791c62761152d0c79bb0604c104a5fb6f4eb0703f3154bb3db09093018054909116918916919091179055600090815260066020526040902090915081906200055d848262000ba4565b506001600160a01b0380821660008181526007602090815260408083208054868f1673ffffffffffffffffffffffffffffffffffffffff1991821681179092559084526008835281842080548216861790558c86168452600983528184208054821686179055948b168352600a909152812080549093169091179091556001805490918291620005ef90839062000c71565b90915550505050505050505050565b6200060862000763565b62000612620007ab565b565b60058181548110620003b057600080fd5b60066020526000908152604090208054620006409062000b15565b80601f01602080910402602001604051908101604052809291908181526020018280546200066e9062000b15565b8015620006bf5780601f106200069357610100808354040283529160200191620006bf565b820191906000526020600020905b815481529060010190602001808311620006a157829003601f168201915b505050505081565b620006d162000763565b62000612600062000802565b620006e762000763565b620006126200085f565b60028181548110620003b057600080fd5b6200070c62000763565b6001600160a01b03811662000755576040517f1e4fbdf7000000000000000000000000000000000000000000000000000000008152600060048201526024015b60405180910390fd5b620007608162000802565b50565b6000546001600160a01b0316331462000612576040517f118cdaa70000000000000000000000000000000000000000000000000000000081523360048201526024016200074c565b620007b5620008a5565b6000805460ff60a01b191690557f5db9ee0a495bf2e6ff9c91a7834c1ba4fdd244a5e8aa4e537bd38aeae4b073aa335b6040516001600160a01b03909116815260200160405180910390a1565b600080546001600160a01b0383811673ffffffffffffffffffffffffffffffffffffffff19831681178455604051919092169283917f8be0079c531659141344cd1fd0a4f28419497f9722a3daafe3b4186f6b6457e09190a35050565b62000869620008e9565b6000805460ff60a01b1916600160a01b1790557f62e78cea01bee320cd4e420270b5ea74000d11b0c9f74754ebdbfc544b05a258620007e53390565b600054600160a01b900460ff1662000612576040517f8dfc202b00000000000000000000000000000000000000000000000000000000815260040160405180910390fd5b600054600160a01b900460ff161562000612576040517fd93c066500000000000000000000000000000000000000000000000000000000815260040160405180910390fd5b611ad18062000c9a83390190565b6000602082840312156200094f57600080fd5b5035919050565b80356001600160a01b03811681146200096e57600080fd5b919050565b634e487b7160e01b600052604160045260246000fd5b60008060008060008060c08789031215620009a357600080fd5b620009ae8762000956565b9550620009be6020880162000956565b9450620009ce6040880162000956565b9350620009de6060880162000956565b9250620009ee6080880162000956565b915060a087013567ffffffffffffffff8082111562000a0c57600080fd5b818901915089601f83011262000a2157600080fd5b81358181111562000a365762000a3662000973565b604051601f8201601f19908116603f0116810190838211818310171562000a615762000a6162000973565b816040528281528c602084870101111562000a7b57600080fd5b8260208601602083013760006020848301015280955050505050509295509295509295565b60006020828403121562000ab357600080fd5b62000abe8262000956565b9392505050565b600060208083528351808285015260005b8181101562000af45785810183015185820160400152820162000ad6565b506000604082860101526040601f19601f8301168501019250505092915050565b600181811c9082168062000b2a57607f821691505b60208210810362000b4b57634e487b7160e01b600052602260045260246000fd5b50919050565b601f82111562000b9f57600081815260208120601f850160051c8101602086101562000b7a5750805b601f850160051c820191505b8181101562000b9b5782815560010162000b86565b5050505b505050565b815167ffffffffffffffff81111562000bc15762000bc162000973565b62000bd98162000bd2845462000b15565b8462000b51565b602080601f83116001811462000c11576000841562000bf85750858301515b600019600386901b1c1916600185901b17855562000b9b565b600085815260208120601f198616915b8281101562000c425788860151825594840194600190910190840162000c21565b508582101562000c615787850151600019600388901b60f8161c191681555b5050505050600190811b01905550565b8082018082111562000c9357634e487b7160e01b600052601160045260246000fd5b9291505056fe60806040523480156200001157600080fd5b5060405162001ad138038062001ad183398101604081905262000034916200023c565b846001600160a01b038116620000905760405162461bcd60e51b815260206004820152601860248201527f496e76616c696441646472657373285f61646472657373290000000000000000604482015260640160405180910390fd5b620000bc7fa49807205ce4d355092ef5a8a18f56e8913cf4a201fbe287825b095693c217758762000170565b50620000e97fd49944b67e8d70389d5d7c1f0f260f907b9705c55baa96bba23f68e4cedf54188662000170565b50620001167f51b355059847d158e68950419dbcd54fad00bdfd0634c2515a5c533288c7f0a28562000170565b50620001437f3f12a51c1a5d4235e47a0365ddc220be1678ccffcdf71bfd6ee9c417f801e0088462000170565b5050600980546001600160a01b0319166001600160a01b039290921691909117905550620002ac92505050565b6000828152602081815260408083206001600160a01b038516845290915281205460ff1662000215576000838152602081815260408083206001600160a01b03861684529091529020805460ff19166001179055620001cc3390565b6001600160a01b0316826001600160a01b0316847f2f8788117e7eff1d82e926ec794901d17c78024a50270940304540a733656f0d60405160405180910390a450600162000219565b5060005b92915050565b80516001600160a01b03811681146200023757600080fd5b919050565b600080600080600060a086880312156200025557600080fd5b62000260866200021f565b945062000270602087016200021f565b935062000280604087016200021f565b925062000290606087016200021f565b9150620002a0608087016200021f565b90509295509295909350565b61181580620002bc6000396000f3fe6080604052600436106102535760003560e01c80635d520db511610138578063a995b114116100b0578063d0e30db01161007f578063dab7a28e11610064578063dab7a28e1461071e578063fcf0f0d31461073e578063fcfea5dc1461077257600080fd5b8063d0e30db0146106f6578063d547741f146106fe57600080fd5b8063a995b11414610662578063b434283f14610682578063bbb9b131146106a2578063bf051c13146106c257600080fd5b806391d14854116101075780639e1a005f116100ec5780639e1a005f1461060d578063a17ec6d41461062d578063a217fddf1461064d57600080fd5b806391d148541461059c578063929068cb146105e057600080fd5b80635d520db5146104ff5780636954a1ea1461051457806375b238fc146105345780638f61f4f51461056857600080fd5b8063327305f2116101cb5780634049ddd21161019a57806349f961d61161017f57806349f961d6146104965780634fcf2599146104ab5780635bc71363146104cb57600080fd5b80634049ddd21461045657806344387cc21461047657600080fd5b8063327305f2146103e757806336568abe14610401578063380770a9146104215780633ccfd60b1461044157600080fd5b80631e310fcf1161022257806327c87b2e1161020757806327c87b2e146103775780632b1af71d146103af5780632f2ff15d146103c557600080fd5b80631e310fcf14610332578063248a9ca31461034757600080fd5b80630123e8261461029757806301ffc9a7146102bb57806307bd0265146102eb57806312065fe01461031f57600080fd5b366102925760405134815260009033907f493ae1e948a02344c50e8c8974f7ddbe43ec9aa56d677a1d3b4a811b098c9f349060200160405180910390a3005b600080fd5b3480156102a357600080fd5b506003545b6040519081526020015b60405180910390f35b3480156102c757600080fd5b506102db6102d63660046115ed565b61079f565b60405190151581526020016102b2565b3480156102f757600080fd5b506102a87fd8aa0f3194971a2a116679f7c2090f6939c8d4e01a2a8d7e41d55e5351469e6381565b34801561032b57600080fd5b50476102a8565b34801561033e57600080fd5b506005546102a8565b34801561035357600080fd5b506102a8610362366004611636565b60009081526020819052604090206001015490565b34801561038357600080fd5b5061039761039236600461164f565b610838565b6040516001600160a01b0390911681526020016102b2565b3480156103bb57600080fd5b506102a860015481565b3480156103d157600080fd5b506103e56103e036600461168d565b610870565b005b3480156103f357600080fd5b506002546102db9060ff1681565b34801561040d57600080fd5b506103e561041c36600461168d565b61089b565b34801561042d57600080fd5b506103e561043c3660046116d1565b6108ec565b34801561044d57600080fd5b506103e56109b6565b34801561046257600080fd5b506102a8610471366004611636565b610a92565b34801561048257600080fd5b50600954610397906001600160a01b031681565b3480156104a257600080fd5b506103e5610ab3565b3480156104b757600080fd5b506103976104c6366004611636565b610bcd565b3480156104d757600080fd5b506102a87fd49944b67e8d70389d5d7c1f0f260f907b9705c55baa96bba23f68e4cedf541881565b34801561050b57600080fd5b506004546102a8565b34801561052057600080fd5b506103e561052f3660046116ec565b610bf7565b34801561054057600080fd5b506102a87fa49807205ce4d355092ef5a8a18f56e8913cf4a201fbe287825b095693c2177581565b34801561057457600080fd5b506102a87fb09aa5aeb3702cfd50b6b62bc4532604938f21248a27a1d5ca736082b6819cc181565b3480156105a857600080fd5b506102db6105b736600461168d565b6000918252602082815260408084206001600160a01b0393909316845291905290205460ff1690565b3480156105ec57600080fd5b506102a86105fb366004611716565b60086020526000908152604090205481565b34801561061957600080fd5b506103e56106283660046116d1565b610d0d565b34801561063957600080fd5b506103e56106483660046116ec565b610da4565b34801561065957600080fd5b506102a8600081565b34801561066e57600080fd5b506103e561067d366004611731565b610f1d565b34801561068e57600080fd5b506103e561069d366004611731565b61114e565b3480156106ae57600080fd5b506103e56106bd3660046116ec565b61128d565b3480156106ce57600080fd5b506102a87f3f12a51c1a5d4235e47a0365ddc220be1678ccffcdf71bfd6ee9c417f801e00881565b6103e56113ba565b34801561070a57600080fd5b506103e561071936600461168d565b611412565b34801561072a57600080fd5b50610397610739366004611636565b611437565b34801561074a57600080fd5b506102a87f51b355059847d158e68950419dbcd54fad00bdfd0634c2515a5c533288c7f0a281565b34801561077e57600080fd5b506102a861078d366004611716565b60066020526000908152604090205481565b60007fffffffff0000000000000000000000000000000000000000000000000000000082167f7965db0b00000000000000000000000000000000000000000000000000000000148061083257507f01ffc9a7000000000000000000000000000000000000000000000000000000007fffffffff000000000000000000000000000000000000000000000000000000008316145b92915050565b6007602052816000526040600020818154811061085457600080fd5b6000918252602090912001546001600160a01b03169150829050565b60008281526020819052604090206001015461088b81611447565b6108958383611454565b50505050565b6001600160a01b03811633146108dd576040517f6697b23200000000000000000000000000000000000000000000000000000000815260040160405180910390fd5b6108e782826114fe565b505050565b7fa49807205ce4d355092ef5a8a18f56e8913cf4a201fbe287825b095693c2177561091681611447565b60005b6004548110156108e7578267ffffffffffffffff16600482815481106109415761094161175b565b9060005260206000200154036109a457600481815481106109645761096461175b565b6000918252602082200181905560405167ffffffffffffffff8516917f9fb7d162ea74fb059c253e48f937b3e09e78f8bbb7bd5d0d39fec9716ba849f191a25b806109ae81611787565b915050610919565b7fd49944b67e8d70389d5d7c1f0f260f907b9705c55baa96bba23f68e4cedf54186109e081611447565b7f3f12a51c1a5d4235e47a0365ddc220be1678ccffcdf71bfd6ee9c417f801e008610a0a81611447565b60005b6005548110156108e757600060058281548110610a2c57610a2c61175b565b60009182526020808320909101546001600160a01b031680835260069091526040808320549051919350839281156108fc029290818181858888f19350505050158015610a7d573d6000803e3d6000fd5b50508080610a8a90611787565b915050610a0d565b60048181548110610aa257600080fd5b600091825260209091200154905081565b6009546040517fa40c4c4000000000000000000000000000000000000000000000000000000000815230600482015242916001600160a01b03169063a40c4c4090602401602060405180830381865afa158015610b14573d6000803e3d6000fd5b505050506040513d601f19601f82011682018060405250810190610b3891906117a0565b10610bbe576009546040517f12b21eb50000000000000000000000000000000000000000000000000000000081523060048201526001600160a01b03909116906312b21eb590602401600060405180830381600087803b158015610b9b57600080fd5b505af1158015610baf573d6000803e3d6000fd5b50506002805460ff1916905550505b6002805460ff19166001179055565b60038181548110610bdd57600080fd5b6000918252602090912001546001600160a01b0316905081565b7fa49807205ce4d355092ef5a8a18f56e8913cf4a201fbe287825b095693c21775610c2181611447565b826001600160a01b038116610c7d5760405162461bcd60e51b815260206004820152601860248201527f496e76616c696441646472657373285f6164647265737329000000000000000060448201526064015b60405180910390fd5b6001600160a01b038416600090815260066020526040812084905560018054859290610caa9084906117b9565b925050819055508260016000828254610cc391906117cc565b90915550506040518381526001600160a01b038516907f627436284666290b2ed6746a3d31cf95427398d04245c2e7dfec82aaf1472bf0906020015b60405180910390a250505050565b7fa49807205ce4d355092ef5a8a18f56e8913cf4a201fbe287825b095693c21775610d3781611447565b60048054600181018255600091825267ffffffffffffffff84167f8a35acfbc15ff81a39ae7d344fd709f28e8600b4aa8c65c6b64bfe7fe36bd19b90910181905560405190917f8e5dfc69288bb774f9ee4caeeca57e97df011bff7a0b2aa2966873fea7a96ebd91a25050565b7fa49807205ce4d355092ef5a8a18f56e8913cf4a201fbe287825b095693c21775610dce81611447565b826001600160a01b038116610e255760405162461bcd60e51b815260206004820152601860248201527f496e76616c696441646472657373285f616464726573732900000000000000006044820152606401610c74565b60005b600554811015610f1657846001600160a01b031660058281548110610e4f57610e4f61175b565b6000918252602090912001546001600160a01b031603610f045760058181548110610e7c57610e7c61175b565b6000918252602080832090910180546001600160a01b03191690556001600160a01b0387168252600690526040812081905560018054869290610ec09084906117b9565b90915550506040518481526001600160a01b038616907fc571ae75e1c62fbbe528bb9094c45fd8914c90f4e9ee04da07f968201a4e53199060200160405180910390a25b80610f0e81611787565b915050610e28565b5050505050565b7fa49807205ce4d355092ef5a8a18f56e8913cf4a201fbe287825b095693c21775610f4781611447565b826001600160a01b038116610f9e5760405162461bcd60e51b815260206004820152601860248201527f496e76616c696441646472657373285f616464726573732900000000000000006044820152606401610c74565b60005b600354811015610f1657846001600160a01b031660038281548110610fc857610fc861175b565b6000918252602090912001546001600160a01b03160361113c5760038181548110610ff557610ff561175b565b6000918252602080832090910180546001600160a01b03191690556001600160a01b038716825260089052604081208190555b67ffffffffffffffff85166000908152600760205260409020548110156110f257856001600160a01b0316600760008767ffffffffffffffff16815260200190815260200160002082815481106110815761108161175b565b6000918252602090912001546001600160a01b0316036110e05767ffffffffffffffff851660009081526007602052604090208054829081106110c6576110c661175b565b600091825260209091200180546001600160a01b03191690555b806110ea81611787565b915050611028565b5060405167ffffffffffffffff851681526001600160a01b038616907f87fee02e700a6b965d9a5eef2df77e1bb86c4200c37265e0fc5d5d69c2f8d74b9060200160405180910390a25b8061114681611787565b915050610fa1565b7fa49807205ce4d355092ef5a8a18f56e8913cf4a201fbe287825b095693c2177561117881611447565b826001600160a01b0381166111cf5760405162461bcd60e51b815260206004820152601860248201527f496e76616c696441646472657373285f616464726573732900000000000000006044820152606401610c74565b6003805460018082019092557fc2575a0e9e593c00f959f8c92f12db2869c3395a3b0502d05e2516446f71f85b0180546001600160a01b0387166001600160a01b03199182168117909255600082815260086020908152604080832067ffffffffffffffff8a1690819055808452600783528184208054978801815584529282902090950180549093168417909255925192835290917fd6f085a96dbbde780eff5493447990ffa30333a92a91841cd565e74c8a80de069101610cff565b7fa49807205ce4d355092ef5a8a18f56e8913cf4a201fbe287825b095693c217756112b781611447565b826001600160a01b03811661130e5760405162461bcd60e51b815260206004820152601860248201527f496e76616c696441646472657373285f616464726573732900000000000000006044820152606401610c74565b6005805460018082019092557f036b6384b5eca791c62761152d0c79bb0604c104a5fb6f4eb0703f3154bb3db00180546001600160a01b0319166001600160a01b038716908117909155600090815260066020526040812085905581548592919061137a9084906117cc565b90915550506040518381526001600160a01b038516907f4f29c2b68cf4de57a608c85af30370c0bd181622f6cc0d1a9c1c0487923d81af90602001610cff565b7fd49944b67e8d70389d5d7c1f0f260f907b9705c55baa96bba23f68e4cedf54186113e481611447565b7fa49807205ce4d355092ef5a8a18f56e8913cf4a201fbe287825b095693c2177561140e81611447565b5050565b60008281526020819052604090206001015461142d81611447565b61089583836114fe565b60058181548110610bdd57600080fd5b6114518133611581565b50565b6000828152602081815260408083206001600160a01b038516845290915281205460ff166114f6576000838152602081815260408083206001600160a01b03861684529091529020805460ff191660011790556114ae3390565b6001600160a01b0316826001600160a01b0316847f2f8788117e7eff1d82e926ec794901d17c78024a50270940304540a733656f0d60405160405180910390a4506001610832565b506000610832565b6000828152602081815260408083206001600160a01b038516845290915281205460ff16156114f6576000838152602081815260408083206001600160a01b0386168085529252808320805460ff1916905551339286917ff6391f5c32d9c69d2a47ea670b442974b53935d1edc7fd64eb21e047a839171b9190a4506001610832565b6000828152602081815260408083206001600160a01b038516845290915290205460ff1661140e576040517fe2517d3f0000000000000000000000000000000000000000000000000000000081526001600160a01b038216600482015260248101839052604401610c74565b6000602082840312156115ff57600080fd5b81357fffffffff000000000000000000000000000000000000000000000000000000008116811461162f57600080fd5b9392505050565b60006020828403121561164857600080fd5b5035919050565b6000806040838503121561166257600080fd5b50508035926020909101359150565b80356001600160a01b038116811461168857600080fd5b919050565b600080604083850312156116a057600080fd5b823591506116b060208401611671565b90509250929050565b803567ffffffffffffffff8116811461168857600080fd5b6000602082840312156116e357600080fd5b61162f826116b9565b600080604083850312156116ff57600080fd5b61170883611671565b946020939093013593505050565b60006020828403121561172857600080fd5b61162f82611671565b6000806040838503121561174457600080fd5b61174d83611671565b91506116b0602084016116b9565b634e487b7160e01b600052603260045260246000fd5b634e487b7160e01b600052601160045260246000fd5b60006001820161179957611799611771565b5060010190565b6000602082840312156117b257600080fd5b5051919050565b8181038181111561083257610832611771565b808201808211156108325761083261177156fea26469706673582212202537e81f082ff683a480352e3c7beeef5fcde243f729749e82982ace0fb8260264736f6c63430008140033a2646970667358221220bd878d1ddba5db068eb350c4a1c8a80d850b7ec9cffd201788c3188e933ab89664736f6c63430008140033","opcodes":"PUSH1 0x80 PUSH1 0x40 MSTORE CALLVALUE DUP1 ISZERO PUSH2 0x10 JUMPI PUSH1 0x0 DUP1 REVERT JUMPDEST POP CALLER DUP1 PUSH2 0x37 JUMPI PUSH1 0x40 MLOAD PUSH4 0x1E4FBDF7 PUSH1 0xE0 SHL DUP2 MSTORE PUSH1 0x0 PUSH1 0x4 DUP3 ADD MSTORE PUSH1 0x24 ADD PUSH1 0x40 MLOAD DUP1 SWAP2 SUB SWAP1 REVERT JUMPDEST PUSH2 0x40 DUP2 PUSH2 0x53 JUMP JUMPDEST POP PUSH1 0x0 DUP1 SLOAD PUSH1 0xFF PUSH1 0xA0 SHL NOT AND SWAP1 SSTORE PUSH2 0xA3 JUMP JUMPDEST PUSH1 0x0 DUP1 SLOAD PUSH1 0x1 PUSH1 0x1 PUSH1 0xA0 SHL SUB DUP4 DUP2 AND PUSH1 0x1 PUSH1 0x1 PUSH1 0xA0 SHL SUB NOT DUP4 AND DUP2 OR DUP5 SSTORE PUSH1 0x40 MLOAD SWAP2 SWAP1 SWAP3 AND SWAP3 DUP4 SWAP2 PUSH32 0x8BE0079C531659141344CD1FD0A4F28419497F9722A3DAAFE3B4186F6B6457E0 SWAP2 SWAP1 LOG3 POP POP JUMP JUMPDEST PUSH2 0x27A0 DUP1 PUSH2 0xB2 PUSH1 0x0 CODECOPY PUSH1 0x0 RETURN INVALID PUSH1 0x80 PUSH1 0x40 MSTORE CALLVALUE DUP1 ISZERO PUSH3 0x11 JUMPI PUSH1 0x0 DUP1 REVERT JUMPDEST POP PUSH1 0x4 CALLDATASIZE LT PUSH3 0x195 JUMPI PUSH1 0x0 CALLDATALOAD PUSH1 0xE0 SHR DUP1 PUSH4 0x5FD4B08A GT PUSH3 0xE9 JUMPI DUP1 PUSH4 0x8DA5CB5B GT PUSH3 0x97 JUMPI DUP1 PUSH4 0xB96964A4 GT PUSH3 0x6E JUMPI DUP1 PUSH4 0xB96964A4 EQ PUSH3 0x330 JUMPI DUP1 PUSH4 0xC3932761 EQ PUSH3 0x35C JUMPI DUP1 PUSH4 0xF2FDE38B EQ PUSH3 0x388 JUMPI PUSH1 0x0 DUP1 REVERT JUMPDEST DUP1 PUSH4 0x8DA5CB5B EQ PUSH3 0x2E8 JUMPI DUP1 PUSH4 0x985DE8E1 EQ PUSH3 0x2FA JUMPI DUP1 PUSH4 0xA7C6A100 EQ PUSH3 0x326 JUMPI PUSH1 0x0 DUP1 REVERT JUMPDEST DUP1 PUSH4 0x80D21C9D GT PUSH3 0xCC JUMPI DUP1 PUSH4 0x80D21C9D EQ PUSH3 0x29B JUMPI DUP1 PUSH4 0x8456CB59 EQ PUSH3 0x2C7 JUMPI DUP1 PUSH4 0x8C64EA4A EQ PUSH3 0x2D1 JUMPI PUSH1 0x0 DUP1 REVERT JUMPDEST DUP1 PUSH4 0x5FD4B08A EQ PUSH3 0x26B JUMPI DUP1 PUSH4 0x715018A6 EQ PUSH3 0x291 JUMPI PUSH1 0x0 DUP1 REVERT JUMPDEST DUP1 PUSH4 0x3F4BA83A GT PUSH3 0x147 JUMPI DUP1 PUSH4 0x4EA5015A GT PUSH3 0x12A JUMPI DUP1 PUSH4 0x4EA5015A EQ PUSH3 0x22D JUMPI DUP1 PUSH4 0x5C975ABB EQ PUSH3 0x244 JUMPI DUP1 PUSH4 0x5E0A7F61 EQ PUSH3 0x262 JUMPI PUSH1 0x0 DUP1 REVERT JUMPDEST DUP1 PUSH4 0x3F4BA83A EQ PUSH3 0x21A JUMPI DUP1 PUSH4 0x44B19DFC EQ PUSH3 0x224 JUMPI PUSH1 0x0 DUP1 REVERT JUMPDEST DUP1 PUSH4 0x1F2C9238 GT PUSH3 0x17C JUMPI DUP1 PUSH4 0x1F2C9238 EQ PUSH3 0x1E1 JUMPI DUP1 PUSH4 0x300B086D EQ PUSH3 0x1F8 JUMPI DUP1 PUSH4 0x37267BC3 EQ PUSH3 0x211 JUMPI PUSH1 0x0 DUP1 REVERT JUMPDEST DUP1 PUSH4 0x90FBBE0 EQ PUSH3 0x19A JUMPI DUP1 PUSH4 0x14BFD6D0 EQ PUSH3 0x1B1 JUMPI JUMPDEST PUSH1 0x0 DUP1 REVERT JUMPDEST PUSH1 0x5 SLOAD JUMPDEST PUSH1 0x40 MLOAD SWAP1 DUP2 MSTORE PUSH1 0x20 ADD JUMPDEST PUSH1 0x40 MLOAD DUP1 SWAP2 SUB SWAP1 RETURN JUMPDEST PUSH3 0x1C8 PUSH3 0x1C2 CALLDATASIZE PUSH1 0x4 PUSH3 0x93C JUMP JUMPDEST PUSH3 0x39F JUMP JUMPDEST PUSH1 0x40 MLOAD PUSH1 0x1 PUSH1 0x1 PUSH1 0xA0 SHL SUB SWAP1 SWAP2 AND DUP2 MSTORE PUSH1 0x20 ADD PUSH3 0x1A8 JUMP JUMPDEST PUSH3 0x1C8 PUSH3 0x1F2 CALLDATASIZE PUSH1 0x4 PUSH3 0x93C JUMP JUMPDEST PUSH3 0x3CA JUMP JUMPDEST PUSH3 0x20F PUSH3 0x209 CALLDATASIZE PUSH1 0x4 PUSH3 0x989 JUMP JUMPDEST PUSH3 0x3DB JUMP JUMPDEST STOP JUMPDEST PUSH1 0x3 SLOAD PUSH3 0x19E JUMP JUMPDEST PUSH3 0x20F PUSH3 0x5FE JUMP JUMPDEST PUSH1 0x2 SLOAD PUSH3 0x19E JUMP JUMPDEST PUSH3 0x1C8 PUSH3 0x23E CALLDATASIZE PUSH1 0x4 PUSH3 0x93C JUMP JUMPDEST PUSH3 0x614 JUMP JUMPDEST PUSH1 0x0 SLOAD PUSH1 0x1 PUSH1 0xA0 SHL SWAP1 DIV PUSH1 0xFF AND PUSH1 0x40 MLOAD SWAP1 ISZERO ISZERO DUP2 MSTORE PUSH1 0x20 ADD PUSH3 0x1A8 JUMP JUMPDEST PUSH1 0x4 SLOAD PUSH3 0x19E JUMP JUMPDEST PUSH3 0x282 PUSH3 0x27C CALLDATASIZE PUSH1 0x4 PUSH3 0xAA0 JUMP JUMPDEST PUSH3 0x625 JUMP JUMPDEST PUSH1 0x40 MLOAD PUSH3 0x1A8 SWAP2 SWAP1 PUSH3 0xAC5 JUMP JUMPDEST PUSH3 0x20F PUSH3 0x6C7 JUMP JUMPDEST PUSH3 0x1C8 PUSH3 0x2AC CALLDATASIZE PUSH1 0x4 PUSH3 0xAA0 JUMP JUMPDEST PUSH1 0x7 PUSH1 0x20 MSTORE PUSH1 0x0 SWAP1 DUP2 MSTORE PUSH1 0x40 SWAP1 KECCAK256 SLOAD PUSH1 0x1 PUSH1 0x1 PUSH1 0xA0 SHL SUB AND DUP2 JUMP JUMPDEST PUSH3 0x20F PUSH3 0x6DD JUMP JUMPDEST PUSH3 0x1C8 PUSH3 0x2E2 CALLDATASIZE PUSH1 0x4 PUSH3 0x93C JUMP JUMPDEST PUSH3 0x6F1 JUMP JUMPDEST PUSH1 0x0 SLOAD PUSH1 0x1 PUSH1 0x1 PUSH1 0xA0 SHL SUB AND PUSH3 0x1C8 JUMP JUMPDEST PUSH3 0x1C8 PUSH3 0x30B CALLDATASIZE PUSH1 0x4 PUSH3 0xAA0 JUMP JUMPDEST PUSH1 0xA PUSH1 0x20 MSTORE PUSH1 0x0 SWAP1 DUP2 MSTORE PUSH1 0x40 SWAP1 KECCAK256 SLOAD PUSH1 0x1 PUSH1 0x1 PUSH1 0xA0 SHL SUB AND DUP2 JUMP JUMPDEST PUSH3 0x19E PUSH1 0x1 SLOAD DUP2 JUMP JUMPDEST PUSH3 0x1C8 PUSH3 0x341 CALLDATASIZE PUSH1 0x4 PUSH3 0xAA0 JUMP JUMPDEST PUSH1 0x9 PUSH1 0x20 MSTORE PUSH1 0x0 SWAP1 DUP2 MSTORE PUSH1 0x40 SWAP1 KECCAK256 SLOAD PUSH1 0x1 PUSH1 0x1 PUSH1 0xA0 SHL SUB AND DUP2 JUMP JUMPDEST PUSH3 0x1C8 PUSH3 0x36D CALLDATASIZE PUSH1 0x4 PUSH3 0xAA0 JUMP JUMPDEST PUSH1 0x8 PUSH1 0x20 MSTORE PUSH1 0x0 SWAP1 DUP2 MSTORE PUSH1 0x40 SWAP1 KECCAK256 SLOAD PUSH1 0x1 PUSH1 0x1 PUSH1 0xA0 SHL SUB AND DUP2 JUMP JUMPDEST PUSH3 0x20F PUSH3 0x399 CALLDATASIZE PUSH1 0x4 PUSH3 0xAA0 JUMP JUMPDEST PUSH3 0x702 JUMP JUMPDEST PUSH1 0x3 DUP2 DUP2 SLOAD DUP2 LT PUSH3 0x3B0 JUMPI PUSH1 0x0 DUP1 REVERT JUMPDEST PUSH1 0x0 SWAP2 DUP3 MSTORE PUSH1 0x20 SWAP1 SWAP2 KECCAK256 ADD SLOAD PUSH1 0x1 PUSH1 0x1 PUSH1 0xA0 SHL SUB AND SWAP1 POP DUP2 JUMP JUMPDEST PUSH1 0x4 DUP2 DUP2 SLOAD DUP2 LT PUSH3 0x3B0 JUMPI PUSH1 0x0 DUP1 REVERT JUMPDEST PUSH1 0x0 DUP7 DUP7 DUP7 DUP7 DUP7 PUSH1 0x40 MLOAD PUSH3 0x3F0 SWAP1 PUSH3 0x92E JUMP JUMPDEST PUSH1 0x1 PUSH1 0x1 PUSH1 0xA0 SHL SUB SWAP6 DUP7 AND DUP2 MSTORE SWAP4 DUP6 AND PUSH1 0x20 DUP6 ADD MSTORE SWAP2 DUP5 AND PUSH1 0x40 DUP5 ADD MSTORE DUP4 AND PUSH1 0x60 DUP4 ADD MSTORE SWAP1 SWAP2 AND PUSH1 0x80 DUP3 ADD MSTORE PUSH1 0xA0 ADD PUSH1 0x40 MLOAD DUP1 SWAP2 SUB SWAP1 PUSH1 0x0 CREATE DUP1 ISZERO DUP1 ISZERO PUSH3 0x43C JUMPI RETURNDATASIZE PUSH1 0x0 DUP1 RETURNDATACOPY RETURNDATASIZE PUSH1 0x0 REVERT JUMPDEST POP PUSH1 0x2 DUP1 SLOAD PUSH1 0x1 DUP1 DUP3 ADD SWAP1 SWAP3 SSTORE PUSH32 0x405787FA12A823E0F2B7631CC41B3BA8828B3321CA811111FA75CD3AA3BB5ACE ADD DUP1 SLOAD PUSH20 0xFFFFFFFFFFFFFFFFFFFFFFFFFFFFFFFFFFFFFFFF NOT SWAP1 DUP2 AND PUSH1 0x1 PUSH1 0x1 PUSH1 0xA0 SHL SUB DUP6 DUP2 AND SWAP2 DUP3 OR SWAP1 SWAP4 SSTORE PUSH1 0x3 DUP1 SLOAD DUP1 DUP7 ADD SWAP1 SWAP2 SSTORE PUSH32 0xC2575A0E9E593C00F959F8C92F12DB2869C3395A3B0502D05E2516446F71F85B ADD DUP1 SLOAD DUP4 AND DUP14 DUP6 AND OR SWAP1 SSTORE PUSH1 0x4 DUP1 SLOAD DUP1 DUP7 ADD SWAP1 SWAP2 SSTORE PUSH32 0x8A35ACFBC15FF81A39AE7D344FD709F28E8600B4AA8C65C6B64BFE7FE36BD19B ADD DUP1 SLOAD DUP4 AND DUP13 DUP6 AND OR SWAP1 SSTORE PUSH1 0x5 DUP1 SLOAD SWAP5 DUP6 ADD SWAP1 SSTORE PUSH32 0x36B6384B5ECA791C62761152D0C79BB0604C104A5FB6F4EB0703F3154BB3DB0 SWAP1 SWAP4 ADD DUP1 SLOAD SWAP1 SWAP2 AND SWAP2 DUP10 AND SWAP2 SWAP1 SWAP2 OR SWAP1 SSTORE PUSH1 0x0 SWAP1 DUP2 MSTORE PUSH1 0x6 PUSH1 0x20 MSTORE PUSH1 0x40 SWAP1 KECCAK256 SWAP1 SWAP2 POP DUP2 SWAP1 PUSH3 0x55D DUP5 DUP3 PUSH3 0xBA4 JUMP JUMPDEST POP PUSH1 0x1 PUSH1 0x1 PUSH1 0xA0 SHL SUB DUP1 DUP3 AND PUSH1 0x0 DUP2 DUP2 MSTORE PUSH1 0x7 PUSH1 0x20 SWAP1 DUP2 MSTORE PUSH1 0x40 DUP1 DUP4 KECCAK256 DUP1 SLOAD DUP7 DUP16 AND PUSH20 0xFFFFFFFFFFFFFFFFFFFFFFFFFFFFFFFFFFFFFFFF NOT SWAP2 DUP3 AND DUP2 OR SWAP1 SWAP3 SSTORE SWAP1 DUP5 MSTORE PUSH1 0x8 DUP4 MSTORE DUP2 DUP5 KECCAK256 DUP1 SLOAD DUP3 AND DUP7 OR SWAP1 SSTORE DUP13 DUP7 AND DUP5 MSTORE PUSH1 0x9 DUP4 MSTORE DUP2 DUP5 KECCAK256 DUP1 SLOAD DUP3 AND DUP7 OR SWAP1 SSTORE SWAP5 DUP12 AND DUP4 MSTORE PUSH1 0xA SWAP1 SWAP2 MSTORE DUP2 KECCAK256 DUP1 SLOAD SWAP1 SWAP4 AND SWAP1 SWAP2 OR SWAP1 SWAP2 SSTORE PUSH1 0x1 DUP1 SLOAD SWAP1 SWAP2 DUP3 SWAP2 PUSH3 0x5EF SWAP1 DUP4 SWAP1 PUSH3 0xC71 JUMP JUMPDEST SWAP1 SWAP2 SSTORE POP POP POP POP POP POP POP POP POP POP JUMP JUMPDEST PUSH3 0x608 PUSH3 0x763 JUMP JUMPDEST PUSH3 0x612 PUSH3 0x7AB JUMP JUMPDEST JUMP JUMPDEST PUSH1 0x5 DUP2 DUP2 SLOAD DUP2 LT PUSH3 0x3B0 JUMPI PUSH1 0x0 DUP1 REVERT JUMPDEST PUSH1 0x6 PUSH1 0x20 MSTORE PUSH1 0x0 SWAP1 DUP2 MSTORE PUSH1 0x40 SWAP1 KECCAK256 DUP1 SLOAD PUSH3 0x640 SWAP1 PUSH3 0xB15 JUMP JUMPDEST DUP1 PUSH1 0x1F ADD PUSH1 0x20 DUP1 SWAP2 DIV MUL PUSH1 0x20 ADD PUSH1 0x40 MLOAD SWAP1 DUP2 ADD PUSH1 0x40 MSTORE DUP1 SWAP3 SWAP2 SWAP1 DUP2 DUP2 MSTORE PUSH1 0x20 ADD DUP3 DUP1 SLOAD PUSH3 0x66E SWAP1 PUSH3 0xB15 JUMP JUMPDEST DUP1 ISZERO PUSH3 0x6BF JUMPI DUP1 PUSH1 0x1F LT PUSH3 0x693 JUMPI PUSH2 0x100 DUP1 DUP4 SLOAD DIV MUL DUP4 MSTORE SWAP2 PUSH1 0x20 ADD SWAP2 PUSH3 0x6BF JUMP JUMPDEST DUP3 ADD SWAP2 SWAP1 PUSH1 0x0 MSTORE PUSH1 0x20 PUSH1 0x0 KECCAK256 SWAP1 JUMPDEST DUP2 SLOAD DUP2 MSTORE SWAP1 PUSH1 0x1 ADD SWAP1 PUSH1 0x20 ADD DUP1 DUP4 GT PUSH3 0x6A1 JUMPI DUP3 SWAP1 SUB PUSH1 0x1F AND DUP3 ADD SWAP2 JUMPDEST POP POP POP POP POP DUP2 JUMP JUMPDEST PUSH3 0x6D1 PUSH3 0x763 JUMP JUMPDEST PUSH3 0x612 PUSH1 0x0 PUSH3 0x802 JUMP JUMPDEST PUSH3 0x6E7 PUSH3 0x763 JUMP JUMPDEST PUSH3 0x612 PUSH3 0x85F JUMP JUMPDEST PUSH1 0x2 DUP2 DUP2 SLOAD DUP2 LT PUSH3 0x3B0 JUMPI PUSH1 0x0 DUP1 REVERT JUMPDEST PUSH3 0x70C PUSH3 0x763 JUMP JUMPDEST PUSH1 0x1 PUSH1 0x1 PUSH1 0xA0 SHL SUB DUP2 AND PUSH3 0x755 JUMPI PUSH1 0x40 MLOAD PUSH32 0x1E4FBDF700000000000000000000000000000000000000000000000000000000 DUP2 MSTORE PUSH1 0x0 PUSH1 0x4 DUP3 ADD MSTORE PUSH1 0x24 ADD JUMPDEST PUSH1 0x40 MLOAD DUP1 SWAP2 SUB SWAP1 REVERT JUMPDEST PUSH3 0x760 DUP2 PUSH3 0x802 JUMP JUMPDEST POP JUMP JUMPDEST PUSH1 0x0 SLOAD PUSH1 0x1 PUSH1 0x1 PUSH1 0xA0 SHL SUB AND CALLER EQ PUSH3 0x612 JUMPI PUSH1 0x40 MLOAD PUSH32 0x118CDAA700000000000000000000000000000000000000000000000000000000 DUP2 MSTORE CALLER PUSH1 0x4 DUP3 ADD MSTORE PUSH1 0x24 ADD PUSH3 0x74C JUMP JUMPDEST PUSH3 0x7B5 PUSH3 0x8A5 JUMP JUMPDEST PUSH1 0x0 DUP1 SLOAD PUSH1 0xFF PUSH1 0xA0 SHL NOT AND SWAP1 SSTORE PUSH32 0x5DB9EE0A495BF2E6FF9C91A7834C1BA4FDD244A5E8AA4E537BD38AEAE4B073AA CALLER JUMPDEST PUSH1 0x40 MLOAD PUSH1 0x1 PUSH1 0x1 PUSH1 0xA0 SHL SUB SWAP1 SWAP2 AND DUP2 MSTORE PUSH1 0x20 ADD PUSH1 0x40 MLOAD DUP1 SWAP2 SUB SWAP1 LOG1 JUMP JUMPDEST PUSH1 0x0 DUP1 SLOAD PUSH1 0x1 PUSH1 0x1 PUSH1 0xA0 SHL SUB DUP4 DUP2 AND PUSH20 0xFFFFFFFFFFFFFFFFFFFFFFFFFFFFFFFFFFFFFFFF NOT DUP4 AND DUP2 OR DUP5 SSTORE PUSH1 0x40 MLOAD SWAP2 SWAP1 SWAP3 AND SWAP3 DUP4 SWAP2 PUSH32 0x8BE0079C531659141344CD1FD0A4F28419497F9722A3DAAFE3B4186F6B6457E0 SWAP2 SWAP1 LOG3 POP POP JUMP JUMPDEST PUSH3 0x869 PUSH3 0x8E9 JUMP JUMPDEST PUSH1 0x0 DUP1 SLOAD PUSH1 0xFF PUSH1 0xA0 SHL NOT AND PUSH1 0x1 PUSH1 0xA0 SHL OR SWAP1 SSTORE PUSH32 0x62E78CEA01BEE320CD4E420270B5EA74000D11B0C9F74754EBDBFC544B05A258 PUSH3 0x7E5 CALLER SWAP1 JUMP JUMPDEST PUSH1 0x0 SLOAD PUSH1 0x1 PUSH1 0xA0 SHL SWAP1 DIV PUSH1 0xFF AND PUSH3 0x612 JUMPI PUSH1 0x40 MLOAD PUSH32 0x8DFC202B00000000000000000000000000000000000000000000000000000000 DUP2 MSTORE PUSH1 0x4 ADD PUSH1 0x40 MLOAD DUP1 SWAP2 SUB SWAP1 REVERT JUMPDEST PUSH1 0x0 SLOAD PUSH1 0x1 PUSH1 0xA0 SHL SWAP1 DIV PUSH1 0xFF AND ISZERO PUSH3 0x612 JUMPI PUSH1 0x40 MLOAD PUSH32 0xD93C066500000000000000000000000000000000000000000000000000000000 DUP2 MSTORE PUSH1 0x4 ADD PUSH1 0x40 MLOAD DUP1 SWAP2 SUB SWAP1 REVERT JUMPDEST PUSH2 0x1AD1 DUP1 PUSH3 0xC9A DUP4 CODECOPY ADD SWAP1 JUMP JUMPDEST PUSH1 0x0 PUSH1 0x20 DUP3 DUP5 SUB SLT ISZERO PUSH3 0x94F JUMPI PUSH1 0x0 DUP1 REVERT JUMPDEST POP CALLDATALOAD SWAP2 SWAP1 POP JUMP JUMPDEST DUP1 CALLDATALOAD PUSH1 0x1 PUSH1 0x1 PUSH1 0xA0 SHL SUB DUP2 AND DUP2 EQ PUSH3 0x96E JUMPI PUSH1 0x0 DUP1 REVERT JUMPDEST SWAP2 SWAP1 POP JUMP JUMPDEST PUSH4 0x4E487B71 PUSH1 0xE0 SHL PUSH1 0x0 MSTORE PUSH1 0x41 PUSH1 0x4 MSTORE PUSH1 0x24 PUSH1 0x0 REVERT JUMPDEST PUSH1 0x0 DUP1 PUSH1 0x0 DUP1 PUSH1 0x0 DUP1 PUSH1 0xC0 DUP8 DUP10 SUB SLT ISZERO PUSH3 0x9A3 JUMPI PUSH1 0x0 DUP1 REVERT JUMPDEST PUSH3 0x9AE DUP8 PUSH3 0x956 JUMP JUMPDEST SWAP6 POP PUSH3 0x9BE PUSH1 0x20 DUP9 ADD PUSH3 0x956 JUMP JUMPDEST SWAP5 POP PUSH3 0x9CE PUSH1 0x40 DUP9 ADD PUSH3 0x956 JUMP JUMPDEST SWAP4 POP PUSH3 0x9DE PUSH1 0x60 DUP9 ADD PUSH3 0x956 JUMP JUMPDEST SWAP3 POP PUSH3 0x9EE PUSH1 0x80 DUP9 ADD PUSH3 0x956 JUMP JUMPDEST SWAP2 POP PUSH1 0xA0 DUP8 ADD CALLDATALOAD PUSH8 0xFFFFFFFFFFFFFFFF DUP1 DUP3 GT ISZERO PUSH3 0xA0C JUMPI PUSH1 0x0 DUP1 REVERT JUMPDEST DUP2 DUP10 ADD SWAP2 POP DUP10 PUSH1 0x1F DUP4 ADD SLT PUSH3 0xA21 JUMPI PUSH1 0x0 DUP1 REVERT JUMPDEST DUP2 CALLDATALOAD DUP2 DUP2 GT ISZERO PUSH3 0xA36 JUMPI PUSH3 0xA36 PUSH3 0x973 JUMP JUMPDEST PUSH1 0x40 MLOAD PUSH1 0x1F DUP3 ADD PUSH1 0x1F NOT SWAP1 DUP2 AND PUSH1 0x3F ADD AND DUP2 ADD SWAP1 DUP4 DUP3 GT DUP2 DUP4 LT OR ISZERO PUSH3 0xA61 JUMPI PUSH3 0xA61 PUSH3 0x973 JUMP JUMPDEST DUP2 PUSH1 0x40 MSTORE DUP3 DUP2 MSTORE DUP13 PUSH1 0x20 DUP5 DUP8 ADD ADD GT ISZERO PUSH3 0xA7B JUMPI PUSH1 0x0 DUP1 REVERT JUMPDEST DUP3 PUSH1 0x20 DUP7 ADD PUSH1 0x20 DUP4 ADD CALLDATACOPY PUSH1 0x0 PUSH1 0x20 DUP5 DUP4 ADD ADD MSTORE DUP1 SWAP6 POP POP POP POP POP POP SWAP3 SWAP6 POP SWAP3 SWAP6 POP SWAP3 SWAP6 JUMP JUMPDEST PUSH1 0x0 PUSH1 0x20 DUP3 DUP5 SUB SLT ISZERO PUSH3 0xAB3 JUMPI PUSH1 0x0 DUP1 REVERT JUMPDEST PUSH3 0xABE DUP3 PUSH3 0x956 JUMP JUMPDEST SWAP4 SWAP3 POP POP POP JUMP JUMPDEST PUSH1 0x0 PUSH1 0x20 DUP1 DUP4 MSTORE DUP4 MLOAD DUP1 DUP3 DUP6 ADD MSTORE PUSH1 0x0 JUMPDEST DUP2 DUP2 LT ISZERO PUSH3 0xAF4 JUMPI DUP6 DUP2 ADD DUP4 ADD MLOAD DUP6 DUP3 ADD PUSH1 0x40 ADD MSTORE DUP3 ADD PUSH3 0xAD6 JUMP JUMPDEST POP PUSH1 0x0 PUSH1 0x40 DUP3 DUP7 ADD ADD MSTORE PUSH1 0x40 PUSH1 0x1F NOT PUSH1 0x1F DUP4 ADD AND DUP6 ADD ADD SWAP3 POP POP POP SWAP3 SWAP2 POP POP JUMP JUMPDEST PUSH1 0x1 DUP2 DUP2 SHR SWAP1 DUP3 AND DUP1 PUSH3 0xB2A JUMPI PUSH1 0x7F DUP3 AND SWAP2 POP JUMPDEST PUSH1 0x20 DUP3 LT DUP2 SUB PUSH3 0xB4B JUMPI PUSH4 0x4E487B71 PUSH1 0xE0 SHL PUSH1 0x0 MSTORE PUSH1 0x22 PUSH1 0x4 MSTORE PUSH1 0x24 PUSH1 0x0 REVERT JUMPDEST POP SWAP2 SWAP1 POP JUMP JUMPDEST PUSH1 0x1F DUP3 GT ISZERO PUSH3 0xB9F JUMPI PUSH1 0x0 DUP2 DUP2 MSTORE PUSH1 0x20 DUP2 KECCAK256 PUSH1 0x1F DUP6 ADD PUSH1 0x5 SHR DUP2 ADD PUSH1 0x20 DUP7 LT ISZERO PUSH3 0xB7A JUMPI POP DUP1 JUMPDEST PUSH1 0x1F DUP6 ADD PUSH1 0x5 SHR DUP3 ADD SWAP2 POP JUMPDEST DUP2 DUP2 LT ISZERO PUSH3 0xB9B JUMPI DUP3 DUP2 SSTORE PUSH1 0x1 ADD PUSH3 0xB86 JUMP JUMPDEST POP POP POP JUMPDEST POP POP POP JUMP JUMPDEST DUP2 MLOAD PUSH8 0xFFFFFFFFFFFFFFFF DUP2 GT ISZERO PUSH3 0xBC1 JUMPI PUSH3 0xBC1 PUSH3 0x973 JUMP JUMPDEST PUSH3 0xBD9 DUP2 PUSH3 0xBD2 DUP5 SLOAD PUSH3 0xB15 JUMP JUMPDEST DUP5 PUSH3 0xB51 JUMP JUMPDEST PUSH1 0x20 DUP1 PUSH1 0x1F DUP4 GT PUSH1 0x1 DUP2 EQ PUSH3 0xC11 JUMPI PUSH1 0x0 DUP5 ISZERO PUSH3 0xBF8 JUMPI POP DUP6 DUP4 ADD MLOAD JUMPDEST PUSH1 0x0 NOT PUSH1 0x3 DUP7 SWAP1 SHL SHR NOT AND PUSH1 0x1 DUP6 SWAP1 SHL OR DUP6 SSTORE PUSH3 0xB9B JUMP JUMPDEST PUSH1 0x0 DUP6 DUP2 MSTORE PUSH1 0x20 DUP2 KECCAK256 PUSH1 0x1F NOT DUP7 AND SWAP2 JUMPDEST DUP3 DUP2 LT ISZERO PUSH3 0xC42 JUMPI DUP9 DUP7 ADD MLOAD DUP3 SSTORE SWAP5 DUP5 ADD SWAP5 PUSH1 0x1 SWAP1 SWAP2 ADD SWAP1 DUP5 ADD PUSH3 0xC21 JUMP JUMPDEST POP DUP6 DUP3 LT ISZERO PUSH3 0xC61 JUMPI DUP8 DUP6 ADD MLOAD PUSH1 0x0 NOT PUSH1 0x3 DUP9 SWAP1 SHL PUSH1 0xF8 AND SHR NOT AND DUP2 SSTORE JUMPDEST POP POP POP POP POP PUSH1 0x1 SWAP1 DUP2 SHL ADD SWAP1 SSTORE POP JUMP JUMPDEST DUP1 DUP3 ADD DUP1 DUP3 GT ISZERO PUSH3 0xC93 JUMPI PUSH4 0x4E487B71 PUSH1 0xE0 SHL PUSH1 0x0 MSTORE PUSH1 0x11 PUSH1 0x4 MSTORE PUSH1 0x24 PUSH1 0x0 REVERT JUMPDEST SWAP3 SWAP2 POP POP JUMP INVALID PUSH1 0x80 PUSH1 0x40 MSTORE CALLVALUE DUP1 ISZERO PUSH3 0x11 JUMPI PUSH1 0x0 DUP1 REVERT JUMPDEST POP PUSH1 0x40 MLOAD PUSH3 0x1AD1 CODESIZE SUB DUP1 PUSH3 0x1AD1 DUP4 CODECOPY DUP2 ADD PUSH1 0x40 DUP2 SWAP1 MSTORE PUSH3 0x34 SWAP2 PUSH3 0x23C JUMP JUMPDEST DUP5 PUSH1 0x1 PUSH1 0x1 PUSH1 0xA0 SHL SUB DUP2 AND PUSH3 0x90 JUMPI PUSH1 0x40 MLOAD PUSH3 0x461BCD PUSH1 0xE5 SHL DUP2 MSTORE PUSH1 0x20 PUSH1 0x4 DUP3 ADD MSTORE PUSH1 0x18 PUSH1 0x24 DUP3 ADD MSTORE PUSH32 0x496E76616C696441646472657373285F61646472657373290000000000000000 PUSH1 0x44 DUP3 ADD MSTORE PUSH1 0x64 ADD PUSH1 0x40 MLOAD DUP1 SWAP2 SUB SWAP1 REVERT JUMPDEST PUSH3 0xBC PUSH32 0xA49807205CE4D355092EF5A8A18F56E8913CF4A201FBE287825B095693C21775 DUP8 PUSH3 0x170 JUMP JUMPDEST POP PUSH3 0xE9 PUSH32 0xD49944B67E8D70389D5D7C1F0F260F907B9705C55BAA96BBA23F68E4CEDF5418 DUP7 PUSH3 0x170 JUMP JUMPDEST POP PUSH3 0x116 PUSH32 0x51B355059847D158E68950419DBCD54FAD00BDFD0634C2515A5C533288C7F0A2 DUP6 PUSH3 0x170 JUMP JUMPDEST POP PUSH3 0x143 PUSH32 0x3F12A51C1A5D4235E47A0365DDC220BE1678CCFFCDF71BFD6EE9C417F801E008 DUP5 PUSH3 0x170 JUMP JUMPDEST POP POP PUSH1 0x9 DUP1 SLOAD PUSH1 0x1 PUSH1 0x1 PUSH1 0xA0 SHL SUB NOT AND PUSH1 0x1 PUSH1 0x1 PUSH1 0xA0 SHL SUB SWAP3 SWAP1 SWAP3 AND SWAP2 SWAP1 SWAP2 OR SWAP1 SSTORE POP PUSH3 0x2AC SWAP3 POP POP POP JUMP JUMPDEST PUSH1 0x0 DUP3 DUP2 MSTORE PUSH1 0x20 DUP2 DUP2 MSTORE PUSH1 0x40 DUP1 DUP4 KECCAK256 PUSH1 0x1 PUSH1 0x1 PUSH1 0xA0 SHL SUB DUP6 AND DUP5 MSTORE SWAP1 SWAP2 MSTORE DUP2 KECCAK256 SLOAD PUSH1 0xFF AND PUSH3 0x215 JUMPI PUSH1 0x0 DUP4 DUP2 MSTORE PUSH1 0x20 DUP2 DUP2 MSTORE PUSH1 0x40 DUP1 DUP4 KECCAK256 PUSH1 0x1 PUSH1 0x1 PUSH1 0xA0 SHL SUB DUP7 AND DUP5 MSTORE SWAP1 SWAP2 MSTORE SWAP1 KECCAK256 DUP1 SLOAD PUSH1 0xFF NOT AND PUSH1 0x1 OR SWAP1 SSTORE PUSH3 0x1CC CALLER SWAP1 JUMP JUMPDEST PUSH1 0x1 PUSH1 0x1 PUSH1 0xA0 SHL SUB AND DUP3 PUSH1 0x1 PUSH1 0x1 PUSH1 0xA0 SHL SUB AND DUP5 PUSH32 0x2F8788117E7EFF1D82E926EC794901D17C78024A50270940304540A733656F0D PUSH1 0x40 MLOAD PUSH1 0x40 MLOAD DUP1 SWAP2 SUB SWAP1 LOG4 POP PUSH1 0x1 PUSH3 0x219 JUMP JUMPDEST POP PUSH1 0x0 JUMPDEST SWAP3 SWAP2 POP POP JUMP JUMPDEST DUP1 MLOAD PUSH1 0x1 PUSH1 0x1 PUSH1 0xA0 SHL SUB DUP2 AND DUP2 EQ PUSH3 0x237 JUMPI PUSH1 0x0 DUP1 REVERT JUMPDEST SWAP2 SWAP1 POP JUMP JUMPDEST PUSH1 0x0 DUP1 PUSH1 0x0 DUP1 PUSH1 0x0 PUSH1 0xA0 DUP7 DUP9 SUB SLT ISZERO PUSH3 0x255 JUMPI PUSH1 0x0 DUP1 REVERT JUMPDEST PUSH3 0x260 DUP7 PUSH3 0x21F JUMP JUMPDEST SWAP5 POP PUSH3 0x270 PUSH1 0x20 DUP8 ADD PUSH3 0x21F JUMP JUMPDEST SWAP4 POP PUSH3 0x280 PUSH1 0x40 DUP8 ADD PUSH3 0x21F JUMP JUMPDEST SWAP3 POP PUSH3 0x290 PUSH1 0x60 DUP8 ADD PUSH3 0x21F JUMP JUMPDEST SWAP2 POP PUSH3 0x2A0 PUSH1 0x80 DUP8 ADD PUSH3 0x21F JUMP JUMPDEST SWAP1 POP SWAP3 SWAP6 POP SWAP3 SWAP6 SWAP1 SWAP4 POP JUMP JUMPDEST PUSH2 0x1815 DUP1 PUSH3 0x2BC PUSH1 0x0 CODECOPY PUSH1 0x0 RETURN INVALID PUSH1 0x80 PUSH1 0x40 MSTORE PUSH1 0x4 CALLDATASIZE LT PUSH2 0x253 JUMPI PUSH1 0x0 CALLDATALOAD PUSH1 0xE0 SHR DUP1 PUSH4 0x5D520DB5 GT PUSH2 0x138 JUMPI DUP1 PUSH4 0xA995B114 GT PUSH2 0xB0 JUMPI DUP1 PUSH4 0xD0E30DB0 GT PUSH2 0x7F JUMPI DUP1 PUSH4 0xDAB7A28E GT PUSH2 0x64 JUMPI DUP1 PUSH4 0xDAB7A28E EQ PUSH2 0x71E JUMPI DUP1 PUSH4 0xFCF0F0D3 EQ PUSH2 0x73E JUMPI DUP1 PUSH4 0xFCFEA5DC EQ PUSH2 0x772 JUMPI PUSH1 0x0 DUP1 REVERT JUMPDEST DUP1 PUSH4 0xD0E30DB0 EQ PUSH2 0x6F6 JUMPI DUP1 PUSH4 0xD547741F EQ PUSH2 0x6FE JUMPI PUSH1 0x0 DUP1 REVERT JUMPDEST DUP1 PUSH4 0xA995B114 EQ PUSH2 0x662 JUMPI DUP1 PUSH4 0xB434283F EQ PUSH2 0x682 JUMPI DUP1 PUSH4 0xBBB9B131 EQ PUSH2 0x6A2 JUMPI DUP1 PUSH4 0xBF051C13 EQ PUSH2 0x6C2 JUMPI PUSH1 0x0 DUP1 REVERT JUMPDEST DUP1 PUSH4 0x91D14854 GT PUSH2 0x107 JUMPI DUP1 PUSH4 0x9E1A005F GT PUSH2 0xEC JUMPI DUP1 PUSH4 0x9E1A005F EQ PUSH2 0x60D JUMPI DUP1 PUSH4 0xA17EC6D4 EQ PUSH2 0x62D JUMPI DUP1 PUSH4 0xA217FDDF EQ PUSH2 0x64D JUMPI PUSH1 0x0 DUP1 REVERT JUMPDEST DUP1 PUSH4 0x91D14854 EQ PUSH2 0x59C JUMPI DUP1 PUSH4 0x929068CB EQ PUSH2 0x5E0 JUMPI PUSH1 0x0 DUP1 REVERT JUMPDEST DUP1 PUSH4 0x5D520DB5 EQ PUSH2 0x4FF JUMPI DUP1 PUSH4 0x6954A1EA EQ PUSH2 0x514 JUMPI DUP1 PUSH4 0x75B238FC EQ PUSH2 0x534 JUMPI DUP1 PUSH4 0x8F61F4F5 EQ PUSH2 0x568 JUMPI PUSH1 0x0 DUP1 REVERT JUMPDEST DUP1 PUSH4 0x327305F2 GT PUSH2 0x1CB JUMPI DUP1 PUSH4 0x4049DDD2 GT PUSH2 0x19A JUMPI DUP1 PUSH4 0x49F961D6 GT PUSH2 0x17F JUMPI DUP1 PUSH4 0x49F961D6 EQ PUSH2 0x496 JUMPI DUP1 PUSH4 0x4FCF2599 EQ PUSH2 0x4AB JUMPI DUP1 PUSH4 0x5BC71363 EQ PUSH2 0x4CB JUMPI PUSH1 0x0 DUP1 REVERT JUMPDEST DUP1 PUSH4 0x4049DDD2 EQ PUSH2 0x456 JUMPI DUP1 PUSH4 0x44387CC2 EQ PUSH2 0x476 JUMPI PUSH1 0x0 DUP1 REVERT JUMPDEST DUP1 PUSH4 0x327305F2 EQ PUSH2 0x3E7 JUMPI DUP1 PUSH4 0x36568ABE EQ PUSH2 0x401 JUMPI DUP1 PUSH4 0x380770A9 EQ PUSH2 0x421 JUMPI DUP1 PUSH4 0x3CCFD60B EQ PUSH2 0x441 JUMPI PUSH1 0x0 DUP1 REVERT JUMPDEST DUP1 PUSH4 0x1E310FCF GT PUSH2 0x222 JUMPI DUP1 PUSH4 0x27C87B2E GT PUSH2 0x207 JUMPI DUP1 PUSH4 0x27C87B2E EQ PUSH2 0x377 JUMPI DUP1 PUSH4 0x2B1AF71D EQ PUSH2 0x3AF JUMPI DUP1 PUSH4 0x2F2FF15D EQ PUSH2 0x3C5 JUMPI PUSH1 0x0 DUP1 REVERT JUMPDEST DUP1 PUSH4 0x1E310FCF EQ PUSH2 0x332 JUMPI DUP1 PUSH4 0x248A9CA3 EQ PUSH2 0x347 JUMPI PUSH1 0x0 DUP1 REVERT JUMPDEST DUP1 PUSH4 0x123E826 EQ PUSH2 0x297 JUMPI DUP1 PUSH4 0x1FFC9A7 EQ PUSH2 0x2BB JUMPI DUP1 PUSH4 0x7BD0265 EQ PUSH2 0x2EB JUMPI DUP1 PUSH4 0x12065FE0 EQ PUSH2 0x31F JUMPI PUSH1 0x0 DUP1 REVERT JUMPDEST CALLDATASIZE PUSH2 0x292 JUMPI PUSH1 0x40 MLOAD CALLVALUE DUP2 MSTORE PUSH1 0x0 SWAP1 CALLER SWAP1 PUSH32 0x493AE1E948A02344C50E8C8974F7DDBE43EC9AA56D677A1D3B4A811B098C9F34 SWAP1 PUSH1 0x20 ADD PUSH1 0x40 MLOAD DUP1 SWAP2 SUB SWAP1 LOG3 STOP JUMPDEST PUSH1 0x0 DUP1 REVERT JUMPDEST CALLVALUE DUP1 ISZERO PUSH2 0x2A3 JUMPI PUSH1 0x0 DUP1 REVERT JUMPDEST POP PUSH1 0x3 SLOAD JUMPDEST PUSH1 0x40 MLOAD SWAP1 DUP2 MSTORE PUSH1 0x20 ADD JUMPDEST PUSH1 0x40 MLOAD DUP1 SWAP2 SUB SWAP1 RETURN JUMPDEST CALLVALUE DUP1 ISZERO PUSH2 0x2C7 JUMPI PUSH1 0x0 DUP1 REVERT JUMPDEST POP PUSH2 0x2DB PUSH2 0x2D6 CALLDATASIZE PUSH1 0x4 PUSH2 0x15ED JUMP JUMPDEST PUSH2 0x79F JUMP JUMPDEST PUSH1 0x40 MLOAD SWAP1 ISZERO ISZERO DUP2 MSTORE PUSH1 0x20 ADD PUSH2 0x2B2 JUMP JUMPDEST CALLVALUE DUP1 ISZERO PUSH2 0x2F7 JUMPI PUSH1 0x0 DUP1 REVERT JUMPDEST POP PUSH2 0x2A8 PUSH32 0xD8AA0F3194971A2A116679F7C2090F6939C8D4E01A2A8D7E41D55E5351469E63 DUP2 JUMP JUMPDEST CALLVALUE DUP1 ISZERO PUSH2 0x32B JUMPI PUSH1 0x0 DUP1 REVERT JUMPDEST POP SELFBALANCE PUSH2 0x2A8 JUMP JUMPDEST CALLVALUE DUP1 ISZERO PUSH2 0x33E JUMPI PUSH1 0x0 DUP1 REVERT JUMPDEST POP PUSH1 0x5 SLOAD PUSH2 0x2A8 JUMP JUMPDEST CALLVALUE DUP1 ISZERO PUSH2 0x353 JUMPI PUSH1 0x0 DUP1 REVERT JUMPDEST POP PUSH2 0x2A8 PUSH2 0x362 CALLDATASIZE PUSH1 0x4 PUSH2 0x1636 JUMP JUMPDEST PUSH1 0x0 SWAP1 DUP2 MSTORE PUSH1 0x20 DUP2 SWAP1 MSTORE PUSH1 0x40 SWAP1 KECCAK256 PUSH1 0x1 ADD SLOAD SWAP1 JUMP JUMPDEST CALLVALUE DUP1 ISZERO PUSH2 0x383 JUMPI PUSH1 0x0 DUP1 REVERT JUMPDEST POP PUSH2 0x397 PUSH2 0x392 CALLDATASIZE PUSH1 0x4 PUSH2 0x164F JUMP JUMPDEST PUSH2 0x838 JUMP JUMPDEST PUSH1 0x40 MLOAD PUSH1 0x1 PUSH1 0x1 PUSH1 0xA0 SHL SUB SWAP1 SWAP2 AND DUP2 MSTORE PUSH1 0x20 ADD PUSH2 0x2B2 JUMP JUMPDEST CALLVALUE DUP1 ISZERO PUSH2 0x3BB JUMPI PUSH1 0x0 DUP1 REVERT JUMPDEST POP PUSH2 0x2A8 PUSH1 0x1 SLOAD DUP2 JUMP JUMPDEST CALLVALUE DUP1 ISZERO PUSH2 0x3D1 JUMPI PUSH1 0x0 DUP1 REVERT JUMPDEST POP PUSH2 0x3E5 PUSH2 0x3E0 CALLDATASIZE PUSH1 0x4 PUSH2 0x168D JUMP JUMPDEST PUSH2 0x870 JUMP JUMPDEST STOP JUMPDEST CALLVALUE DUP1 ISZERO PUSH2 0x3F3 JUMPI PUSH1 0x0 DUP1 REVERT JUMPDEST POP PUSH1 0x2 SLOAD PUSH2 0x2DB SWAP1 PUSH1 0xFF AND DUP2 JUMP JUMPDEST CALLVALUE DUP1 ISZERO PUSH2 0x40D JUMPI PUSH1 0x0 DUP1 REVERT JUMPDEST POP PUSH2 0x3E5 PUSH2 0x41C CALLDATASIZE PUSH1 0x4 PUSH2 0x168D JUMP JUMPDEST PUSH2 0x89B JUMP JUMPDEST CALLVALUE DUP1 ISZERO PUSH2 0x42D JUMPI PUSH1 0x0 DUP1 REVERT JUMPDEST POP PUSH2 0x3E5 PUSH2 0x43C CALLDATASIZE PUSH1 0x4 PUSH2 0x16D1 JUMP JUMPDEST PUSH2 0x8EC JUMP JUMPDEST CALLVALUE DUP1 ISZERO PUSH2 0x44D JUMPI PUSH1 0x0 DUP1 REVERT JUMPDEST POP PUSH2 0x3E5 PUSH2 0x9B6 JUMP JUMPDEST CALLVALUE DUP1 ISZERO PUSH2 0x462 JUMPI PUSH1 0x0 DUP1 REVERT JUMPDEST POP PUSH2 0x2A8 PUSH2 0x471 CALLDATASIZE PUSH1 0x4 PUSH2 0x1636 JUMP JUMPDEST PUSH2 0xA92 JUMP JUMPDEST CALLVALUE DUP1 ISZERO PUSH2 0x482 JUMPI PUSH1 0x0 DUP1 REVERT JUMPDEST POP PUSH1 0x9 SLOAD PUSH2 0x397 SWAP1 PUSH1 0x1 PUSH1 0x1 PUSH1 0xA0 SHL SUB AND DUP2 JUMP JUMPDEST CALLVALUE DUP1 ISZERO PUSH2 0x4A2 JUMPI PUSH1 0x0 DUP1 REVERT JUMPDEST POP PUSH2 0x3E5 PUSH2 0xAB3 JUMP JUMPDEST CALLVALUE DUP1 ISZERO PUSH2 0x4B7 JUMPI PUSH1 0x0 DUP1 REVERT JUMPDEST POP PUSH2 0x397 PUSH2 0x4C6 CALLDATASIZE PUSH1 0x4 PUSH2 0x1636 JUMP JUMPDEST PUSH2 0xBCD JUMP JUMPDEST CALLVALUE DUP1 ISZERO PUSH2 0x4D7 JUMPI PUSH1 0x0 DUP1 REVERT JUMPDEST POP PUSH2 0x2A8 PUSH32 0xD49944B67E8D70389D5D7C1F0F260F907B9705C55BAA96BBA23F68E4CEDF5418 DUP2 JUMP JUMPDEST CALLVALUE DUP1 ISZERO PUSH2 0x50B JUMPI PUSH1 0x0 DUP1 REVERT JUMPDEST POP PUSH1 0x4 SLOAD PUSH2 0x2A8 JUMP JUMPDEST CALLVALUE DUP1 ISZERO PUSH2 0x520 JUMPI PUSH1 0x0 DUP1 REVERT JUMPDEST POP PUSH2 0x3E5 PUSH2 0x52F CALLDATASIZE PUSH1 0x4 PUSH2 0x16EC JUMP JUMPDEST PUSH2 0xBF7 JUMP JUMPDEST CALLVALUE DUP1 ISZERO PUSH2 0x540 JUMPI PUSH1 0x0 DUP1 REVERT JUMPDEST POP PUSH2 0x2A8 PUSH32 0xA49807205CE4D355092EF5A8A18F56E8913CF4A201FBE287825B095693C21775 DUP2 JUMP JUMPDEST CALLVALUE DUP1 ISZERO PUSH2 0x574 JUMPI PUSH1 0x0 DUP1 REVERT JUMPDEST POP PUSH2 0x2A8 PUSH32 0xB09AA5AEB3702CFD50B6B62BC4532604938F21248A27A1D5CA736082B6819CC1 DUP2 JUMP JUMPDEST CALLVALUE DUP1 ISZERO PUSH2 0x5A8 JUMPI PUSH1 0x0 DUP1 REVERT JUMPDEST POP PUSH2 0x2DB PUSH2 0x5B7 CALLDATASIZE PUSH1 0x4 PUSH2 0x168D JUMP JUMPDEST PUSH1 0x0 SWAP2 DUP3 MSTORE PUSH1 0x20 DUP3 DUP2 MSTORE PUSH1 0x40 DUP1 DUP5 KECCAK256 PUSH1 0x1 PUSH1 0x1 PUSH1 0xA0 SHL SUB SWAP4 SWAP1 SWAP4 AND DUP5 MSTORE SWAP2 SWAP1 MSTORE SWAP1 KECCAK256 SLOAD PUSH1 0xFF AND SWAP1 JUMP JUMPDEST CALLVALUE DUP1 ISZERO PUSH2 0x5EC JUMPI PUSH1 0x0 DUP1 REVERT JUMPDEST POP PUSH2 0x2A8 PUSH2 0x5FB CALLDATASIZE PUSH1 0x4 PUSH2 0x1716 JUMP JUMPDEST PUSH1 0x8 PUSH1 0x20 MSTORE PUSH1 0x0 SWAP1 DUP2 MSTORE PUSH1 0x40 SWAP1 KECCAK256 SLOAD DUP2 JUMP JUMPDEST CALLVALUE DUP1 ISZERO PUSH2 0x619 JUMPI PUSH1 0x0 DUP1 REVERT JUMPDEST POP PUSH2 0x3E5 PUSH2 0x628 CALLDATASIZE PUSH1 0x4 PUSH2 0x16D1 JUMP JUMPDEST PUSH2 0xD0D JUMP JUMPDEST CALLVALUE DUP1 ISZERO PUSH2 0x639 JUMPI PUSH1 0x0 DUP1 REVERT JUMPDEST POP PUSH2 0x3E5 PUSH2 0x648 CALLDATASIZE PUSH1 0x4 PUSH2 0x16EC JUMP JUMPDEST PUSH2 0xDA4 JUMP JUMPDEST CALLVALUE DUP1 ISZERO PUSH2 0x659 JUMPI PUSH1 0x0 DUP1 REVERT JUMPDEST POP PUSH2 0x2A8 PUSH1 0x0 DUP2 JUMP JUMPDEST CALLVALUE DUP1 ISZERO PUSH2 0x66E JUMPI PUSH1 0x0 DUP1 REVERT JUMPDEST POP PUSH2 0x3E5 PUSH2 0x67D CALLDATASIZE PUSH1 0x4 PUSH2 0x1731 JUMP JUMPDEST PUSH2 0xF1D JUMP JUMPDEST CALLVALUE DUP1 ISZERO PUSH2 0x68E JUMPI PUSH1 0x0 DUP1 REVERT JUMPDEST POP PUSH2 0x3E5 PUSH2 0x69D CALLDATASIZE PUSH1 0x4 PUSH2 0x1731 JUMP JUMPDEST PUSH2 0x114E JUMP JUMPDEST CALLVALUE DUP1 ISZERO PUSH2 0x6AE JUMPI PUSH1 0x0 DUP1 REVERT JUMPDEST POP PUSH2 0x3E5 PUSH2 0x6BD CALLDATASIZE PUSH1 0x4 PUSH2 0x16EC JUMP JUMPDEST PUSH2 0x128D JUMP JUMPDEST CALLVALUE DUP1 ISZERO PUSH2 0x6CE JUMPI PUSH1 0x0 DUP1 REVERT JUMPDEST POP PUSH2 0x2A8 PUSH32 0x3F12A51C1A5D4235E47A0365DDC220BE1678CCFFCDF71BFD6EE9C417F801E008 DUP2 JUMP JUMPDEST PUSH2 0x3E5 PUSH2 0x13BA JUMP JUMPDEST CALLVALUE DUP1 ISZERO PUSH2 0x70A JUMPI PUSH1 0x0 DUP1 REVERT JUMPDEST POP PUSH2 0x3E5 PUSH2 0x719 CALLDATASIZE PUSH1 0x4 PUSH2 0x168D JUMP JUMPDEST PUSH2 0x1412 JUMP JUMPDEST CALLVALUE DUP1 ISZERO PUSH2 0x72A JUMPI PUSH1 0x0 DUP1 REVERT JUMPDEST POP PUSH2 0x397 PUSH2 0x739 CALLDATASIZE PUSH1 0x4 PUSH2 0x1636 JUMP JUMPDEST PUSH2 0x1437 JUMP JUMPDEST CALLVALUE DUP1 ISZERO PUSH2 0x74A JUMPI PUSH1 0x0 DUP1 REVERT JUMPDEST POP PUSH2 0x2A8 PUSH32 0x51B355059847D158E68950419DBCD54FAD00BDFD0634C2515A5C533288C7F0A2 DUP2 JUMP JUMPDEST CALLVALUE DUP1 ISZERO PUSH2 0x77E JUMPI PUSH1 0x0 DUP1 REVERT JUMPDEST POP PUSH2 0x2A8 PUSH2 0x78D CALLDATASIZE PUSH1 0x4 PUSH2 0x1716 JUMP JUMPDEST PUSH1 0x6 PUSH1 0x20 MSTORE PUSH1 0x0 SWAP1 DUP2 MSTORE PUSH1 0x40 SWAP1 KECCAK256 SLOAD DUP2 JUMP JUMPDEST PUSH1 0x0 PUSH32 0xFFFFFFFF00000000000000000000000000000000000000000000000000000000 DUP3 AND PUSH32 0x7965DB0B00000000000000000000000000000000000000000000000000000000 EQ DUP1 PUSH2 0x832 JUMPI POP PUSH32 0x1FFC9A700000000000000000000000000000000000000000000000000000000 PUSH32 0xFFFFFFFF00000000000000000000000000000000000000000000000000000000 DUP4 AND EQ JUMPDEST SWAP3 SWAP2 POP POP JUMP JUMPDEST PUSH1 0x7 PUSH1 0x20 MSTORE DUP2 PUSH1 0x0 MSTORE PUSH1 0x40 PUSH1 0x0 KECCAK256 DUP2 DUP2 SLOAD DUP2 LT PUSH2 0x854 JUMPI PUSH1 0x0 DUP1 REVERT JUMPDEST PUSH1 0x0 SWAP2 DUP3 MSTORE PUSH1 0x20 SWAP1 SWAP2 KECCAK256 ADD SLOAD PUSH1 0x1 PUSH1 0x1 PUSH1 0xA0 SHL SUB AND SWAP2 POP DUP3 SWAP1 POP JUMP JUMPDEST PUSH1 0x0 DUP3 DUP2 MSTORE PUSH1 0x20 DUP2 SWAP1 MSTORE PUSH1 0x40 SWAP1 KECCAK256 PUSH1 0x1 ADD SLOAD PUSH2 0x88B DUP2 PUSH2 0x1447 JUMP JUMPDEST PUSH2 0x895 DUP4 DUP4 PUSH2 0x1454 JUMP JUMPDEST POP POP POP POP JUMP JUMPDEST PUSH1 0x1 PUSH1 0x1 PUSH1 0xA0 SHL SUB DUP2 AND CALLER EQ PUSH2 0x8DD JUMPI PUSH1 0x40 MLOAD PUSH32 0x6697B23200000000000000000000000000000000000000000000000000000000 DUP2 MSTORE PUSH1 0x4 ADD PUSH1 0x40 MLOAD DUP1 SWAP2 SUB SWAP1 REVERT JUMPDEST PUSH2 0x8E7 DUP3 DUP3 PUSH2 0x14FE JUMP JUMPDEST POP POP POP JUMP JUMPDEST PUSH32 0xA49807205CE4D355092EF5A8A18F56E8913CF4A201FBE287825B095693C21775 PUSH2 0x916 DUP2 PUSH2 0x1447 JUMP JUMPDEST PUSH1 0x0 JUMPDEST PUSH1 0x4 SLOAD DUP2 LT ISZERO PUSH2 0x8E7 JUMPI DUP3 PUSH8 0xFFFFFFFFFFFFFFFF AND PUSH1 0x4 DUP3 DUP2 SLOAD DUP2 LT PUSH2 0x941 JUMPI PUSH2 0x941 PUSH2 0x175B JUMP JUMPDEST SWAP1 PUSH1 0x0 MSTORE PUSH1 0x20 PUSH1 0x0 KECCAK256 ADD SLOAD SUB PUSH2 0x9A4 JUMPI PUSH1 0x4 DUP2 DUP2 SLOAD DUP2 LT PUSH2 0x964 JUMPI PUSH2 0x964 PUSH2 0x175B JUMP JUMPDEST PUSH1 0x0 SWAP2 DUP3 MSTORE PUSH1 0x20 DUP3 KECCAK256 ADD DUP2 SWAP1 SSTORE PUSH1 0x40 MLOAD PUSH8 0xFFFFFFFFFFFFFFFF DUP6 AND SWAP2 PUSH32 0x9FB7D162EA74FB059C253E48F937B3E09E78F8BBB7BD5D0D39FEC9716BA849F1 SWAP2 LOG2 JUMPDEST DUP1 PUSH2 0x9AE DUP2 PUSH2 0x1787 JUMP JUMPDEST SWAP2 POP POP PUSH2 0x919 JUMP JUMPDEST PUSH32 0xD49944B67E8D70389D5D7C1F0F260F907B9705C55BAA96BBA23F68E4CEDF5418 PUSH2 0x9E0 DUP2 PUSH2 0x1447 JUMP JUMPDEST PUSH32 0x3F12A51C1A5D4235E47A0365DDC220BE1678CCFFCDF71BFD6EE9C417F801E008 PUSH2 0xA0A DUP2 PUSH2 0x1447 JUMP JUMPDEST PUSH1 0x0 JUMPDEST PUSH1 0x5 SLOAD DUP2 LT ISZERO PUSH2 0x8E7 JUMPI PUSH1 0x0 PUSH1 0x5 DUP3 DUP2 SLOAD DUP2 LT PUSH2 0xA2C JUMPI PUSH2 0xA2C PUSH2 0x175B JUMP JUMPDEST PUSH1 0x0 SWAP2 DUP3 MSTORE PUSH1 0x20 DUP1 DUP4 KECCAK256 SWAP1 SWAP2 ADD SLOAD PUSH1 0x1 PUSH1 0x1 PUSH1 0xA0 SHL SUB AND DUP1 DUP4 MSTORE PUSH1 0x6 SWAP1 SWAP2 MSTORE PUSH1 0x40 DUP1 DUP4 KECCAK256 SLOAD SWAP1 MLOAD SWAP2 SWAP4 POP DUP4 SWAP3 DUP2 ISZERO PUSH2 0x8FC MUL SWAP3 SWAP1 DUP2 DUP2 DUP2 DUP6 DUP9 DUP9 CALL SWAP4 POP POP POP POP ISZERO DUP1 ISZERO PUSH2 0xA7D JUMPI RETURNDATASIZE PUSH1 0x0 DUP1 RETURNDATACOPY RETURNDATASIZE PUSH1 0x0 REVERT JUMPDEST POP POP DUP1 DUP1 PUSH2 0xA8A SWAP1 PUSH2 0x1787 JUMP JUMPDEST SWAP2 POP POP PUSH2 0xA0D JUMP JUMPDEST PUSH1 0x4 DUP2 DUP2 SLOAD DUP2 LT PUSH2 0xAA2 JUMPI PUSH1 0x0 DUP1 REVERT JUMPDEST PUSH1 0x0 SWAP2 DUP3 MSTORE PUSH1 0x20 SWAP1 SWAP2 KECCAK256 ADD SLOAD SWAP1 POP DUP2 JUMP JUMPDEST PUSH1 0x9 SLOAD PUSH1 0x40 MLOAD PUSH32 0xA40C4C4000000000000000000000000000000000000000000000000000000000 DUP2 MSTORE ADDRESS PUSH1 0x4 DUP3 ADD MSTORE TIMESTAMP SWAP2 PUSH1 0x1 PUSH1 0x1 PUSH1 0xA0 SHL SUB AND SWAP1 PUSH4 0xA40C4C40 SWAP1 PUSH1 0x24 ADD PUSH1 0x20 PUSH1 0x40 MLOAD DUP1 DUP4 SUB DUP2 DUP7 GAS STATICCALL ISZERO DUP1 ISZERO PUSH2 0xB14 JUMPI RETURNDATASIZE PUSH1 0x0 DUP1 RETURNDATACOPY RETURNDATASIZE PUSH1 0x0 REVERT JUMPDEST POP POP POP POP PUSH1 0x40 MLOAD RETURNDATASIZE PUSH1 0x1F NOT PUSH1 0x1F DUP3 ADD AND DUP3 ADD DUP1 PUSH1 0x40 MSTORE POP DUP2 ADD SWAP1 PUSH2 0xB38 SWAP2 SWAP1 PUSH2 0x17A0 JUMP JUMPDEST LT PUSH2 0xBBE JUMPI PUSH1 0x9 SLOAD PUSH1 0x40 MLOAD PUSH32 0x12B21EB500000000000000000000000000000000000000000000000000000000 DUP2 MSTORE ADDRESS PUSH1 0x4 DUP3 ADD MSTORE PUSH1 0x1 PUSH1 0x1 PUSH1 0xA0 SHL SUB SWAP1 SWAP2 AND SWAP1 PUSH4 0x12B21EB5 SWAP1 PUSH1 0x24 ADD PUSH1 0x0 PUSH1 0x40 MLOAD DUP1 DUP4 SUB DUP2 PUSH1 0x0 DUP8 DUP1 EXTCODESIZE ISZERO DUP1 ISZERO PUSH2 0xB9B JUMPI PUSH1 0x0 DUP1 REVERT JUMPDEST POP GAS CALL ISZERO DUP1 ISZERO PUSH2 0xBAF JUMPI RETURNDATASIZE PUSH1 0x0 DUP1 RETURNDATACOPY RETURNDATASIZE PUSH1 0x0 REVERT JUMPDEST POP POP PUSH1 0x2 DUP1 SLOAD PUSH1 0xFF NOT AND SWAP1 SSTORE POP POP JUMPDEST PUSH1 0x2 DUP1 SLOAD PUSH1 0xFF NOT AND PUSH1 0x1 OR SWAP1 SSTORE JUMP JUMPDEST PUSH1 0x3 DUP2 DUP2 SLOAD DUP2 LT PUSH2 0xBDD JUMPI PUSH1 0x0 DUP1 REVERT JUMPDEST PUSH1 0x0 SWAP2 DUP3 MSTORE PUSH1 0x20 SWAP1 SWAP2 KECCAK256 ADD SLOAD PUSH1 0x1 PUSH1 0x1 PUSH1 0xA0 SHL SUB AND SWAP1 POP DUP2 JUMP JUMPDEST PUSH32 0xA49807205CE4D355092EF5A8A18F56E8913CF4A201FBE287825B095693C21775 PUSH2 0xC21 DUP2 PUSH2 0x1447 JUMP JUMPDEST DUP3 PUSH1 0x1 PUSH1 0x1 PUSH1 0xA0 SHL SUB DUP2 AND PUSH2 0xC7D JUMPI PUSH1 0x40 MLOAD PUSH3 0x461BCD PUSH1 0xE5 SHL DUP2 MSTORE PUSH1 0x20 PUSH1 0x4 DUP3 ADD MSTORE PUSH1 0x18 PUSH1 0x24 DUP3 ADD MSTORE PUSH32 0x496E76616C696441646472657373285F61646472657373290000000000000000 PUSH1 0x44 DUP3 ADD MSTORE PUSH1 0x64 ADD JUMPDEST PUSH1 0x40 MLOAD DUP1 SWAP2 SUB SWAP1 REVERT JUMPDEST PUSH1 0x1 PUSH1 0x1 PUSH1 0xA0 SHL SUB DUP5 AND PUSH1 0x0 SWAP1 DUP2 MSTORE PUSH1 0x6 PUSH1 0x20 MSTORE PUSH1 0x40 DUP2 KECCAK256 DUP5 SWAP1 SSTORE PUSH1 0x1 DUP1 SLOAD DUP6 SWAP3 SWAP1 PUSH2 0xCAA SWAP1 DUP5 SWAP1 PUSH2 0x17B9 JUMP JUMPDEST SWAP3 POP POP DUP2 SWAP1 SSTORE POP DUP3 PUSH1 0x1 PUSH1 0x0 DUP3 DUP3 SLOAD PUSH2 0xCC3 SWAP2 SWAP1 PUSH2 0x17CC JUMP JUMPDEST SWAP1 SWAP2 SSTORE POP POP PUSH1 0x40 MLOAD DUP4 DUP2 MSTORE PUSH1 0x1 PUSH1 0x1 PUSH1 0xA0 SHL SUB DUP6 AND SWAP1 PUSH32 0x627436284666290B2ED6746A3D31CF95427398D04245C2E7DFEC82AAF1472BF0 SWAP1 PUSH1 0x20 ADD JUMPDEST PUSH1 0x40 MLOAD DUP1 SWAP2 SUB SWAP1 LOG2 POP POP POP POP JUMP JUMPDEST PUSH32 0xA49807205CE4D355092EF5A8A18F56E8913CF4A201FBE287825B095693C21775 PUSH2 0xD37 DUP2 PUSH2 0x1447 JUMP JUMPDEST PUSH1 0x4 DUP1 SLOAD PUSH1 0x1 DUP2 ADD DUP3 SSTORE PUSH1 0x0 SWAP2 DUP3 MSTORE PUSH8 0xFFFFFFFFFFFFFFFF DUP5 AND PUSH32 0x8A35ACFBC15FF81A39AE7D344FD709F28E8600B4AA8C65C6B64BFE7FE36BD19B SWAP1 SWAP2 ADD DUP2 SWAP1 SSTORE PUSH1 0x40 MLOAD SWAP1 SWAP2 PUSH32 0x8E5DFC69288BB774F9EE4CAEECA57E97DF011BFF7A0B2AA2966873FEA7A96EBD SWAP2 LOG2 POP POP JUMP JUMPDEST PUSH32 0xA49807205CE4D355092EF5A8A18F56E8913CF4A201FBE287825B095693C21775 PUSH2 0xDCE DUP2 PUSH2 0x1447 JUMP JUMPDEST DUP3 PUSH1 0x1 PUSH1 0x1 PUSH1 0xA0 SHL SUB DUP2 AND PUSH2 0xE25 JUMPI PUSH1 0x40 MLOAD PUSH3 0x461BCD PUSH1 0xE5 SHL DUP2 MSTORE PUSH1 0x20 PUSH1 0x4 DUP3 ADD MSTORE PUSH1 0x18 PUSH1 0x24 DUP3 ADD MSTORE PUSH32 0x496E76616C696441646472657373285F61646472657373290000000000000000 PUSH1 0x44 DUP3 ADD MSTORE PUSH1 0x64 ADD PUSH2 0xC74 JUMP JUMPDEST PUSH1 0x0 JUMPDEST PUSH1 0x5 SLOAD DUP2 LT ISZERO PUSH2 0xF16 JUMPI DUP5 PUSH1 0x1 PUSH1 0x1 PUSH1 0xA0 SHL SUB AND PUSH1 0x5 DUP3 DUP2 SLOAD DUP2 LT PUSH2 0xE4F JUMPI PUSH2 0xE4F PUSH2 0x175B JUMP JUMPDEST PUSH1 0x0 SWAP2 DUP3 MSTORE PUSH1 0x20 SWAP1 SWAP2 KECCAK256 ADD SLOAD PUSH1 0x1 PUSH1 0x1 PUSH1 0xA0 SHL SUB AND SUB PUSH2 0xF04 JUMPI PUSH1 0x5 DUP2 DUP2 SLOAD DUP2 LT PUSH2 0xE7C JUMPI PUSH2 0xE7C PUSH2 0x175B JUMP JUMPDEST PUSH1 0x0 SWAP2 DUP3 MSTORE PUSH1 0x20 DUP1 DUP4 KECCAK256 SWAP1 SWAP2 ADD DUP1 SLOAD PUSH1 0x1 PUSH1 0x1 PUSH1 0xA0 SHL SUB NOT AND SWAP1 SSTORE PUSH1 0x1 PUSH1 0x1 PUSH1 0xA0 SHL SUB DUP8 AND DUP3 MSTORE PUSH1 0x6 SWAP1 MSTORE PUSH1 0x40 DUP2 KECCAK256 DUP2 SWAP1 SSTORE PUSH1 0x1 DUP1 SLOAD DUP7 SWAP3 SWAP1 PUSH2 0xEC0 SWAP1 DUP5 SWAP1 PUSH2 0x17B9 JUMP JUMPDEST SWAP1 SWAP2 SSTORE POP POP PUSH1 0x40 MLOAD DUP5 DUP2 MSTORE PUSH1 0x1 PUSH1 0x1 PUSH1 0xA0 SHL SUB DUP7 AND SWAP1 PUSH32 0xC571AE75E1C62FBBE528BB9094C45FD8914C90F4E9EE04DA07F968201A4E5319 SWAP1 PUSH1 0x20 ADD PUSH1 0x40 MLOAD DUP1 SWAP2 SUB SWAP1 LOG2 JUMPDEST DUP1 PUSH2 0xF0E DUP2 PUSH2 0x1787 JUMP JUMPDEST SWAP2 POP POP PUSH2 0xE28 JUMP JUMPDEST POP POP POP POP POP JUMP JUMPDEST PUSH32 0xA49807205CE4D355092EF5A8A18F56E8913CF4A201FBE287825B095693C21775 PUSH2 0xF47 DUP2 PUSH2 0x1447 JUMP JUMPDEST DUP3 PUSH1 0x1 PUSH1 0x1 PUSH1 0xA0 SHL SUB DUP2 AND PUSH2 0xF9E JUMPI PUSH1 0x40 MLOAD PUSH3 0x461BCD PUSH1 0xE5 SHL DUP2 MSTORE PUSH1 0x20 PUSH1 0x4 DUP3 ADD MSTORE PUSH1 0x18 PUSH1 0x24 DUP3 ADD MSTORE PUSH32 0x496E76616C696441646472657373285F61646472657373290000000000000000 PUSH1 0x44 DUP3 ADD MSTORE PUSH1 0x64 ADD PUSH2 0xC74 JUMP JUMPDEST PUSH1 0x0 JUMPDEST PUSH1 0x3 SLOAD DUP2 LT ISZERO PUSH2 0xF16 JUMPI DUP5 PUSH1 0x1 PUSH1 0x1 PUSH1 0xA0 SHL SUB AND PUSH1 0x3 DUP3 DUP2 SLOAD DUP2 LT PUSH2 0xFC8 JUMPI PUSH2 0xFC8 PUSH2 0x175B JUMP JUMPDEST PUSH1 0x0 SWAP2 DUP3 MSTORE PUSH1 0x20 SWAP1 SWAP2 KECCAK256 ADD SLOAD PUSH1 0x1 PUSH1 0x1 PUSH1 0xA0 SHL SUB AND SUB PUSH2 0x113C JUMPI PUSH1 0x3 DUP2 DUP2 SLOAD DUP2 LT PUSH2 0xFF5 JUMPI PUSH2 0xFF5 PUSH2 0x175B JUMP JUMPDEST PUSH1 0x0 SWAP2 DUP3 MSTORE PUSH1 0x20 DUP1 DUP4 KECCAK256 SWAP1 SWAP2 ADD DUP1 SLOAD PUSH1 0x1 PUSH1 0x1 PUSH1 0xA0 SHL SUB NOT AND SWAP1 SSTORE PUSH1 0x1 PUSH1 0x1 PUSH1 0xA0 SHL SUB DUP8 AND DUP3 MSTORE PUSH1 0x8 SWAP1 MSTORE PUSH1 0x40 DUP2 KECCAK256 DUP2 SWAP1 SSTORE JUMPDEST PUSH8 0xFFFFFFFFFFFFFFFF DUP6 AND PUSH1 0x0 SWAP1 DUP2 MSTORE PUSH1 0x7 PUSH1 0x20 MSTORE PUSH1 0x40 SWAP1 KECCAK256 SLOAD DUP2 LT ISZERO PUSH2 0x10F2 JUMPI DUP6 PUSH1 0x1 PUSH1 0x1 PUSH1 0xA0 SHL SUB AND PUSH1 0x7 PUSH1 0x0 DUP8 PUSH8 0xFFFFFFFFFFFFFFFF AND DUP2 MSTORE PUSH1 0x20 ADD SWAP1 DUP2 MSTORE PUSH1 0x20 ADD PUSH1 0x0 KECCAK256 DUP3 DUP2 SLOAD DUP2 LT PUSH2 0x1081 JUMPI PUSH2 0x1081 PUSH2 0x175B JUMP JUMPDEST PUSH1 0x0 SWAP2 DUP3 MSTORE PUSH1 0x20 SWAP1 SWAP2 KECCAK256 ADD SLOAD PUSH1 0x1 PUSH1 0x1 PUSH1 0xA0 SHL SUB AND SUB PUSH2 0x10E0 JUMPI PUSH8 0xFFFFFFFFFFFFFFFF DUP6 AND PUSH1 0x0 SWAP1 DUP2 MSTORE PUSH1 0x7 PUSH1 0x20 MSTORE PUSH1 0x40 SWAP1 KECCAK256 DUP1 SLOAD DUP3 SWAP1 DUP2 LT PUSH2 0x10C6 JUMPI PUSH2 0x10C6 PUSH2 0x175B JUMP JUMPDEST PUSH1 0x0 SWAP2 DUP3 MSTORE PUSH1 0x20 SWAP1 SWAP2 KECCAK256 ADD DUP1 SLOAD PUSH1 0x1 PUSH1 0x1 PUSH1 0xA0 SHL SUB NOT AND SWAP1 SSTORE JUMPDEST DUP1 PUSH2 0x10EA DUP2 PUSH2 0x1787 JUMP JUMPDEST SWAP2 POP POP PUSH2 0x1028 JUMP JUMPDEST POP PUSH1 0x40 MLOAD PUSH8 0xFFFFFFFFFFFFFFFF DUP6 AND DUP2 MSTORE PUSH1 0x1 PUSH1 0x1 PUSH1 0xA0 SHL SUB DUP7 AND SWAP1 PUSH32 0x87FEE02E700A6B965D9A5EEF2DF77E1BB86C4200C37265E0FC5D5D69C2F8D74B SWAP1 PUSH1 0x20 ADD PUSH1 0x40 MLOAD DUP1 SWAP2 SUB SWAP1 LOG2 JUMPDEST DUP1 PUSH2 0x1146 DUP2 PUSH2 0x1787 JUMP JUMPDEST SWAP2 POP POP PUSH2 0xFA1 JUMP JUMPDEST PUSH32 0xA49807205CE4D355092EF5A8A18F56E8913CF4A201FBE287825B095693C21775 PUSH2 0x1178 DUP2 PUSH2 0x1447 JUMP JUMPDEST DUP3 PUSH1 0x1 PUSH1 0x1 PUSH1 0xA0 SHL SUB DUP2 AND PUSH2 0x11CF JUMPI PUSH1 0x40 MLOAD PUSH3 0x461BCD PUSH1 0xE5 SHL DUP2 MSTORE PUSH1 0x20 PUSH1 0x4 DUP3 ADD MSTORE PUSH1 0x18 PUSH1 0x24 DUP3 ADD MSTORE PUSH32 0x496E76616C696441646472657373285F61646472657373290000000000000000 PUSH1 0x44 DUP3 ADD MSTORE PUSH1 0x64 ADD PUSH2 0xC74 JUMP JUMPDEST PUSH1 0x3 DUP1 SLOAD PUSH1 0x1 DUP1 DUP3 ADD SWAP1 SWAP3 SSTORE PUSH32 0xC2575A0E9E593C00F959F8C92F12DB2869C3395A3B0502D05E2516446F71F85B ADD DUP1 SLOAD PUSH1 0x1 PUSH1 0x1 PUSH1 0xA0 SHL SUB DUP8 AND PUSH1 0x1 PUSH1 0x1 PUSH1 0xA0 SHL SUB NOT SWAP2 DUP3 AND DUP2 OR SWAP1 SWAP3 SSTORE PUSH1 0x0 DUP3 DUP2 MSTORE PUSH1 0x8 PUSH1 0x20 SWAP1 DUP2 MSTORE PUSH1 0x40 DUP1 DUP4 KECCAK256 PUSH8 0xFFFFFFFFFFFFFFFF DUP11 AND SWAP1 DUP2 SWAP1 SSTORE DUP1 DUP5 MSTORE PUSH1 0x7 DUP4 MSTORE DUP2 DUP5 KECCAK256 DUP1 SLOAD SWAP8 DUP9 ADD DUP2 SSTORE DUP5 MSTORE SWAP3 DUP3 SWAP1 KECCAK256 SWAP1 SWAP6 ADD DUP1 SLOAD SWAP1 SWAP4 AND DUP5 OR SWAP1 SWAP3 SSTORE SWAP3 MLOAD SWAP3 DUP4 MSTORE SWAP1 SWAP2 PUSH32 0xD6F085A96DBBDE780EFF5493447990FFA30333A92A91841CD565E74C8A80DE06 SWAP2 ADD PUSH2 0xCFF JUMP JUMPDEST PUSH32 0xA49807205CE4D355092EF5A8A18F56E8913CF4A201FBE287825B095693C21775 PUSH2 0x12B7 DUP2 PUSH2 0x1447 JUMP JUMPDEST DUP3 PUSH1 0x1 PUSH1 0x1 PUSH1 0xA0 SHL SUB DUP2 AND PUSH2 0x130E JUMPI PUSH1 0x40 MLOAD PUSH3 0x461BCD PUSH1 0xE5 SHL DUP2 MSTORE PUSH1 0x20 PUSH1 0x4 DUP3 ADD MSTORE PUSH1 0x18 PUSH1 0x24 DUP3 ADD MSTORE PUSH32 0x496E76616C696441646472657373285F61646472657373290000000000000000 PUSH1 0x44 DUP3 ADD MSTORE PUSH1 0x64 ADD PUSH2 0xC74 JUMP JUMPDEST PUSH1 0x5 DUP1 SLOAD PUSH1 0x1 DUP1 DUP3 ADD SWAP1 SWAP3 SSTORE PUSH32 0x36B6384B5ECA791C62761152D0C79BB0604C104A5FB6F4EB0703F3154BB3DB0 ADD DUP1 SLOAD PUSH1 0x1 PUSH1 0x1 PUSH1 0xA0 SHL SUB NOT AND PUSH1 0x1 PUSH1 0x1 PUSH1 0xA0 SHL SUB DUP8 AND SWAP1 DUP2 OR SWAP1 SWAP2 SSTORE PUSH1 0x0 SWAP1 DUP2 MSTORE PUSH1 0x6 PUSH1 0x20 MSTORE PUSH1 0x40 DUP2 KECCAK256 DUP6 SWAP1 SSTORE DUP2 SLOAD DUP6 SWAP3 SWAP2 SWAP1 PUSH2 0x137A SWAP1 DUP5 SWAP1 PUSH2 0x17CC JUMP JUMPDEST SWAP1 SWAP2 SSTORE POP POP PUSH1 0x40 MLOAD DUP4 DUP2 MSTORE PUSH1 0x1 PUSH1 0x1 PUSH1 0xA0 SHL SUB DUP6 AND SWAP1 PUSH32 0x4F29C2B68CF4DE57A608C85AF30370C0BD181622F6CC0D1A9C1C0487923D81AF SWAP1 PUSH1 0x20 ADD PUSH2 0xCFF JUMP JUMPDEST PUSH32 0xD49944B67E8D70389D5D7C1F0F260F907B9705C55BAA96BBA23F68E4CEDF5418 PUSH2 0x13E4 DUP2 PUSH2 0x1447 JUMP JUMPDEST PUSH32 0xA49807205CE4D355092EF5A8A18F56E8913CF4A201FBE287825B095693C21775 PUSH2 0x140E DUP2 PUSH2 0x1447 JUMP JUMPDEST POP POP JUMP JUMPDEST PUSH1 0x0 DUP3 DUP2 MSTORE PUSH1 0x20 DUP2 SWAP1 MSTORE PUSH1 0x40 SWAP1 KECCAK256 PUSH1 0x1 ADD SLOAD PUSH2 0x142D DUP2 PUSH2 0x1447 JUMP JUMPDEST PUSH2 0x895 DUP4 DUP4 PUSH2 0x14FE JUMP JUMPDEST PUSH1 0x5 DUP2 DUP2 SLOAD DUP2 LT PUSH2 0xBDD JUMPI PUSH1 0x0 DUP1 REVERT JUMPDEST PUSH2 0x1451 DUP2 CALLER PUSH2 0x1581 JUMP JUMPDEST POP JUMP JUMPDEST PUSH1 0x0 DUP3 DUP2 MSTORE PUSH1 0x20 DUP2 DUP2 MSTORE PUSH1 0x40 DUP1 DUP4 KECCAK256 PUSH1 0x1 PUSH1 0x1 PUSH1 0xA0 SHL SUB DUP6 AND DUP5 MSTORE SWAP1 SWAP2 MSTORE DUP2 KECCAK256 SLOAD PUSH1 0xFF AND PUSH2 0x14F6 JUMPI PUSH1 0x0 DUP4 DUP2 MSTORE PUSH1 0x20 DUP2 DUP2 MSTORE PUSH1 0x40 DUP1 DUP4 KECCAK256 PUSH1 0x1 PUSH1 0x1 PUSH1 0xA0 SHL SUB DUP7 AND DUP5 MSTORE SWAP1 SWAP2 MSTORE SWAP1 KECCAK256 DUP1 SLOAD PUSH1 0xFF NOT AND PUSH1 0x1 OR SWAP1 SSTORE PUSH2 0x14AE CALLER SWAP1 JUMP JUMPDEST PUSH1 0x1 PUSH1 0x1 PUSH1 0xA0 SHL SUB AND DUP3 PUSH1 0x1 PUSH1 0x1 PUSH1 0xA0 SHL SUB AND DUP5 PUSH32 0x2F8788117E7EFF1D82E926EC794901D17C78024A50270940304540A733656F0D PUSH1 0x40 MLOAD PUSH1 0x40 MLOAD DUP1 SWAP2 SUB SWAP1 LOG4 POP PUSH1 0x1 PUSH2 0x832 JUMP JUMPDEST POP PUSH1 0x0 PUSH2 0x832 JUMP JUMPDEST PUSH1 0x0 DUP3 DUP2 MSTORE PUSH1 0x20 DUP2 DUP2 MSTORE PUSH1 0x40 DUP1 DUP4 KECCAK256 PUSH1 0x1 PUSH1 0x1 PUSH1 0xA0 SHL SUB DUP6 AND DUP5 MSTORE SWAP1 SWAP2 MSTORE DUP2 KECCAK256 SLOAD PUSH1 0xFF AND ISZERO PUSH2 0x14F6 JUMPI PUSH1 0x0 DUP4 DUP2 MSTORE PUSH1 0x20 DUP2 DUP2 MSTORE PUSH1 0x40 DUP1 DUP4 KECCAK256 PUSH1 0x1 PUSH1 0x1 PUSH1 0xA0 SHL SUB DUP7 AND DUP1 DUP6 MSTORE SWAP3 MSTORE DUP1 DUP4 KECCAK256 DUP1 SLOAD PUSH1 0xFF NOT AND SWAP1 SSTORE MLOAD CALLER SWAP3 DUP7 SWAP2 PUSH32 0xF6391F5C32D9C69D2A47EA670B442974B53935D1EDC7FD64EB21E047A839171B SWAP2 SWAP1 LOG4 POP PUSH1 0x1 PUSH2 0x832 JUMP JUMPDEST PUSH1 0x0 DUP3 DUP2 MSTORE PUSH1 0x20 DUP2 DUP2 MSTORE PUSH1 0x40 DUP1 DUP4 KECCAK256 PUSH1 0x1 PUSH1 0x1 PUSH1 0xA0 SHL SUB DUP6 AND DUP5 MSTORE SWAP1 SWAP2 MSTORE SWAP1 KECCAK256 SLOAD PUSH1 0xFF AND PUSH2 0x140E JUMPI PUSH1 0x40 MLOAD PUSH32 0xE2517D3F00000000000000000000000000000000000000000000000000000000 DUP2 MSTORE PUSH1 0x1 PUSH1 0x1 PUSH1 0xA0 SHL SUB DUP3 AND PUSH1 0x4 DUP3 ADD MSTORE PUSH1 0x24 DUP2 ADD DUP4 SWAP1 MSTORE PUSH1 0x44 ADD PUSH2 0xC74 JUMP JUMPDEST PUSH1 0x0 PUSH1 0x20 DUP3 DUP5 SUB SLT ISZERO PUSH2 0x15FF JUMPI PUSH1 0x0 DUP1 REVERT JUMPDEST DUP2 CALLDATALOAD PUSH32 0xFFFFFFFF00000000000000000000000000000000000000000000000000000000 DUP2 AND DUP2 EQ PUSH2 0x162F JUMPI PUSH1 0x0 DUP1 REVERT JUMPDEST SWAP4 SWAP3 POP POP POP JUMP JUMPDEST PUSH1 0x0 PUSH1 0x20 DUP3 DUP5 SUB SLT ISZERO PUSH2 0x1648 JUMPI PUSH1 0x0 DUP1 REVERT JUMPDEST POP CALLDATALOAD SWAP2 SWAP1 POP JUMP JUMPDEST PUSH1 0x0 DUP1 PUSH1 0x40 DUP4 DUP6 SUB SLT ISZERO PUSH2 0x1662 JUMPI PUSH1 0x0 DUP1 REVERT JUMPDEST POP POP DUP1 CALLDATALOAD SWAP3 PUSH1 0x20 SWAP1 SWAP2 ADD CALLDATALOAD SWAP2 POP JUMP JUMPDEST DUP1 CALLDATALOAD PUSH1 0x1 PUSH1 0x1 PUSH1 0xA0 SHL SUB DUP2 AND DUP2 EQ PUSH2 0x1688 JUMPI PUSH1 0x0 DUP1 REVERT JUMPDEST SWAP2 SWAP1 POP JUMP JUMPDEST PUSH1 0x0 DUP1 PUSH1 0x40 DUP4 DUP6 SUB SLT ISZERO PUSH2 0x16A0 JUMPI PUSH1 0x0 DUP1 REVERT JUMPDEST DUP3 CALLDATALOAD SWAP2 POP PUSH2 0x16B0 PUSH1 0x20 DUP5 ADD PUSH2 0x1671 JUMP JUMPDEST SWAP1 POP SWAP3 POP SWAP3 SWAP1 POP JUMP JUMPDEST DUP1 CALLDATALOAD PUSH8 0xFFFFFFFFFFFFFFFF DUP2 AND DUP2 EQ PUSH2 0x1688 JUMPI PUSH1 0x0 DUP1 REVERT JUMPDEST PUSH1 0x0 PUSH1 0x20 DUP3 DUP5 SUB SLT ISZERO PUSH2 0x16E3 JUMPI PUSH1 0x0 DUP1 REVERT JUMPDEST PUSH2 0x162F DUP3 PUSH2 0x16B9 JUMP JUMPDEST PUSH1 0x0 DUP1 PUSH1 0x40 DUP4 DUP6 SUB SLT ISZERO PUSH2 0x16FF JUMPI PUSH1 0x0 DUP1 REVERT JUMPDEST PUSH2 0x1708 DUP4 PUSH2 0x1671 JUMP JUMPDEST SWAP5 PUSH1 0x20 SWAP4 SWAP1 SWAP4 ADD CALLDATALOAD SWAP4 POP POP POP JUMP JUMPDEST PUSH1 0x0 PUSH1 0x20 DUP3 DUP5 SUB SLT ISZERO PUSH2 0x1728 JUMPI PUSH1 0x0 DUP1 REVERT JUMPDEST PUSH2 0x162F DUP3 PUSH2 0x1671 JUMP JUMPDEST PUSH1 0x0 DUP1 PUSH1 0x40 DUP4 DUP6 SUB SLT ISZERO PUSH2 0x1744 JUMPI PUSH1 0x0 DUP1 REVERT JUMPDEST PUSH2 0x174D DUP4 PUSH2 0x1671 JUMP JUMPDEST SWAP2 POP PUSH2 0x16B0 PUSH1 0x20 DUP5 ADD PUSH2 0x16B9 JUMP JUMPDEST PUSH4 0x4E487B71 PUSH1 0xE0 SHL PUSH1 0x0 MSTORE PUSH1 0x32 PUSH1 0x4 MSTORE PUSH1 0x24 PUSH1 0x0 REVERT JUMPDEST PUSH4 0x4E487B71 PUSH1 0xE0 SHL PUSH1 0x0 MSTORE PUSH1 0x11 PUSH1 0x4 MSTORE PUSH1 0x24 PUSH1 0x0 REVERT JUMPDEST PUSH1 0x0 PUSH1 0x1 DUP3 ADD PUSH2 0x1799 JUMPI PUSH2 0x1799 PUSH2 0x1771 JUMP JUMPDEST POP PUSH1 0x1 ADD SWAP1 JUMP JUMPDEST PUSH1 0x0 PUSH1 0x20 DUP3 DUP5 SUB SLT ISZERO PUSH2 0x17B2 JUMPI PUSH1 0x0 DUP1 REVERT JUMPDEST POP MLOAD SWAP2 SWAP1 POP JUMP JUMPDEST DUP2 DUP2 SUB DUP2 DUP2 GT ISZERO PUSH2 0x832 JUMPI PUSH2 0x832 PUSH2 0x1771 JUMP JUMPDEST DUP1 DUP3 ADD DUP1 DUP3 GT ISZERO PUSH2 0x832 JUMPI PUSH2 0x832 PUSH2 0x1771 JUMP INVALID LOG2 PUSH5 0x6970667358 0x22 SLT KECCAK256 0x25 CALLDATACOPY 0xE8 0x1F ADDMOD 0x2F 0xF6 DUP4 LOG4 DUP1 CALLDATALOAD 0x2E EXTCODECOPY PUSH28 0xEEEF5FCDE243F729749E82982ACE0FB8260264736F6C634300081400 CALLER LOG2 PUSH5 0x6970667358 0x22 SLT KECCAK256 0xBD DUP8 DUP14 SAR 0xDB 0xA5 0xDB MOD DUP15 0xB3 POP 0xC4 LOG1 0xC8 0xA8 0xD DUP6 SIGNEXTEND PUSH31 0xC9CFFD201788C3188E933AB89664736F6C6343000814003300000000000000 "},"methodIdentifiers":{"AdminToVaultAddress(address)":"c3932761","DeveloperToVaultAddress(address)":"985de8e1","FunderToVaultAddress(address)":"b96964a4","admins(uint256)":"14bfd6d0","createVault(address,address,address,address,address,string)":"300b086d","developer(uint256)":"4ea5015a","funder(uint256)":"1f2c9238","getAdminsLength()":"37267bc3","getDeveloperLength()":"090fbbe0","getFunderLength()":"5e0a7f61","getName(address)":"5fd4b08a","getVaultsLength()":"44b19dfc","owner()":"8da5cb5b","pause()":"8456cb59","paused()":"5c975abb","renounceOwnership()":"715018a6","transferOwnership(address)":"f2fde38b","unpause()":"3f4ba83a","vaultAddressToAdmin(address)":"80d21c9d","vaultCount()":"a7c6a100","vaults(uint256)":"8c64ea4a"}}}}}