{
  "_format": "hh-sol-artifact-1",
  "contractName": "Vault",
  "sourceName": "contracts/Vault.sol",
  "abi": [
    {
      "inputs": [
        {
          "internalType": "address",
          "name": "_adminAddress",
          "type": "address"
        },
        {
          "internalType": "address",
          "name": "_fundAddress",
          "type": "address"
        },
        {
          "internalType": "address",
          "name": "_devAddress",
          "type": "address"
        },
        {
          "internalType": "address",
          "name": "_special",
          "type": "address"
        },
        {
          "internalType": "address",
          "name": "_subscription",
          "type": "address"
        }
      ],
      "stateMutability": "nonpayable",
      "type": "constructor"
    },
    {
      "inputs": [],
      "name": "AccessControlBadConfirmation",
      "type": "error"
    },
    {
      "inputs": [
        {
          "internalType": "address",
          "name": "account",
          "type": "address"
        },
        {
          "internalType": "bytes32",
          "name": "neededRole",
          "type": "bytes32"
        }
      ],
      "name": "AccessControlUnauthorizedAccount",
      "type": "error"
    },
    {
      "inputs": [
        {
          "internalType": "address",
          "name": "_address",
          "type": "address"
        }
      ],
      "name": "InvalidAddress",
      "type": "error"
    },
    {
      "inputs": [
        {
          "internalType": "uint256",
          "name": "_amountBalance",
          "type": "uint256"
        },
        {
          "internalType": "uint256",
          "name": "_amountNeeded",
          "type": "uint256"
        }
      ],
      "name": "NotEnoughAssetBalance",
      "type": "error"
    },
    {
      "inputs": [
        {
          "internalType": "uint256",
          "name": "_amountBalance",
          "type": "uint256"
        },
        {
          "internalType": "uint256",
          "name": "_amountNeeded",
          "type": "uint256"
        }
      ],
      "name": "NotEnoughBalance",
      "type": "error"
    },
    {
      "inputs": [
        {
          "internalType": "uint64",
          "name": "_chainId",
          "type": "uint64"
        }
      ],
      "name": "NotOnSameChain",
      "type": "error"
    },
    {
      "anonymous": false,
      "inputs": [
        {
          "indexed": true,
          "internalType": "bytes32",
          "name": "role",
          "type": "bytes32"
        },
        {
          "indexed": true,
          "internalType": "bytes32",
          "name": "previousAdminRole",
          "type": "bytes32"
        },
        {
          "indexed": true,
          "internalType": "bytes32",
          "name": "newAdminRole",
          "type": "bytes32"
        }
      ],
      "name": "RoleAdminChanged",
      "type": "event"
    },
    {
      "anonymous": false,
      "inputs": [
        {
          "indexed": true,
          "internalType": "bytes32",
          "name": "role",
          "type": "bytes32"
        },
        {
          "indexed": true,
          "internalType": "address",
          "name": "account",
          "type": "address"
        },
        {
          "indexed": true,
          "internalType": "address",
          "name": "sender",
          "type": "address"
        }
      ],
      "name": "RoleGranted",
      "type": "event"
    },
    {
      "anonymous": false,
      "inputs": [
        {
          "indexed": true,
          "internalType": "bytes32",
          "name": "role",
          "type": "bytes32"
        },
        {
          "indexed": true,
          "internalType": "address",
          "name": "account",
          "type": "address"
        },
        {
          "indexed": true,
          "internalType": "address",
          "name": "sender",
          "type": "address"
        }
      ],
      "name": "RoleRevoked",
      "type": "event"
    },
    {
      "anonymous": false,
      "inputs": [
        {
          "indexed": true,
          "internalType": "address",
          "name": "assetAddress",
          "type": "address"
        },
        {
          "indexed": false,
          "internalType": "uint64",
          "name": "chainId",
          "type": "uint64"
        }
      ],
      "name": "assetAdded",
      "type": "event"
    },
    {
      "anonymous": false,
      "inputs": [
        {
          "indexed": true,
          "internalType": "address",
          "name": "assetAddress",
          "type": "address"
        },
        {
          "indexed": false,
          "internalType": "uint64",
          "name": "chainId",
          "type": "uint64"
        }
      ],
      "name": "assetRemoved",
      "type": "event"
    },
    {
      "anonymous": false,
      "inputs": [
        {
          "indexed": true,
          "internalType": "uint64",
          "name": "chainId",
          "type": "uint64"
        }
      ],
      "name": "chainIdAdded",
      "type": "event"
    },
    {
      "anonymous": false,
      "inputs": [
        {
          "indexed": true,
          "internalType": "uint64",
          "name": "chainId",
          "type": "uint64"
        }
      ],
      "name": "chainIdRemoved",
      "type": "event"
    },
    {
      "anonymous": false,
      "inputs": [
        {
          "indexed": true,
          "internalType": "address",
          "name": "fundAddress",
          "type": "address"
        },
        {
          "indexed": false,
          "internalType": "uint256",
          "name": "amountToBeSent",
          "type": "uint256"
        }
      ],
      "name": "fundInfoAdded",
      "type": "event"
    },
    {
      "anonymous": false,
      "inputs": [
        {
          "indexed": true,
          "internalType": "address",
          "name": "fundAddress",
          "type": "address"
        },
        {
          "indexed": false,
          "internalType": "uint256",
          "name": "amountToBeSent",
          "type": "uint256"
        }
      ],
      "name": "fundInfoRemoved",
      "type": "event"
    },
    {
      "anonymous": false,
      "inputs": [
        {
          "indexed": true,
          "internalType": "address",
          "name": "fundAddress",
          "type": "address"
        },
        {
          "indexed": false,
          "internalType": "uint256",
          "name": "amountToBeSent",
          "type": "uint256"
        }
      ],
      "name": "fundInfoUpdated",
      "type": "event"
    },
    {
      "anonymous": false,
      "inputs": [
        {
          "indexed": true,
          "internalType": "address",
          "name": "from",
          "type": "address"
        },
        {
          "indexed": true,
          "internalType": "address",
          "name": "assetAddress",
          "type": "address"
        },
        {
          "indexed": false,
          "internalType": "uint256",
          "name": "amount",
          "type": "uint256"
        }
      ],
      "name": "paymentReceived",
      "type": "event"
    },
    {
      "anonymous": false,
      "inputs": [
        {
          "indexed": true,
          "internalType": "address",
          "name": "to",
          "type": "address"
        },
        {
          "indexed": true,
          "internalType": "address",
          "name": "assetAddress",
          "type": "address"
        },
        {
          "indexed": false,
          "internalType": "uint256",
          "name": "amount",
          "type": "uint256"
        }
      ],
      "name": "paymentSent",
      "type": "event"
    },
    {
      "inputs": [],
      "name": "ADMIN_ROLE",
      "outputs": [
        {
          "internalType": "bytes32",
          "name": "",
          "type": "bytes32"
        }
      ],
      "stateMutability": "view",
      "type": "function"
    },
    {
      "inputs": [],
      "name": "DEFAULT_ADMIN_ROLE",
      "outputs": [
        {
          "internalType": "bytes32",
          "name": "",
          "type": "bytes32"
        }
      ],
      "stateMutability": "view",
      "type": "function"
    },
    {
      "inputs": [],
      "name": "DEV_ROLE",
      "outputs": [
        {
          "internalType": "bytes32",
          "name": "",
          "type": "bytes32"
        }
      ],
      "stateMutability": "view",
      "type": "function"
    },
    {
      "inputs": [],
      "name": "EXECUTOR_ROLE",
      "outputs": [
        {
          "internalType": "bytes32",
          "name": "",
          "type": "bytes32"
        }
      ],
      "stateMutability": "view",
      "type": "function"
    },
    {
      "inputs": [],
      "name": "FUND_ROLE",
      "outputs": [
        {
          "internalType": "bytes32",
          "name": "",
          "type": "bytes32"
        }
      ],
      "stateMutability": "view",
      "type": "function"
    },
    {
      "inputs": [],
      "name": "PROPOSER_ROLE",
      "outputs": [
        {
          "internalType": "bytes32",
          "name": "",
          "type": "bytes32"
        }
      ],
      "stateMutability": "view",
      "type": "function"
    },
    {
      "inputs": [],
      "name": "SPECIAL_ROLE",
      "outputs": [
        {
          "internalType": "bytes32",
          "name": "",
          "type": "bytes32"
        }
      ],
      "stateMutability": "view",
      "type": "function"
    },
    {
      "inputs": [
        {
          "internalType": "address",
          "name": "_assetAddress",
          "type": "address"
        },
        {
          "internalType": "uint64",
          "name": "_chainId",
          "type": "uint64"
        }
      ],
      "name": "addAsset",
      "outputs": [],
      "stateMutability": "nonpayable",
      "type": "function"
    },
    {
      "inputs": [
        {
          "internalType": "uint64",
          "name": "_chainId",
          "type": "uint64"
        }
      ],
      "name": "addChainId",
      "outputs": [],
      "stateMutability": "nonpayable",
      "type": "function"
    },
    {
      "inputs": [
        {
          "internalType": "address",
          "name": "_fundAddress",
          "type": "address"
        },
        {
          "internalType": "uint256",
          "name": "_fundToBeSent",
          "type": "uint256"
        }
      ],
      "name": "addFundAddress",
      "outputs": [],
      "stateMutability": "nonpayable",
      "type": "function"
    },
    {
      "inputs": [
        {
          "internalType": "uint256",
          "name": "",
          "type": "uint256"
        }
      ],
      "name": "assetAddress",
      "outputs": [
        {
          "internalType": "address",
          "name": "",
          "type": "address"
        }
      ],
      "stateMutability": "view",
      "type": "function"
    },
    {
      "inputs": [
        {
          "internalType": "uint256",
          "name": "",
          "type": "uint256"
        },
        {
          "internalType": "uint256",
          "name": "",
          "type": "uint256"
        }
      ],
      "name": "assetOfChainId",
      "outputs": [
        {
          "internalType": "address",
          "name": "",
          "type": "address"
        }
      ],
      "stateMutability": "view",
      "type": "function"
    },
    {
      "inputs": [],
      "name": "automation",
      "outputs": [],
      "stateMutability": "nonpayable",
      "type": "function"
    },
    {
      "inputs": [
        {
          "internalType": "uint256",
          "name": "",
          "type": "uint256"
        }
      ],
      "name": "chainId",
      "outputs": [
        {
          "internalType": "uint256",
          "name": "",
          "type": "uint256"
        }
      ],
      "stateMutability": "view",
      "type": "function"
    },
    {
      "inputs": [
        {
          "internalType": "address",
          "name": "",
          "type": "address"
        }
      ],
      "name": "chainIdOfAsset",
      "outputs": [
        {
          "internalType": "uint256",
          "name": "",
          "type": "uint256"
        }
      ],
      "stateMutability": "view",
      "type": "function"
    },
    {
      "inputs": [],
      "name": "deposit",
      "outputs": [],
      "stateMutability": "payable",
      "type": "function"
    },
    {
      "inputs": [
        {
          "internalType": "uint256",
          "name": "",
          "type": "uint256"
        }
      ],
      "name": "fundAddress",
      "outputs": [
        {
          "internalType": "address",
          "name": "",
          "type": "address"
        }
      ],
      "stateMutability": "view",
      "type": "function"
    },
    {
      "inputs": [
        {
          "internalType": "address",
          "name": "",
          "type": "address"
        }
      ],
      "name": "fundToSend",
      "outputs": [
        {
          "internalType": "uint256",
          "name": "",
          "type": "uint256"
        }
      ],
      "stateMutability": "view",
      "type": "function"
    },
    {
      "inputs": [],
      "name": "getAssetAddressLength",
      "outputs": [
        {
          "internalType": "uint256",
          "name": "",
          "type": "uint256"
        }
      ],
      "stateMutability": "view",
      "type": "function"
    },
    {
      "inputs": [],
      "name": "getBalance",
      "outputs": [
        {
          "internalType": "uint256",
          "name": "",
          "type": "uint256"
        }
      ],
      "stateMutability": "view",
      "type": "function"
    },
    {
      "inputs": [],
      "name": "getChainIdLength",
      "outputs": [
        {
          "internalType": "uint256",
          "name": "",
          "type": "uint256"
        }
      ],
      "stateMutability": "view",
      "type": "function"
    },
    {
      "inputs": [],
      "name": "getFundAddressLength",
      "outputs": [
        {
          "internalType": "uint256",
          "name": "",
          "type": "uint256"
        }
      ],
      "stateMutability": "view",
      "type": "function"
    },
    {
      "inputs": [
        {
          "internalType": "bytes32",
          "name": "role",
          "type": "bytes32"
        }
      ],
      "name": "getRoleAdmin",
      "outputs": [
        {
          "internalType": "bytes32",
          "name": "",
          "type": "bytes32"
        }
      ],
      "stateMutability": "view",
      "type": "function"
    },
    {
      "inputs": [
        {
          "internalType": "bytes32",
          "name": "role",
          "type": "bytes32"
        },
        {
          "internalType": "address",
          "name": "account",
          "type": "address"
        }
      ],
      "name": "grantRole",
      "outputs": [],
      "stateMutability": "nonpayable",
      "type": "function"
    },
    {
      "inputs": [
        {
          "internalType": "bytes32",
          "name": "role",
          "type": "bytes32"
        },
        {
          "internalType": "address",
          "name": "account",
          "type": "address"
        }
      ],
      "name": "hasRole",
      "outputs": [
        {
          "internalType": "bool",
          "name": "",
          "type": "bool"
        }
      ],
      "stateMutability": "view",
      "type": "function"
    },
    {
      "inputs": [],
      "name": "isAutomation",
      "outputs": [
        {
          "internalType": "bool",
          "name": "",
          "type": "bool"
        }
      ],
      "stateMutability": "view",
      "type": "function"
    },
    {
      "inputs": [
        {
          "internalType": "address",
          "name": "_assetAddress",
          "type": "address"
        },
        {
          "internalType": "uint64",
          "name": "_chainId",
          "type": "uint64"
        }
      ],
      "name": "removeAsset",
      "outputs": [],
      "stateMutability": "nonpayable",
      "type": "function"
    },
    {
      "inputs": [
        {
          "internalType": "uint64",
          "name": "_chainId",
          "type": "uint64"
        }
      ],
      "name": "removeChainId",
      "outputs": [],
      "stateMutability": "nonpayable",
      "type": "function"
    },
    {
      "inputs": [
        {
          "internalType": "address",
          "name": "_fundAddress",
          "type": "address"
        },
        {
          "internalType": "uint256",
          "name": "_fundToBeSent",
          "type": "uint256"
        }
      ],
      "name": "removeFundAddress",
      "outputs": [],
      "stateMutability": "nonpayable",
      "type": "function"
    },
    {
      "inputs": [
        {
          "internalType": "bytes32",
          "name": "role",
          "type": "bytes32"
        },
        {
          "internalType": "address",
          "name": "callerConfirmation",
          "type": "address"
        }
      ],
      "name": "renounceRole",
      "outputs": [],
      "stateMutability": "nonpayable",
      "type": "function"
    },
    {
      "inputs": [
        {
          "internalType": "bytes32",
          "name": "role",
          "type": "bytes32"
        },
        {
          "internalType": "address",
          "name": "account",
          "type": "address"
        }
      ],
      "name": "revokeRole",
      "outputs": [],
      "stateMutability": "nonpayable",
      "type": "function"
    },
    {
      "inputs": [],
      "name": "subscription",
      "outputs": [
        {
          "internalType": "contract Subscription",
          "name": "",
          "type": "address"
        }
      ],
      "stateMutability": "view",
      "type": "function"
    },
    {
      "inputs": [
        {
          "internalType": "bytes4",
          "name": "interfaceId",
          "type": "bytes4"
        }
      ],
      "name": "supportsInterface",
      "outputs": [
        {
          "internalType": "bool",
          "name": "",
          "type": "bool"
        }
      ],
      "stateMutability": "view",
      "type": "function"
    },
    {
      "inputs": [],
      "name": "totalAmountToSpend",
      "outputs": [
        {
          "internalType": "uint256",
          "name": "",
          "type": "uint256"
        }
      ],
      "stateMutability": "view",
      "type": "function"
    },
    {
      "inputs": [
        {
          "internalType": "address",
          "name": "_fundAddress",
          "type": "address"
        },
        {
          "internalType": "uint256",
          "name": "_fundToBeSent",
          "type": "uint256"
        }
      ],
      "name": "updateFundAddress",
      "outputs": [],
      "stateMutability": "nonpayable",
      "type": "function"
    },
    {
      "inputs": [],
      "name": "withdraw",
      "outputs": [],
      "stateMutability": "nonpayable",
      "type": "function"
    },
    {
      "stateMutability": "payable",
      "type": "receive"
    }
  ],
  "bytecode": "0x60806040523480156200001157600080fd5b5060405162001ad138038062001ad183398101604081905262000034916200023c565b846001600160a01b038116620000905760405162461bcd60e51b815260206004820152601860248201527f496e76616c696441646472657373285f61646472657373290000000000000000604482015260640160405180910390fd5b620000bc7fa49807205ce4d355092ef5a8a18f56e8913cf4a201fbe287825b095693c217758762000170565b50620000e97fd49944b67e8d70389d5d7c1f0f260f907b9705c55baa96bba23f68e4cedf54188662000170565b50620001167f51b355059847d158e68950419dbcd54fad00bdfd0634c2515a5c533288c7f0a28562000170565b50620001437f3f12a51c1a5d4235e47a0365ddc220be1678ccffcdf71bfd6ee9c417f801e0088462000170565b5050600980546001600160a01b0319166001600160a01b039290921691909117905550620002ac92505050565b6000828152602081815260408083206001600160a01b038516845290915281205460ff1662000215576000838152602081815260408083206001600160a01b03861684529091529020805460ff19166001179055620001cc3390565b6001600160a01b0316826001600160a01b0316847f2f8788117e7eff1d82e926ec794901d17c78024a50270940304540a733656f0d60405160405180910390a450600162000219565b5060005b92915050565b80516001600160a01b03811681146200023757600080fd5b919050565b600080600080600060a086880312156200025557600080fd5b62000260866200021f565b945062000270602087016200021f565b935062000280604087016200021f565b925062000290606087016200021f565b9150620002a0608087016200021f565b90509295509295909350565b61181580620002bc6000396000f3fe6080604052600436106102535760003560e01c80635d520db511610138578063a995b114116100b0578063d0e30db01161007f578063dab7a28e11610064578063dab7a28e1461071e578063fcf0f0d31461073e578063fcfea5dc1461077257600080fd5b8063d0e30db0146106f6578063d547741f146106fe57600080fd5b8063a995b11414610662578063b434283f14610682578063bbb9b131146106a2578063bf051c13146106c257600080fd5b806391d14854116101075780639e1a005f116100ec5780639e1a005f1461060d578063a17ec6d41461062d578063a217fddf1461064d57600080fd5b806391d148541461059c578063929068cb146105e057600080fd5b80635d520db5146104ff5780636954a1ea1461051457806375b238fc146105345780638f61f4f51461056857600080fd5b8063327305f2116101cb5780634049ddd21161019a57806349f961d61161017f57806349f961d6146104965780634fcf2599146104ab5780635bc71363146104cb57600080fd5b80634049ddd21461045657806344387cc21461047657600080fd5b8063327305f2146103e757806336568abe14610401578063380770a9146104215780633ccfd60b1461044157600080fd5b80631e310fcf1161022257806327c87b2e1161020757806327c87b2e146103775780632b1af71d146103af5780632f2ff15d146103c557600080fd5b80631e310fcf14610332578063248a9ca31461034757600080fd5b80630123e8261461029757806301ffc9a7146102bb57806307bd0265146102eb57806312065fe01461031f57600080fd5b366102925760405134815260009033907f493ae1e948a02344c50e8c8974f7ddbe43ec9aa56d677a1d3b4a811b098c9f349060200160405180910390a3005b600080fd5b3480156102a357600080fd5b506003545b6040519081526020015b60405180910390f35b3480156102c757600080fd5b506102db6102d63660046115ed565b61079f565b60405190151581526020016102b2565b3480156102f757600080fd5b506102a87fd8aa0f3194971a2a116679f7c2090f6939c8d4e01a2a8d7e41d55e5351469e6381565b34801561032b57600080fd5b50476102a8565b34801561033e57600080fd5b506005546102a8565b34801561035357600080fd5b506102a8610362366004611636565b60009081526020819052604090206001015490565b34801561038357600080fd5b5061039761039236600461164f565b610838565b6040516001600160a01b0390911681526020016102b2565b3480156103bb57600080fd5b506102a860015481565b3480156103d157600080fd5b506103e56103e036600461168d565b610870565b005b3480156103f357600080fd5b506002546102db9060ff1681565b34801561040d57600080fd5b506103e561041c36600461168d565b61089b565b34801561042d57600080fd5b506103e561043c3660046116d1565b6108ec565b34801561044d57600080fd5b506103e56109b6565b34801561046257600080fd5b506102a8610471366004611636565b610a92565b34801561048257600080fd5b50600954610397906001600160a01b031681565b3480156104a257600080fd5b506103e5610ab3565b3480156104b757600080fd5b506103976104c6366004611636565b610bcd565b3480156104d757600080fd5b506102a87fd49944b67e8d70389d5d7c1f0f260f907b9705c55baa96bba23f68e4cedf541881565b34801561050b57600080fd5b506004546102a8565b34801561052057600080fd5b506103e561052f3660046116ec565b610bf7565b34801561054057600080fd5b506102a87fa49807205ce4d355092ef5a8a18f56e8913cf4a201fbe287825b095693c2177581565b34801561057457600080fd5b506102a87fb09aa5aeb3702cfd50b6b62bc4532604938f21248a27a1d5ca736082b6819cc181565b3480156105a857600080fd5b506102db6105b736600461168d565b6000918252602082815260408084206001600160a01b0393909316845291905290205460ff1690565b3480156105ec57600080fd5b506102a86105fb366004611716565b60086020526000908152604090205481565b34801561061957600080fd5b506103e56106283660046116d1565b610d0d565b34801561063957600080fd5b506103e56106483660046116ec565b610da4565b34801561065957600080fd5b506102a8600081565b34801561066e57600080fd5b506103e561067d366004611731565b610f1d565b34801561068e57600080fd5b506103e561069d366004611731565b61114e565b3480156106ae57600080fd5b506103e56106bd3660046116ec565b61128d565b3480156106ce57600080fd5b506102a87f3f12a51c1a5d4235e47a0365ddc220be1678ccffcdf71bfd6ee9c417f801e00881565b6103e56113ba565b34801561070a57600080fd5b506103e561071936600461168d565b611412565b34801561072a57600080fd5b50610397610739366004611636565b611437565b34801561074a57600080fd5b506102a87f51b355059847d158e68950419dbcd54fad00bdfd0634c2515a5c533288c7f0a281565b34801561077e57600080fd5b506102a861078d366004611716565b60066020526000908152604090205481565b60007fffffffff0000000000000000000000000000000000000000000000000000000082167f7965db0b00000000000000000000000000000000000000000000000000000000148061083257507f01ffc9a7000000000000000000000000000000000000000000000000000000007fffffffff000000000000000000000000000000000000000000000000000000008316145b92915050565b6007602052816000526040600020818154811061085457600080fd5b6000918252602090912001546001600160a01b03169150829050565b60008281526020819052604090206001015461088b81611447565b6108958383611454565b50505050565b6001600160a01b03811633146108dd576040517f6697b23200000000000000000000000000000000000000000000000000000000815260040160405180910390fd5b6108e782826114fe565b505050565b7fa49807205ce4d355092ef5a8a18f56e8913cf4a201fbe287825b095693c2177561091681611447565b60005b6004548110156108e7578267ffffffffffffffff16600482815481106109415761094161175b565b9060005260206000200154036109a457600481815481106109645761096461175b565b6000918252602082200181905560405167ffffffffffffffff8516917f9fb7d162ea74fb059c253e48f937b3e09e78f8bbb7bd5d0d39fec9716ba849f191a25b806109ae81611787565b915050610919565b7fd49944b67e8d70389d5d7c1f0f260f907b9705c55baa96bba23f68e4cedf54186109e081611447565b7f3f12a51c1a5d4235e47a0365ddc220be1678ccffcdf71bfd6ee9c417f801e008610a0a81611447565b60005b6005548110156108e757600060058281548110610a2c57610a2c61175b565b60009182526020808320909101546001600160a01b031680835260069091526040808320549051919350839281156108fc029290818181858888f19350505050158015610a7d573d6000803e3d6000fd5b50508080610a8a90611787565b915050610a0d565b60048181548110610aa257600080fd5b600091825260209091200154905081565b6009546040517fa40c4c4000000000000000000000000000000000000000000000000000000000815230600482015242916001600160a01b03169063a40c4c4090602401602060405180830381865afa158015610b14573d6000803e3d6000fd5b505050506040513d601f19601f82011682018060405250810190610b3891906117a0565b10610bbe576009546040517f12b21eb50000000000000000000000000000000000000000000000000000000081523060048201526001600160a01b03909116906312b21eb590602401600060405180830381600087803b158015610b9b57600080fd5b505af1158015610baf573d6000803e3d6000fd5b50506002805460ff1916905550505b6002805460ff19166001179055565b60038181548110610bdd57600080fd5b6000918252602090912001546001600160a01b0316905081565b7fa49807205ce4d355092ef5a8a18f56e8913cf4a201fbe287825b095693c21775610c2181611447565b826001600160a01b038116610c7d5760405162461bcd60e51b815260206004820152601860248201527f496e76616c696441646472657373285f6164647265737329000000000000000060448201526064015b60405180910390fd5b6001600160a01b038416600090815260066020526040812084905560018054859290610caa9084906117b9565b925050819055508260016000828254610cc391906117cc565b90915550506040518381526001600160a01b038516907f627436284666290b2ed6746a3d31cf95427398d04245c2e7dfec82aaf1472bf0906020015b60405180910390a250505050565b7fa49807205ce4d355092ef5a8a18f56e8913cf4a201fbe287825b095693c21775610d3781611447565b60048054600181018255600091825267ffffffffffffffff84167f8a35acfbc15ff81a39ae7d344fd709f28e8600b4aa8c65c6b64bfe7fe36bd19b90910181905560405190917f8e5dfc69288bb774f9ee4caeeca57e97df011bff7a0b2aa2966873fea7a96ebd91a25050565b7fa49807205ce4d355092ef5a8a18f56e8913cf4a201fbe287825b095693c21775610dce81611447565b826001600160a01b038116610e255760405162461bcd60e51b815260206004820152601860248201527f496e76616c696441646472657373285f616464726573732900000000000000006044820152606401610c74565b60005b600554811015610f1657846001600160a01b031660058281548110610e4f57610e4f61175b565b6000918252602090912001546001600160a01b031603610f045760058181548110610e7c57610e7c61175b565b6000918252602080832090910180546001600160a01b03191690556001600160a01b0387168252600690526040812081905560018054869290610ec09084906117b9565b90915550506040518481526001600160a01b038616907fc571ae75e1c62fbbe528bb9094c45fd8914c90f4e9ee04da07f968201a4e53199060200160405180910390a25b80610f0e81611787565b915050610e28565b5050505050565b7fa49807205ce4d355092ef5a8a18f56e8913cf4a201fbe287825b095693c21775610f4781611447565b826001600160a01b038116610f9e5760405162461bcd60e51b815260206004820152601860248201527f496e76616c696441646472657373285f616464726573732900000000000000006044820152606401610c74565b60005b600354811015610f1657846001600160a01b031660038281548110610fc857610fc861175b565b6000918252602090912001546001600160a01b03160361113c5760038181548110610ff557610ff561175b565b6000918252602080832090910180546001600160a01b03191690556001600160a01b038716825260089052604081208190555b67ffffffffffffffff85166000908152600760205260409020548110156110f257856001600160a01b0316600760008767ffffffffffffffff16815260200190815260200160002082815481106110815761108161175b565b6000918252602090912001546001600160a01b0316036110e05767ffffffffffffffff851660009081526007602052604090208054829081106110c6576110c661175b565b600091825260209091200180546001600160a01b03191690555b806110ea81611787565b915050611028565b5060405167ffffffffffffffff851681526001600160a01b038616907f87fee02e700a6b965d9a5eef2df77e1bb86c4200c37265e0fc5d5d69c2f8d74b9060200160405180910390a25b8061114681611787565b915050610fa1565b7fa49807205ce4d355092ef5a8a18f56e8913cf4a201fbe287825b095693c2177561117881611447565b826001600160a01b0381166111cf5760405162461bcd60e51b815260206004820152601860248201527f496e76616c696441646472657373285f616464726573732900000000000000006044820152606401610c74565b6003805460018082019092557fc2575a0e9e593c00f959f8c92f12db2869c3395a3b0502d05e2516446f71f85b0180546001600160a01b0387166001600160a01b03199182168117909255600082815260086020908152604080832067ffffffffffffffff8a1690819055808452600783528184208054978801815584529282902090950180549093168417909255925192835290917fd6f085a96dbbde780eff5493447990ffa30333a92a91841cd565e74c8a80de069101610cff565b7fa49807205ce4d355092ef5a8a18f56e8913cf4a201fbe287825b095693c217756112b781611447565b826001600160a01b03811661130e5760405162461bcd60e51b815260206004820152601860248201527f496e76616c696441646472657373285f616464726573732900000000000000006044820152606401610c74565b6005805460018082019092557f036b6384b5eca791c62761152d0c79bb0604c104a5fb6f4eb0703f3154bb3db00180546001600160a01b0319166001600160a01b038716908117909155600090815260066020526040812085905581548592919061137a9084906117cc565b90915550506040518381526001600160a01b038516907f4f29c2b68cf4de57a608c85af30370c0bd181622f6cc0d1a9c1c0487923d81af90602001610cff565b7fd49944b67e8d70389d5d7c1f0f260f907b9705c55baa96bba23f68e4cedf54186113e481611447565b7fa49807205ce4d355092ef5a8a18f56e8913cf4a201fbe287825b095693c2177561140e81611447565b5050565b60008281526020819052604090206001015461142d81611447565b61089583836114fe565b60058181548110610bdd57600080fd5b6114518133611581565b50565b6000828152602081815260408083206001600160a01b038516845290915281205460ff166114f6576000838152602081815260408083206001600160a01b03861684529091529020805460ff191660011790556114ae3390565b6001600160a01b0316826001600160a01b0316847f2f8788117e7eff1d82e926ec794901d17c78024a50270940304540a733656f0d60405160405180910390a4506001610832565b506000610832565b6000828152602081815260408083206001600160a01b038516845290915281205460ff16156114f6576000838152602081815260408083206001600160a01b0386168085529252808320805460ff1916905551339286917ff6391f5c32d9c69d2a47ea670b442974b53935d1edc7fd64eb21e047a839171b9190a4506001610832565b6000828152602081815260408083206001600160a01b038516845290915290205460ff1661140e576040517fe2517d3f0000000000000000000000000000000000000000000000000000000081526001600160a01b038216600482015260248101839052604401610c74565b6000602082840312156115ff57600080fd5b81357fffffffff000000000000000000000000000000000000000000000000000000008116811461162f57600080fd5b9392505050565b60006020828403121561164857600080fd5b5035919050565b6000806040838503121561166257600080fd5b50508035926020909101359150565b80356001600160a01b038116811461168857600080fd5b919050565b600080604083850312156116a057600080fd5b823591506116b060208401611671565b90509250929050565b803567ffffffffffffffff8116811461168857600080fd5b6000602082840312156116e357600080fd5b61162f826116b9565b600080604083850312156116ff57600080fd5b61170883611671565b946020939093013593505050565b60006020828403121561172857600080fd5b61162f82611671565b6000806040838503121561174457600080fd5b61174d83611671565b91506116b0602084016116b9565b634e487b7160e01b600052603260045260246000fd5b634e487b7160e01b600052601160045260246000fd5b60006001820161179957611799611771565b5060010190565b6000602082840312156117b257600080fd5b5051919050565b8181038181111561083257610832611771565b808201808211156108325761083261177156fea2646970667358221220f0e96cd23574bf657bb7729057b33869a97c1ded6199622cc7d13a70286af4d864736f6c63430008140033",
  "linkReferences": {},
  "deployedLinkReferences": {}
}