{
  "_format": "hh-sol-artifact-1",
  "contractName": "Subscription",
  "sourceName": "contracts/Subscription.sol",
  "abi": [
    {
      "inputs": [],
      "stateMutability": "nonpayable",
      "type": "constructor"
    },
    {
      "inputs": [
        {
          "internalType": "address",
          "name": "sender",
          "type": "address"
        },
        {
          "internalType": "uint256",
          "name": "tokenId",
          "type": "uint256"
        },
        {
          "internalType": "address",
          "name": "owner",
          "type": "address"
        }
      ],
      "name": "ERC721IncorrectOwner",
      "type": "error"
    },
    {
      "inputs": [
        {
          "internalType": "address",
          "name": "operator",
          "type": "address"
        },
        {
          "internalType": "uint256",
          "name": "tokenId",
          "type": "uint256"
        }
      ],
      "name": "ERC721InsufficientApproval",
      "type": "error"
    },
    {
      "inputs": [
        {
          "internalType": "address",
          "name": "approver",
          "type": "address"
        }
      ],
      "name": "ERC721InvalidApprover",
      "type": "error"
    },
    {
      "inputs": [
        {
          "internalType": "address",
          "name": "operator",
          "type": "address"
        }
      ],
      "name": "ERC721InvalidOperator",
      "type": "error"
    },
    {
      "inputs": [
        {
          "internalType": "address",
          "name": "owner",
          "type": "address"
        }
      ],
      "name": "ERC721InvalidOwner",
      "type": "error"
    },
    {
      "inputs": [
        {
          "internalType": "address",
          "name": "receiver",
          "type": "address"
        }
      ],
      "name": "ERC721InvalidReceiver",
      "type": "error"
    },
    {
      "inputs": [
        {
          "internalType": "address",
          "name": "sender",
          "type": "address"
        }
      ],
      "name": "ERC721InvalidSender",
      "type": "error"
    },
    {
      "inputs": [
        {
          "internalType": "uint256",
          "name": "tokenId",
          "type": "uint256"
        }
      ],
      "name": "ERC721NonexistentToken",
      "type": "error"
    },
    {
      "inputs": [
        {
          "internalType": "address",
          "name": "owner",
          "type": "address"
        }
      ],
      "name": "OwnableInvalidOwner",
      "type": "error"
    },
    {
      "inputs": [
        {
          "internalType": "address",
          "name": "account",
          "type": "address"
        }
      ],
      "name": "OwnableUnauthorizedAccount",
      "type": "error"
    },
    {
      "anonymous": false,
      "inputs": [
        {
          "indexed": true,
          "internalType": "address",
          "name": "owner",
          "type": "address"
        },
        {
          "indexed": true,
          "internalType": "address",
          "name": "approved",
          "type": "address"
        },
        {
          "indexed": true,
          "internalType": "uint256",
          "name": "tokenId",
          "type": "uint256"
        }
      ],
      "name": "Approval",
      "type": "event"
    },
    {
      "anonymous": false,
      "inputs": [
        {
          "indexed": true,
          "internalType": "address",
          "name": "owner",
          "type": "address"
        },
        {
          "indexed": true,
          "internalType": "address",
          "name": "operator",
          "type": "address"
        },
        {
          "indexed": false,
          "internalType": "bool",
          "name": "approved",
          "type": "bool"
        }
      ],
      "name": "ApprovalForAll",
      "type": "event"
    },
    {
      "anonymous": false,
      "inputs": [
        {
          "indexed": true,
          "internalType": "address",
          "name": "previousOwner",
          "type": "address"
        },
        {
          "indexed": true,
          "internalType": "address",
          "name": "newOwner",
          "type": "address"
        }
      ],
      "name": "OwnershipTransferred",
      "type": "event"
    },
    {
      "anonymous": false,
      "inputs": [
        {
          "indexed": true,
          "internalType": "address",
          "name": "from",
          "type": "address"
        },
        {
          "indexed": true,
          "internalType": "address",
          "name": "to",
          "type": "address"
        },
        {
          "indexed": true,
          "internalType": "uint256",
          "name": "tokenId",
          "type": "uint256"
        }
      ],
      "name": "Transfer",
      "type": "event"
    },
    {
      "inputs": [
        {
          "internalType": "address",
          "name": "to",
          "type": "address"
        },
        {
          "internalType": "uint256",
          "name": "tokenId",
          "type": "uint256"
        }
      ],
      "name": "approve",
      "outputs": [],
      "stateMutability": "nonpayable",
      "type": "function"
    },
    {
      "inputs": [
        {
          "internalType": "address",
          "name": "owner",
          "type": "address"
        }
      ],
      "name": "balanceOf",
      "outputs": [
        {
          "internalType": "uint256",
          "name": "",
          "type": "uint256"
        }
      ],
      "stateMutability": "view",
      "type": "function"
    },
    {
      "inputs": [
        {
          "internalType": "uint256",
          "name": "tokenId",
          "type": "uint256"
        }
      ],
      "name": "burn",
      "outputs": [],
      "stateMutability": "nonpayable",
      "type": "function"
    },
    {
      "inputs": [
        {
          "internalType": "address",
          "name": "_vault",
          "type": "address"
        }
      ],
      "name": "burnSubscription",
      "outputs": [],
      "stateMutability": "nonpayable",
      "type": "function"
    },
    {
      "inputs": [
        {
          "internalType": "uint256",
          "name": "price",
          "type": "uint256"
        }
      ],
      "name": "calcSellingPrice",
      "outputs": [
        {
          "internalType": "uint256",
          "name": "",
          "type": "uint256"
        }
      ],
      "stateMutability": "view",
      "type": "function"
    },
    {
      "inputs": [
        {
          "internalType": "uint256",
          "name": "tokenId",
          "type": "uint256"
        }
      ],
      "name": "getApproved",
      "outputs": [
        {
          "internalType": "address",
          "name": "",
          "type": "address"
        }
      ],
      "stateMutability": "view",
      "type": "function"
    },
    {
      "inputs": [
        {
          "internalType": "address",
          "name": "vault",
          "type": "address"
        }
      ],
      "name": "getSubscriberEndTimeInfo",
      "outputs": [
        {
          "internalType": "uint256",
          "name": "",
          "type": "uint256"
        }
      ],
      "stateMutability": "view",
      "type": "function"
    },
    {
      "inputs": [
        {
          "internalType": "address",
          "name": "",
          "type": "address"
        }
      ],
      "name": "infoOfVault",
      "outputs": [
        {
          "internalType": "address",
          "name": "owner",
          "type": "address"
        },
        {
          "internalType": "uint256",
          "name": "tokenId",
          "type": "uint256"
        },
        {
          "internalType": "uint256",
          "name": "sellPrice",
          "type": "uint256"
        },
        {
          "internalType": "uint256",
          "name": "startTime",
          "type": "uint256"
        },
        {
          "internalType": "uint256",
          "name": "endTime",
          "type": "uint256"
        }
      ],
      "stateMutability": "view",
      "type": "function"
    },
    {
      "inputs": [
        {
          "internalType": "address",
          "name": "owner",
          "type": "address"
        },
        {
          "internalType": "address",
          "name": "operator",
          "type": "address"
        }
      ],
      "name": "isApprovedForAll",
      "outputs": [
        {
          "internalType": "bool",
          "name": "",
          "type": "bool"
        }
      ],
      "stateMutability": "view",
      "type": "function"
    },
    {
      "inputs": [
        {
          "internalType": "address",
          "name": "",
          "type": "address"
        }
      ],
      "name": "isSelling",
      "outputs": [
        {
          "internalType": "bool",
          "name": "",
          "type": "bool"
        }
      ],
      "stateMutability": "view",
      "type": "function"
    },
    {
      "inputs": [
        {
          "internalType": "address",
          "name": "_toVault",
          "type": "address"
        }
      ],
      "name": "mintSubscription",
      "outputs": [],
      "stateMutability": "payable",
      "type": "function"
    },
    {
      "inputs": [],
      "name": "name",
      "outputs": [
        {
          "internalType": "string",
          "name": "",
          "type": "string"
        }
      ],
      "stateMutability": "view",
      "type": "function"
    },
    {
      "inputs": [],
      "name": "owner",
      "outputs": [
        {
          "internalType": "address",
          "name": "",
          "type": "address"
        }
      ],
      "stateMutability": "view",
      "type": "function"
    },
    {
      "inputs": [
        {
          "internalType": "uint256",
          "name": "tokenId",
          "type": "uint256"
        }
      ],
      "name": "ownerOf",
      "outputs": [
        {
          "internalType": "address",
          "name": "",
          "type": "address"
        }
      ],
      "stateMutability": "view",
      "type": "function"
    },
    {
      "inputs": [
        {
          "internalType": "address",
          "name": "from",
          "type": "address"
        },
        {
          "internalType": "address",
          "name": "vaultToBuy",
          "type": "address"
        }
      ],
      "name": "purchase",
      "outputs": [],
      "stateMutability": "nonpayable",
      "type": "function"
    },
    {
      "inputs": [],
      "name": "renounceOwnership",
      "outputs": [],
      "stateMutability": "nonpayable",
      "type": "function"
    },
    {
      "inputs": [
        {
          "internalType": "address",
          "name": "from",
          "type": "address"
        },
        {
          "internalType": "address",
          "name": "to",
          "type": "address"
        },
        {
          "internalType": "uint256",
          "name": "tokenId",
          "type": "uint256"
        }
      ],
      "name": "safeTransferFrom",
      "outputs": [],
      "stateMutability": "nonpayable",
      "type": "function"
    },
    {
      "inputs": [
        {
          "internalType": "address",
          "name": "from",
          "type": "address"
        },
        {
          "internalType": "address",
          "name": "to",
          "type": "address"
        },
        {
          "internalType": "uint256",
          "name": "tokenId",
          "type": "uint256"
        },
        {
          "internalType": "bytes",
          "name": "data",
          "type": "bytes"
        }
      ],
      "name": "safeTransferFrom",
      "outputs": [],
      "stateMutability": "nonpayable",
      "type": "function"
    },
    {
      "inputs": [
        {
          "internalType": "address",
          "name": "_vault",
          "type": "address"
        }
      ],
      "name": "sellingOff",
      "outputs": [],
      "stateMutability": "nonpayable",
      "type": "function"
    },
    {
      "inputs": [
        {
          "internalType": "address",
          "name": "_vault",
          "type": "address"
        },
        {
          "internalType": "uint256",
          "name": "_price",
          "type": "uint256"
        }
      ],
      "name": "sellingOn",
      "outputs": [],
      "stateMutability": "nonpayable",
      "type": "function"
    },
    {
      "inputs": [
        {
          "internalType": "address",
          "name": "operator",
          "type": "address"
        },
        {
          "internalType": "bool",
          "name": "approved",
          "type": "bool"
        }
      ],
      "name": "setApprovalForAll",
      "outputs": [],
      "stateMutability": "nonpayable",
      "type": "function"
    },
    {
      "inputs": [
        {
          "internalType": "uint256",
          "name": "",
          "type": "uint256"
        }
      ],
      "name": "subscriptionHolders",
      "outputs": [
        {
          "internalType": "address",
          "name": "",
          "type": "address"
        }
      ],
      "stateMutability": "view",
      "type": "function"
    },
    {
      "inputs": [
        {
          "internalType": "uint256",
          "name": "",
          "type": "uint256"
        }
      ],
      "name": "subscriptionSellers",
      "outputs": [
        {
          "internalType": "address",
          "name": "",
          "type": "address"
        }
      ],
      "stateMutability": "view",
      "type": "function"
    },
    {
      "inputs": [
        {
          "internalType": "bytes4",
          "name": "interfaceId",
          "type": "bytes4"
        }
      ],
      "name": "supportsInterface",
      "outputs": [
        {
          "internalType": "bool",
          "name": "",
          "type": "bool"
        }
      ],
      "stateMutability": "view",
      "type": "function"
    },
    {
      "inputs": [],
      "name": "symbol",
      "outputs": [
        {
          "internalType": "string",
          "name": "",
          "type": "string"
        }
      ],
      "stateMutability": "view",
      "type": "function"
    },
    {
      "inputs": [
        {
          "internalType": "uint256",
          "name": "tokenId",
          "type": "uint256"
        }
      ],
      "name": "tokenURI",
      "outputs": [
        {
          "internalType": "string",
          "name": "",
          "type": "string"
        }
      ],
      "stateMutability": "view",
      "type": "function"
    },
    {
      "inputs": [
        {
          "internalType": "address",
          "name": "from",
          "type": "address"
        },
        {
          "internalType": "address",
          "name": "to",
          "type": "address"
        },
        {
          "internalType": "uint256",
          "name": "tokenId",
          "type": "uint256"
        }
      ],
      "name": "transferFrom",
      "outputs": [],
      "stateMutability": "nonpayable",
      "type": "function"
    },
    {
      "inputs": [
        {
          "internalType": "address",
          "name": "newOwner",
          "type": "address"
        }
      ],
      "name": "transferOwnership",
      "outputs": [],
      "stateMutability": "nonpayable",
      "type": "function"
    }
  ],
  "bytecode": "0x6080604052678ac7230489e80000600855600a600955610258600a553480156200002857600080fd5b50336040518060400160405280600c81526020016b29bab139b1b934b83a34b7b760a11b8152506040518060400160405280600381526020016229aaa160e91b81525081600090816200007c9190620001d5565b5060016200008b8282620001d5565b5050506001600160a01b038116620000bd57604051631e4fbdf760e01b81526000600482015260240160405180910390fd5b620000c881620000de565b50620000d8600780546001019055565b620002a1565b600680546001600160a01b038381166001600160a01b0319831681179093556040519116919082907f8be0079c531659141344cd1fd0a4f28419497f9722a3daafe3b4186f6b6457e090600090a35050565b634e487b7160e01b600052604160045260246000fd5b600181811c908216806200015b57607f821691505b6020821081036200017c57634e487b7160e01b600052602260045260246000fd5b50919050565b601f821115620001d057600081815260208120601f850160051c81016020861015620001ab5750805b601f850160051c820191505b81811015620001cc57828155600101620001b7565b5050505b505050565b81516001600160401b03811115620001f157620001f162000130565b620002098162000202845462000146565b8462000182565b602080601f831160018114620002415760008415620002285750858301515b600019600386901b1c1916600185901b178555620001cc565b600085815260208120601f198616915b82811015620002725788860151825594840194600190910190840162000251565b5085821015620002915787850151600019600388901b60f8161c191681555b5050505050600190811b01905550565b611a4d80620002b16000396000f3fe6080604052600436106101b75760003560e01c80637bceef88116100ec578063bc3bdfad1161008a578063dde5a65d11610064578063dde5a65d14610565578063e87cc43a14610584578063e985e9c514610612578063f2fde38b1461065b57600080fd5b8063bc3bdfad146104f5578063c87b56dd14610515578063d525be321461053557600080fd5b8063a22cb465116100c6578063a22cb4651461045c578063a40c4c401461047c578063a5a52f9d146104b5578063b88d4fde146104d557600080fd5b80637bceef88146103a35780638da5cb5b1461042957806395d89b411461044757600080fd5b806323b872dd116101595780636352211e116101335780636352211e1461032d57806370247acb1461034d57806370a0823114610360578063715018a61461038e57600080fd5b806323b872dd146102cd57806342842e0e146102ed57806342966c681461030d57600080fd5b8063095ea7b311610195578063095ea7b31461024b5780631088312f1461026d57806312b21eb51461028d578063190de114146102ad57600080fd5b806301ffc9a7146101bc57806306fdde03146101f1578063081812fc14610213575b600080fd5b3480156101c857600080fd5b506101dc6101d736600461162d565b61067b565b60405190151581526020015b60405180910390f35b3480156101fd57600080fd5b50610206610718565b6040516101e8919061169a565b34801561021f57600080fd5b5061023361022e3660046116ad565b6107aa565b6040516001600160a01b0390911681526020016101e8565b34801561025757600080fd5b5061026b6102663660046116e2565b6107d3565b005b34801561027957600080fd5b5061026b61028836600461170c565b6107de565b34801561029957600080fd5b5061026b6102a836600461170c565b61087f565b3480156102b957600080fd5b506102336102c83660046116ad565b6109fd565b3480156102d957600080fd5b5061026b6102e8366004611727565b610a27565b3480156102f957600080fd5b5061026b610308366004611727565b610ad0565b34801561031957600080fd5b5061026b6103283660046116ad565b610af0565b34801561033957600080fd5b506102336103483660046116ad565b610afc565b61026b61035b36600461170c565b610b07565b34801561036c57600080fd5b5061038061037b36600461170c565b610c76565b6040519081526020016101e8565b34801561039a57600080fd5b5061026b610cd7565b3480156103af57600080fd5b506103f76103be36600461170c565b600d60205260009081526040902080546001820154600283015460038401546004909401546001600160a01b0390931693919290919085565b604080516001600160a01b0390961686526020860194909452928401919091526060830152608082015260a0016101e8565b34801561043557600080fd5b506006546001600160a01b0316610233565b34801561045357600080fd5b50610206610ceb565b34801561046857600080fd5b5061026b610477366004611763565b610cfa565b34801561048857600080fd5b5061038061049736600461170c565b6001600160a01b03166000908152600d602052604090206004015490565b3480156104c157600080fd5b506103806104d03660046116ad565b610d05565b3480156104e157600080fd5b5061026b6104f03660046117b5565b610d2b565b34801561050157600080fd5b506102336105103660046116ad565b610d42565b34801561052157600080fd5b506102066105303660046116ad565b610d52565b34801561054157600080fd5b506101dc61055036600461170c565b600e6020526000908152604090205460ff1681565b34801561057157600080fd5b5061026b610580366004611891565b5050565b34801561059057600080fd5b5061026b61059f3660046116e2565b6001600160a01b039091166000818152600e60209081526040808320805460ff19166001908117909155600c805491820190557fdf6966c971051c3d54ec59162606531493a51404a002842f56009d7e5cf4a8c70180546001600160a01b03191685179055928252600d90522060020155565b34801561061e57600080fd5b506101dc61062d366004611891565b6001600160a01b03918216600090815260056020908152604080832093909416825291909152205460ff1690565b34801561066757600080fd5b5061026b61067636600461170c565b610dc7565b60006001600160e01b031982167f80ac58cd0000000000000000000000000000000000000000000000000000000014806106de57506001600160e01b031982167f5b5e139f00000000000000000000000000000000000000000000000000000000145b8061071257507f01ffc9a7000000000000000000000000000000000000000000000000000000006001600160e01b03198316145b92915050565b606060008054610727906118c4565b80601f0160208091040260200160405190810160405280929190818152602001828054610753906118c4565b80156107a05780601f10610775576101008083540402835291602001916107a0565b820191906000526020600020905b81548152906001019060200180831161078357829003601f168201915b5050505050905090565b60006107b582610e1e565b506000828152600460205260409020546001600160a01b0316610712565b610580828233610e57565b6001600160a01b0381166000908152600e60205260408120805460ff191690555b600c5481101561058057816001600160a01b0316600c8281548110610826576108266118fe565b6000918252602090912001546001600160a01b03160361086d57600c8181548110610853576108536118fe565b600091825260209091200180546001600160a01b03191690555b806108778161192a565b9150506107ff565b60005b600b5481101561090257816001600160a01b0316600b82815481106108a9576108a96118fe565b6000918252602090912001546001600160a01b0316036108f057600b81815481106108d6576108d66118fe565b600091825260209091200180546001600160a01b03191690555b806108fa8161192a565b915050610882565b506001600160a01b0381166000908152600e602052604090205460ff16156109a95760005b600c548110156109a757816001600160a01b0316600c828154811061094e5761094e6118fe565b6000918252602090912001546001600160a01b03160361099557600c818154811061097b5761097b6118fe565b600091825260209091200180546001600160a01b03191690555b8061099f8161192a565b915050610927565b505b6001600160a01b03166000908152600d6020908152604080832080546001600160a01b0319168155600181018490556002810184905560038101849055600401839055600e9091529020805460ff19169055565b600b8181548110610a0d57600080fd5b6000918252602090912001546001600160a01b0316905081565b6001600160a01b038216610a5657604051633250574960e11b8152600060048201526024015b60405180910390fd5b6000610a63838333610e64565b9050836001600160a01b0316816001600160a01b031614610aca576040517f64283d7b0000000000000000000000000000000000000000000000000000000081526001600160a01b0380861660048301526024820184905282166044820152606401610a4d565b50505050565b610aeb83838360405180602001604052806000815250610d2b565b505050565b61058060008233610e64565b600061071282610e1e565b600854341015610b73576040517f08c379a000000000000000000000000000000000000000000000000000000000815260206004820152601060248201527f4e6f7420656e6f7567682066756e6473000000000000000000000000000000006044820152606401610a4d565b6000610b7e60075490565b9050610b8a8282610f5d565b610b98600780546001019055565b600b805460018101825560009182527f0175b7a638427703f0dbe7bb9bbf987a2551717b34e79f33b5b1008d1fa01db90180546001600160a01b0319166001600160a01b0385161790556040805160a08101825233815260208101849052908101919091524260608201819052600a546080830191610c179190611943565b90526001600160a01b039283166000908152600d6020908152604091829020835181546001600160a01b031916961695909517855582015160018501558101516002840155606081015160038401556080015160049092019190915550565b60006001600160a01b038216610cbb576040517f89c62b6400000000000000000000000000000000000000000000000000000000815260006004820152602401610a4d565b506001600160a01b031660009081526003602052604090205490565b610cdf610fdb565b610ce96000611021565b565b606060018054610727906118c4565b610580338383611073565b6000606460095483610d179190611956565b610d21919061196d565b6107129083611943565b610d36848484610a27565b610aca8484848461112b565b600c8181548110610a0d57600080fd5b6060610d5d82610e1e565b506000610d7560408051602081019091526000815290565b90506000815111610d955760405180602001604052806000815250610dc0565b80610d9f84611254565b604051602001610db092919061198f565b6040516020818303038152906040525b9392505050565b610dcf610fdb565b6001600160a01b038116610e12576040517f1e4fbdf700000000000000000000000000000000000000000000000000000000815260006004820152602401610a4d565b610e1b81611021565b50565b6000818152600260205260408120546001600160a01b03168061071257604051637e27328960e01b815260048101849052602401610a4d565b610aeb83838360016112f4565b6000828152600260205260408120546001600160a01b0390811690831615610e9157610e91818486611432565b6001600160a01b03811615610ecf57610eae6000856000806112f4565b6001600160a01b038116600090815260036020526040902080546000190190555b6001600160a01b03851615610efe576001600160a01b0385166000908152600360205260409020805460010190555b60008481526002602052604080822080546001600160a01b0319166001600160a01b0389811691821790925591518793918516917fddf252ad1be2c89b69c2b068fc378daa952ba7f163c4a11628f55a4df523b3ef91a4949350505050565b6001600160a01b038216610f8757604051633250574960e11b815260006004820152602401610a4d565b6000610f9583836000610e64565b90506001600160a01b03811615610aeb576040517f73c6ac6e00000000000000000000000000000000000000000000000000000000815260006004820152602401610a4d565b6006546001600160a01b03163314610ce9576040517f118cdaa7000000000000000000000000000000000000000000000000000000008152336004820152602401610a4d565b600680546001600160a01b038381166001600160a01b0319831681179093556040519116919082907f8be0079c531659141344cd1fd0a4f28419497f9722a3daafe3b4186f6b6457e090600090a35050565b6001600160a01b0382166110be576040517f5b08ba180000000000000000000000000000000000000000000000000000000081526001600160a01b0383166004820152602401610a4d565b6001600160a01b03838116600081815260056020908152604080832094871680845294825291829020805460ff191686151590811790915591519182527f17307eab39ab6107e8899845ad3d59bd9653f200f220920489ca2b5937696c31910160405180910390a3505050565b6001600160a01b0383163b15610aca57604051630a85bd0160e11b81526001600160a01b0384169063150b7a029061116d9033908890879087906004016119be565b6020604051808303816000875af19250505080156111a8575060408051601f3d908101601f191682019092526111a5918101906119fa565b60015b611211573d8080156111d6576040519150601f19603f3d011682016040523d82523d6000602084013e6111db565b606091505b50805160000361120957604051633250574960e11b81526001600160a01b0385166004820152602401610a4d565b805181602001fd5b6001600160e01b03198116630a85bd0160e11b1461124d57604051633250574960e11b81526001600160a01b0385166004820152602401610a4d565b5050505050565b60606000611261836114af565b600101905060008167ffffffffffffffff8111156112815761128161179f565b6040519080825280601f01601f1916602001820160405280156112ab576020820181803683370190505b5090508181016020015b600019017f3031323334353637383961626364656600000000000000000000000000000000600a86061a8153600a85049450846112b557509392505050565b808061130857506001600160a01b03821615155b1561140257600061131884610e1e565b90506001600160a01b038316158015906113445750826001600160a01b0316816001600160a01b031614155b801561137657506001600160a01b0380821660009081526005602090815260408083209387168352929052205460ff16155b156113b8576040517fa9fbf51f0000000000000000000000000000000000000000000000000000000081526001600160a01b0384166004820152602401610a4d565b81156114005783856001600160a01b0316826001600160a01b03167f8c5be1e5ebec7d5bd14f71427d1e84f3dd0314c0f7b2291e5b200ac8c7c3b92560405160405180910390a45b505b5050600090815260046020526040902080546001600160a01b0319166001600160a01b0392909216919091179055565b61143d838383611591565b610aeb576001600160a01b03831661146b57604051637e27328960e01b815260048101829052602401610a4d565b6040517f177e802f0000000000000000000000000000000000000000000000000000000081526001600160a01b038316600482015260248101829052604401610a4d565b6000807a184f03e93ff9f4daa797ed6e38ed64bf6a1f01000000000000000083106114f8577a184f03e93ff9f4daa797ed6e38ed64bf6a1f010000000000000000830492506040015b6d04ee2d6d415b85acef81000000008310611524576d04ee2d6d415b85acef8100000000830492506020015b662386f26fc10000831061154257662386f26fc10000830492506010015b6305f5e100831061155a576305f5e100830492506008015b612710831061156e57612710830492506004015b60648310611580576064830492506002015b600a83106107125760010192915050565b60006001600160a01b0383161580159061160f5750826001600160a01b0316846001600160a01b031614806115eb57506001600160a01b0380851660009081526005602090815260408083209387168352929052205460ff165b8061160f57506000828152600460205260409020546001600160a01b038481169116145b949350505050565b6001600160e01b031981168114610e1b57600080fd5b60006020828403121561163f57600080fd5b8135610dc081611617565b60005b8381101561166557818101518382015260200161164d565b50506000910152565b6000815180845261168681602086016020860161164a565b601f01601f19169290920160200192915050565b602081526000610dc0602083018461166e565b6000602082840312156116bf57600080fd5b5035919050565b80356001600160a01b03811681146116dd57600080fd5b919050565b600080604083850312156116f557600080fd5b6116fe836116c6565b946020939093013593505050565b60006020828403121561171e57600080fd5b610dc0826116c6565b60008060006060848603121561173c57600080fd5b611745846116c6565b9250611753602085016116c6565b9150604084013590509250925092565b6000806040838503121561177657600080fd5b61177f836116c6565b91506020830135801515811461179457600080fd5b809150509250929050565b634e487b7160e01b600052604160045260246000fd5b600080600080608085870312156117cb57600080fd5b6117d4856116c6565b93506117e2602086016116c6565b925060408501359150606085013567ffffffffffffffff8082111561180657600080fd5b818701915087601f83011261181a57600080fd5b81358181111561182c5761182c61179f565b604051601f8201601f19908116603f011681019083821181831017156118545761185461179f565b816040528281528a602084870101111561186d57600080fd5b82602086016020830137600060208483010152809550505050505092959194509250565b600080604083850312156118a457600080fd5b6118ad836116c6565b91506118bb602084016116c6565b90509250929050565b600181811c908216806118d857607f821691505b6020821081036118f857634e487b7160e01b600052602260045260246000fd5b50919050565b634e487b7160e01b600052603260045260246000fd5b634e487b7160e01b600052601160045260246000fd5b60006001820161193c5761193c611914565b5060010190565b8082018082111561071257610712611914565b808202811582820484141761071257610712611914565b60008261198a57634e487b7160e01b600052601260045260246000fd5b500490565b600083516119a181846020880161164a565b8351908301906119b581836020880161164a565b01949350505050565b60006001600160a01b038087168352808616602084015250836040830152608060608301526119f0608083018461166e565b9695505050505050565b600060208284031215611a0c57600080fd5b8151610dc08161161756fea2646970667358221220be0c43b2a00b4dd4cb57acd33eda96bc989ed784002b1e3dde5f1d697e52fa7b64736f6c63430008140033",
  "linkReferences": {},
  "deployedLinkReferences": {}
}