{
  "_format": "hh-sol-artifact-1",
  "contractName": "Subscription",
  "sourceName": "contracts/Subscription.sol",
  "abi": [
    {
      "inputs": [],
      "stateMutability": "nonpayable",
      "type": "constructor"
    },
    {
      "inputs": [
        {
          "internalType": "address",
          "name": "sender",
          "type": "address"
        },
        {
          "internalType": "uint256",
          "name": "tokenId",
          "type": "uint256"
        },
        {
          "internalType": "address",
          "name": "owner",
          "type": "address"
        }
      ],
      "name": "ERC721IncorrectOwner",
      "type": "error"
    },
    {
      "inputs": [
        {
          "internalType": "address",
          "name": "operator",
          "type": "address"
        },
        {
          "internalType": "uint256",
          "name": "tokenId",
          "type": "uint256"
        }
      ],
      "name": "ERC721InsufficientApproval",
      "type": "error"
    },
    {
      "inputs": [
        {
          "internalType": "address",
          "name": "approver",
          "type": "address"
        }
      ],
      "name": "ERC721InvalidApprover",
      "type": "error"
    },
    {
      "inputs": [
        {
          "internalType": "address",
          "name": "operator",
          "type": "address"
        }
      ],
      "name": "ERC721InvalidOperator",
      "type": "error"
    },
    {
      "inputs": [
        {
          "internalType": "address",
          "name": "owner",
          "type": "address"
        }
      ],
      "name": "ERC721InvalidOwner",
      "type": "error"
    },
    {
      "inputs": [
        {
          "internalType": "address",
          "name": "receiver",
          "type": "address"
        }
      ],
      "name": "ERC721InvalidReceiver",
      "type": "error"
    },
    {
      "inputs": [
        {
          "internalType": "address",
          "name": "sender",
          "type": "address"
        }
      ],
      "name": "ERC721InvalidSender",
      "type": "error"
    },
    {
      "inputs": [
        {
          "internalType": "uint256",
          "name": "tokenId",
          "type": "uint256"
        }
      ],
      "name": "ERC721NonexistentToken",
      "type": "error"
    },
    {
      "inputs": [
        {
          "internalType": "address",
          "name": "owner",
          "type": "address"
        }
      ],
      "name": "OwnableInvalidOwner",
      "type": "error"
    },
    {
      "inputs": [
        {
          "internalType": "address",
          "name": "account",
          "type": "address"
        }
      ],
      "name": "OwnableUnauthorizedAccount",
      "type": "error"
    },
    {
      "anonymous": false,
      "inputs": [
        {
          "indexed": true,
          "internalType": "address",
          "name": "owner",
          "type": "address"
        },
        {
          "indexed": true,
          "internalType": "address",
          "name": "approved",
          "type": "address"
        },
        {
          "indexed": true,
          "internalType": "uint256",
          "name": "tokenId",
          "type": "uint256"
        }
      ],
      "name": "Approval",
      "type": "event"
    },
    {
      "anonymous": false,
      "inputs": [
        {
          "indexed": true,
          "internalType": "address",
          "name": "owner",
          "type": "address"
        },
        {
          "indexed": true,
          "internalType": "address",
          "name": "operator",
          "type": "address"
        },
        {
          "indexed": false,
          "internalType": "bool",
          "name": "approved",
          "type": "bool"
        }
      ],
      "name": "ApprovalForAll",
      "type": "event"
    },
    {
      "anonymous": false,
      "inputs": [
        {
          "indexed": true,
          "internalType": "address",
          "name": "previousOwner",
          "type": "address"
        },
        {
          "indexed": true,
          "internalType": "address",
          "name": "newOwner",
          "type": "address"
        }
      ],
      "name": "OwnershipTransferred",
      "type": "event"
    },
    {
      "anonymous": false,
      "inputs": [
        {
          "indexed": true,
          "internalType": "address",
          "name": "from",
          "type": "address"
        },
        {
          "indexed": true,
          "internalType": "address",
          "name": "to",
          "type": "address"
        },
        {
          "indexed": true,
          "internalType": "uint256",
          "name": "tokenId",
          "type": "uint256"
        }
      ],
      "name": "Transfer",
      "type": "event"
    },
    {
      "inputs": [
        {
          "internalType": "address",
          "name": "to",
          "type": "address"
        },
        {
          "internalType": "uint256",
          "name": "tokenId",
          "type": "uint256"
        }
      ],
      "name": "approve",
      "outputs": [],
      "stateMutability": "nonpayable",
      "type": "function"
    },
    {
      "inputs": [
        {
          "internalType": "address",
          "name": "owner",
          "type": "address"
        }
      ],
      "name": "balanceOf",
      "outputs": [
        {
          "internalType": "uint256",
          "name": "",
          "type": "uint256"
        }
      ],
      "stateMutability": "view",
      "type": "function"
    },
    {
      "inputs": [
        {
          "internalType": "uint256",
          "name": "tokenId",
          "type": "uint256"
        }
      ],
      "name": "burn",
      "outputs": [],
      "stateMutability": "nonpayable",
      "type": "function"
    },
    {
      "inputs": [
        {
          "internalType": "address",
          "name": "user",
          "type": "address"
        }
      ],
      "name": "burnSubscription",
      "outputs": [],
      "stateMutability": "nonpayable",
      "type": "function"
    },
    {
      "inputs": [
        {
          "internalType": "uint256",
          "name": "price",
          "type": "uint256"
        },
        {
          "internalType": "uint256",
          "name": "royaltyPercentage",
          "type": "uint256"
        }
      ],
      "name": "calcSellingPrice",
      "outputs": [
        {
          "internalType": "uint256",
          "name": "",
          "type": "uint256"
        }
      ],
      "stateMutability": "pure",
      "type": "function"
    },
    {
      "inputs": [
        {
          "internalType": "uint256",
          "name": "tokenId",
          "type": "uint256"
        }
      ],
      "name": "getApproved",
      "outputs": [
        {
          "internalType": "address",
          "name": "",
          "type": "address"
        }
      ],
      "stateMutability": "view",
      "type": "function"
    },
    {
      "inputs": [
        {
          "internalType": "address",
          "name": "user",
          "type": "address"
        }
      ],
      "name": "getSubscriberEndTimeInfo",
      "outputs": [
        {
          "internalType": "uint256",
          "name": "",
          "type": "uint256"
        }
      ],
      "stateMutability": "view",
      "type": "function"
    },
    {
      "inputs": [],
      "name": "getSubscriptionHoldersLength",
      "outputs": [
        {
          "internalType": "uint256",
          "name": "",
          "type": "uint256"
        }
      ],
      "stateMutability": "view",
      "type": "function"
    },
    {
      "inputs": [],
      "name": "getSubscriptionSellersLength",
      "outputs": [
        {
          "internalType": "uint256",
          "name": "",
          "type": "uint256"
        }
      ],
      "stateMutability": "view",
      "type": "function"
    },
    {
      "inputs": [
        {
          "internalType": "address",
          "name": "",
          "type": "address"
        }
      ],
      "name": "infoOfVault",
      "outputs": [
        {
          "internalType": "uint256",
          "name": "tokenId",
          "type": "uint256"
        },
        {
          "internalType": "uint256",
          "name": "sellPrice",
          "type": "uint256"
        },
        {
          "internalType": "uint256",
          "name": "royaltyPercentage",
          "type": "uint256"
        },
        {
          "internalType": "uint256",
          "name": "startTime",
          "type": "uint256"
        },
        {
          "internalType": "uint256",
          "name": "endTime",
          "type": "uint256"
        }
      ],
      "stateMutability": "view",
      "type": "function"
    },
    {
      "inputs": [
        {
          "internalType": "address",
          "name": "user",
          "type": "address"
        }
      ],
      "name": "insiderMint",
      "outputs": [],
      "stateMutability": "nonpayable",
      "type": "function"
    },
    {
      "inputs": [
        {
          "internalType": "address",
          "name": "owner",
          "type": "address"
        },
        {
          "internalType": "address",
          "name": "operator",
          "type": "address"
        }
      ],
      "name": "isApprovedForAll",
      "outputs": [
        {
          "internalType": "bool",
          "name": "",
          "type": "bool"
        }
      ],
      "stateMutability": "view",
      "type": "function"
    },
    {
      "inputs": [
        {
          "internalType": "address",
          "name": "",
          "type": "address"
        }
      ],
      "name": "isSelling",
      "outputs": [
        {
          "internalType": "bool",
          "name": "",
          "type": "bool"
        }
      ],
      "stateMutability": "view",
      "type": "function"
    },
    {
      "inputs": [
        {
          "internalType": "address",
          "name": "user",
          "type": "address"
        }
      ],
      "name": "mintSubscription",
      "outputs": [],
      "stateMutability": "payable",
      "type": "function"
    },
    {
      "inputs": [],
      "name": "name",
      "outputs": [
        {
          "internalType": "string",
          "name": "",
          "type": "string"
        }
      ],
      "stateMutability": "view",
      "type": "function"
    },
    {
      "inputs": [],
      "name": "owner",
      "outputs": [
        {
          "internalType": "address",
          "name": "",
          "type": "address"
        }
      ],
      "stateMutability": "view",
      "type": "function"
    },
    {
      "inputs": [
        {
          "internalType": "uint256",
          "name": "tokenId",
          "type": "uint256"
        }
      ],
      "name": "ownerOf",
      "outputs": [
        {
          "internalType": "address",
          "name": "",
          "type": "address"
        }
      ],
      "stateMutability": "view",
      "type": "function"
    },
    {
      "inputs": [
        {
          "internalType": "address",
          "name": "alreadySubscribedUser",
          "type": "address"
        }
      ],
      "name": "purchase",
      "outputs": [],
      "stateMutability": "payable",
      "type": "function"
    },
    {
      "inputs": [],
      "name": "redeem",
      "outputs": [],
      "stateMutability": "nonpayable",
      "type": "function"
    },
    {
      "inputs": [],
      "name": "renounceOwnership",
      "outputs": [],
      "stateMutability": "nonpayable",
      "type": "function"
    },
    {
      "inputs": [
        {
          "internalType": "address",
          "name": "from",
          "type": "address"
        },
        {
          "internalType": "address",
          "name": "to",
          "type": "address"
        },
        {
          "internalType": "uint256",
          "name": "tokenId",
          "type": "uint256"
        }
      ],
      "name": "safeTransferFrom",
      "outputs": [],
      "stateMutability": "nonpayable",
      "type": "function"
    },
    {
      "inputs": [
        {
          "internalType": "address",
          "name": "from",
          "type": "address"
        },
        {
          "internalType": "address",
          "name": "to",
          "type": "address"
        },
        {
          "internalType": "uint256",
          "name": "tokenId",
          "type": "uint256"
        },
        {
          "internalType": "bytes",
          "name": "data",
          "type": "bytes"
        }
      ],
      "name": "safeTransferFrom",
      "outputs": [],
      "stateMutability": "nonpayable",
      "type": "function"
    },
    {
      "inputs": [
        {
          "internalType": "address",
          "name": "user",
          "type": "address"
        }
      ],
      "name": "sellingOff",
      "outputs": [],
      "stateMutability": "nonpayable",
      "type": "function"
    },
    {
      "inputs": [
        {
          "internalType": "address",
          "name": "user",
          "type": "address"
        },
        {
          "internalType": "uint256",
          "name": "_price",
          "type": "uint256"
        },
        {
          "internalType": "uint256",
          "name": "_royalty",
          "type": "uint256"
        }
      ],
      "name": "sellingOn",
      "outputs": [],
      "stateMutability": "nonpayable",
      "type": "function"
    },
    {
      "inputs": [
        {
          "internalType": "address",
          "name": "operator",
          "type": "address"
        },
        {
          "internalType": "bool",
          "name": "approved",
          "type": "bool"
        }
      ],
      "name": "setApprovalForAll",
      "outputs": [],
      "stateMutability": "nonpayable",
      "type": "function"
    },
    {
      "inputs": [
        {
          "internalType": "uint256",
          "name": "",
          "type": "uint256"
        }
      ],
      "name": "subscriptionHolders",
      "outputs": [
        {
          "internalType": "address",
          "name": "",
          "type": "address"
        }
      ],
      "stateMutability": "view",
      "type": "function"
    },
    {
      "inputs": [
        {
          "internalType": "uint256",
          "name": "",
          "type": "uint256"
        }
      ],
      "name": "subscriptionSellers",
      "outputs": [
        {
          "internalType": "address",
          "name": "",
          "type": "address"
        }
      ],
      "stateMutability": "view",
      "type": "function"
    },
    {
      "inputs": [
        {
          "internalType": "bytes4",
          "name": "interfaceId",
          "type": "bytes4"
        }
      ],
      "name": "supportsInterface",
      "outputs": [
        {
          "internalType": "bool",
          "name": "",
          "type": "bool"
        }
      ],
      "stateMutability": "view",
      "type": "function"
    },
    {
      "inputs": [],
      "name": "symbol",
      "outputs": [
        {
          "internalType": "string",
          "name": "",
          "type": "string"
        }
      ],
      "stateMutability": "view",
      "type": "function"
    },
    {
      "inputs": [
        {
          "internalType": "uint256",
          "name": "tokenId",
          "type": "uint256"
        }
      ],
      "name": "tokenURI",
      "outputs": [
        {
          "internalType": "string",
          "name": "",
          "type": "string"
        }
      ],
      "stateMutability": "view",
      "type": "function"
    },
    {
      "inputs": [
        {
          "internalType": "address",
          "name": "from",
          "type": "address"
        },
        {
          "internalType": "address",
          "name": "to",
          "type": "address"
        },
        {
          "internalType": "uint256",
          "name": "tokenId",
          "type": "uint256"
        }
      ],
      "name": "transferFrom",
      "outputs": [],
      "stateMutability": "nonpayable",
      "type": "function"
    },
    {
      "inputs": [
        {
          "internalType": "address",
          "name": "newOwner",
          "type": "address"
        }
      ],
      "name": "transferOwnership",
      "outputs": [],
      "stateMutability": "nonpayable",
      "type": "function"
    }
  ],
  "bytecode": "0x6080604052678ac7230489e800006008556102586009553480156200002357600080fd5b50336040518060400160405280600c81526020016b29bab139b1b934b83a34b7b760a11b8152506040518060400160405280600381526020016229aaa160e91b8152508160009081620000779190620001d0565b506001620000868282620001d0565b5050506001600160a01b038116620000b857604051631e4fbdf760e01b81526000600482015260240160405180910390fd5b620000c381620000d9565b50620000d3600780546001019055565b6200029c565b600680546001600160a01b038381166001600160a01b0319831681179093556040519116919082907f8be0079c531659141344cd1fd0a4f28419497f9722a3daafe3b4186f6b6457e090600090a35050565b634e487b7160e01b600052604160045260246000fd5b600181811c908216806200015657607f821691505b6020821081036200017757634e487b7160e01b600052602260045260246000fd5b50919050565b601f821115620001cb57600081815260208120601f850160051c81016020861015620001a65750805b601f850160051c820191505b81811015620001c757828155600101620001b2565b5050505b505050565b81516001600160401b03811115620001ec57620001ec6200012b565b6200020481620001fd845462000141565b846200017d565b602080601f8311600181146200023c5760008415620002235750858301515b600019600386901b1c1916600185901b178555620001c7565b600085815260208120601f198616915b828110156200026d578886015182559484019460019091019084016200024c565b50858210156200028c5787850151600019600388901b60f8161c191681555b5050505050600190811b01905550565b611d2480620002ac6000396000f3fe6080604052600436106101e35760003560e01c806370a0823111610102578063bc3bdfad11610095578063d76d547c11610064578063d76d547c14610643578063e985e9c514610663578063f2fde38b146106ac578063ff1ce8e2146106cc57600080fd5b8063bc3bdfad146105be578063be040fb0146105de578063c87b56dd146105f3578063d525be321461061357600080fd5b806395d89b41116100d157806395d89b4114610530578063a22cb46514610545578063a40c4c4014610565578063b88d4fde1461059e57600080fd5b806370a082311461046b578063715018a61461048b5780637bceef88146104a05780638da5cb5b1461051257600080fd5b8063190de1141161017a57806342842e0e1161014957806342842e0e146103f857806342966c68146104185780636352211e1461043857806370247acb1461045857600080fd5b8063190de1141461039057806323b872dd146103b057806325b31a97146103d057806330f0ee15146103e357600080fd5b80630b3503dd116101b65780630b3503dd146102995780631088312f1461033157806312b21eb51461035157806317adbd811461037157600080fd5b806301ffc9a7146101e857806306fdde031461021d578063081812fc1461023f578063095ea7b314610277575b600080fd5b3480156101f457600080fd5b5061020861020336600461189c565b6106ec565b60405190151581526020015b60405180910390f35b34801561022957600080fd5b50610232610789565b6040516102149190611909565b34801561024b57600080fd5b5061025f61025a36600461191c565b61081b565b6040516001600160a01b039091168152602001610214565b34801561028357600080fd5b50610297610292366004611951565b610844565b005b3480156102a557600080fd5b506102976102b436600461197b565b6001600160a01b039092166000818152600d60209081526040808320805460ff19166001908117909155600b80548083019091557f0175b7a638427703f0dbe7bb9bbf987a2551717b34e79f33b5b1008d1fa01db90180546001600160a01b03191686179055938352600c90915290209081019190915560020155565b34801561033d57600080fd5b5061029761034c3660046119ae565b610853565b34801561035d57600080fd5b5061029761036c3660046119ae565b610919565b34801561037d57600080fd5b50600a545b604051908152602001610214565b34801561039c57600080fd5b5061025f6103ab36600461191c565b610aae565b3480156103bc57600080fd5b506102976103cb3660046119c9565b610ad8565b6102976103de3660046119ae565b610b81565b3480156103ef57600080fd5b50600b54610382565b34801561040457600080fd5b506102976104133660046119c9565b610cee565b34801561042457600080fd5b5061029761043336600461191c565b610d0e565b34801561044457600080fd5b5061025f61045336600461191c565b610d1a565b6102976104663660046119ae565b610d25565b34801561047757600080fd5b506103826104863660046119ae565b610d83565b34801561049757600080fd5b50610297610de4565b3480156104ac57600080fd5b506104ea6104bb3660046119ae565b600c60205260009081526040902080546001820154600283015460038401546004909401549293919290919085565b604080519586526020860194909452928401919091526060830152608082015260a001610214565b34801561051e57600080fd5b506006546001600160a01b031661025f565b34801561053c57600080fd5b50610232610df8565b34801561055157600080fd5b50610297610560366004611a05565b610e07565b34801561057157600080fd5b506103826105803660046119ae565b6001600160a01b03166000908152600c602052604090206004015490565b3480156105aa57600080fd5b506102976105b9366004611a57565b610e12565b3480156105ca57600080fd5b5061025f6105d936600461191c565b610e29565b3480156105ea57600080fd5b50610297610e39565b3480156105ff57600080fd5b5061023261060e36600461191c565b610e72565b34801561061f57600080fd5b5061020861062e3660046119ae565b600d6020526000908152604090205460ff1681565b34801561064f57600080fd5b5061029761065e3660046119ae565b610ee7565b34801561066f57600080fd5b5061020861067e366004611b33565b6001600160a01b03918216600090815260056020908152604080832093909416825291909152205460ff1690565b3480156106b857600080fd5b506102976106c73660046119ae565b610fdc565b3480156106d857600080fd5b506103826106e7366004611b66565b611030565b60006001600160e01b031982167f80ac58cd00000000000000000000000000000000000000000000000000000000148061074f57506001600160e01b031982167f5b5e139f00000000000000000000000000000000000000000000000000000000145b8061078357507f01ffc9a7000000000000000000000000000000000000000000000000000000006001600160e01b03198316145b92915050565b60606000805461079890611b88565b80601f01602080910402602001604051908101604052809291908181526020018280546107c490611b88565b80156108115780601f106107e657610100808354040283529160200191610811565b820191906000526020600020905b8154815290600101906020018083116107f457829003601f168201915b5050505050905090565b600061082682611052565b506000828152600460205260409020546001600160a01b0316610783565b61084f82823361108b565b5050565b6001600160a01b0381166000908152600d60205260408120805460ff191690555b600b548110156108f457816001600160a01b0316600b828154811061089b5761089b611bc2565b6000918252602090912001546001600160a01b0316036108e257600b81815481106108c8576108c8611bc2565b600091825260209091200180546001600160a01b03191690555b806108ec81611bee565b915050610874565b506001600160a01b03166000908152600c602052604081206001810182905560020155565b60005b600a5481101561099c57816001600160a01b0316600a828154811061094357610943611bc2565b6000918252602090912001546001600160a01b03160361098a57600a818154811061097057610970611bc2565b600091825260209091200180546001600160a01b03191690555b8061099481611bee565b91505061091c565b506001600160a01b0381166000908152600d602052604090205460ff1615610a435760005b600b54811015610a4157816001600160a01b0316600b82815481106109e8576109e8611bc2565b6000918252602090912001546001600160a01b031603610a2f57600b8181548110610a1557610a15611bc2565b600091825260209091200180546001600160a01b03191690555b80610a3981611bee565b9150506109c1565b505b6001600160a01b0381166000908152600c6020526040902054610a6590611098565b6001600160a01b03166000908152600c60209081526040808320838155600181018490556002810184905560038101849055600401839055600d9091529020805460ff19169055565b600a8181548110610abe57600080fd5b6000918252602090912001546001600160a01b0316905081565b6001600160a01b038216610b0757604051633250574960e11b8152600060048201526024015b60405180910390fd5b6000610b148383336110d3565b9050836001600160a01b0316816001600160a01b031614610b7b576040517f64283d7b0000000000000000000000000000000000000000000000000000000081526001600160a01b0380861660048301526024820184905282166044820152606401610afe565b50505050565b6001600160a01b0381166000908152600c602052604090206004015481904211610bae5761084f81610919565b6001600160a01b0382166000908152600d602052604090205460ff161515600114610c1b5760405162461bcd60e51b815260206004820152600c60248201527f4e6f7420666f722073616c6500000000000000000000000000000000000000006044820152606401610afe565b6001600160a01b0382166000908152600c6020526040902060010154341015610c865760405162461bcd60e51b815260206004820152601060248201527f4e6f7420656e6f7567682066756e6473000000000000000000000000000000006044820152606401610afe565b6001600160a01b0382166000908152600c602052604090206002015433906108fc90610cb3903490611030565b6040518115909202916000818181858888f19350505050158015610cdb573d6000803e3d6000fd5b50610ce582610919565b61084f33610d25565b610d0983838360405180602001604052806000815250610e12565b505050565b61084f600082336110d3565b600061078382611052565b600854341015610d775760405162461bcd60e51b815260206004820152601060248201527f4e6f7420656e6f7567682066756e6473000000000000000000000000000000006044820152606401610afe565b610d8081610ee7565b50565b60006001600160a01b038216610dc8576040517f89c62b6400000000000000000000000000000000000000000000000000000000815260006004820152602401610afe565b506001600160a01b031660009081526003602052604090205490565b610dec6111cc565b610df66000611212565b565b60606001805461079890611b88565b61084f338383611264565b610e1d848484610ad8565b610b7b8484848461131c565b600b8181548110610abe57600080fd5b6006546040516001600160a01b03909116904780156108fc02916000818181858888f19350505050158015610d80573d6000803e3d6000fd5b6060610e7d82611052565b506000610e9560408051602081019091526000815290565b90506000815111610eb55760405180602001604052806000815250610ee0565b80610ebf84611445565b604051602001610ed0929190611c07565b6040516020818303038152906040525b9392505050565b6000610ef260075490565b9050610efe82826114e5565b610f0c600780546001019055565b600a805460018101825560009182527fc65a7bb8d6351c1cf70c95a316cc6a92839c986682d98bc35f958f4883f9d2a80180546001600160a01b0319166001600160a01b0385161790556040805160a081018252838152602081018390529081019190915242606082018190526009546080830191610f8b9190611c36565b90526001600160a01b039092166000908152600c6020908152604091829020845181559084015160018201559083015160028201556060830151600382015560809092015160049092019190915550565b610fe46111cc565b6001600160a01b038116611027576040517f1e4fbdf700000000000000000000000000000000000000000000000000000000815260006004820152602401610afe565b610d8081611212565b6000606461103e8385611c49565b6110489190611c60565b610ee09084611c82565b6000818152600260205260408120546001600160a01b03168061078357604051637e27328960e01b815260048101849052602401610afe565b610d098383836001611563565b60006110a760008360006110d3565b90506001600160a01b03811661084f57604051637e27328960e01b815260048101839052602401610afe565b6000828152600260205260408120546001600160a01b0390811690831615611100576111008184866116a1565b6001600160a01b0381161561113e5761111d600085600080611563565b6001600160a01b038116600090815260036020526040902080546000190190555b6001600160a01b0385161561116d576001600160a01b0385166000908152600360205260409020805460010190555b60008481526002602052604080822080546001600160a01b0319166001600160a01b0389811691821790925591518793918516917fddf252ad1be2c89b69c2b068fc378daa952ba7f163c4a11628f55a4df523b3ef91a4949350505050565b6006546001600160a01b03163314610df6576040517f118cdaa7000000000000000000000000000000000000000000000000000000008152336004820152602401610afe565b600680546001600160a01b038381166001600160a01b0319831681179093556040519116919082907f8be0079c531659141344cd1fd0a4f28419497f9722a3daafe3b4186f6b6457e090600090a35050565b6001600160a01b0382166112af576040517f5b08ba180000000000000000000000000000000000000000000000000000000081526001600160a01b0383166004820152602401610afe565b6001600160a01b03838116600081815260056020908152604080832094871680845294825291829020805460ff191686151590811790915591519182527f17307eab39ab6107e8899845ad3d59bd9653f200f220920489ca2b5937696c31910160405180910390a3505050565b6001600160a01b0383163b15610b7b57604051630a85bd0160e11b81526001600160a01b0384169063150b7a029061135e903390889087908790600401611c95565b6020604051808303816000875af1925050508015611399575060408051601f3d908101601f1916820190925261139691810190611cd1565b60015b611402573d8080156113c7576040519150601f19603f3d011682016040523d82523d6000602084013e6113cc565b606091505b5080516000036113fa57604051633250574960e11b81526001600160a01b0385166004820152602401610afe565b805181602001fd5b6001600160e01b03198116630a85bd0160e11b1461143e57604051633250574960e11b81526001600160a01b0385166004820152602401610afe565b5050505050565b606060006114528361171e565b600101905060008167ffffffffffffffff81111561147257611472611a41565b6040519080825280601f01601f19166020018201604052801561149c576020820181803683370190505b5090508181016020015b600019017f3031323334353637383961626364656600000000000000000000000000000000600a86061a8153600a85049450846114a657509392505050565b6001600160a01b03821661150f57604051633250574960e11b815260006004820152602401610afe565b600061151d838360006110d3565b90506001600160a01b03811615610d09576040517f73c6ac6e00000000000000000000000000000000000000000000000000000000815260006004820152602401610afe565b808061157757506001600160a01b03821615155b1561167157600061158784611052565b90506001600160a01b038316158015906115b35750826001600160a01b0316816001600160a01b031614155b80156115e557506001600160a01b0380821660009081526005602090815260408083209387168352929052205460ff16155b15611627576040517fa9fbf51f0000000000000000000000000000000000000000000000000000000081526001600160a01b0384166004820152602401610afe565b811561166f5783856001600160a01b0316826001600160a01b03167f8c5be1e5ebec7d5bd14f71427d1e84f3dd0314c0f7b2291e5b200ac8c7c3b92560405160405180910390a45b505b5050600090815260046020526040902080546001600160a01b0319166001600160a01b0392909216919091179055565b6116ac838383611800565b610d09576001600160a01b0383166116da57604051637e27328960e01b815260048101829052602401610afe565b6040517f177e802f0000000000000000000000000000000000000000000000000000000081526001600160a01b038316600482015260248101829052604401610afe565b6000807a184f03e93ff9f4daa797ed6e38ed64bf6a1f0100000000000000008310611767577a184f03e93ff9f4daa797ed6e38ed64bf6a1f010000000000000000830492506040015b6d04ee2d6d415b85acef81000000008310611793576d04ee2d6d415b85acef8100000000830492506020015b662386f26fc1000083106117b157662386f26fc10000830492506010015b6305f5e10083106117c9576305f5e100830492506008015b61271083106117dd57612710830492506004015b606483106117ef576064830492506002015b600a83106107835760010192915050565b60006001600160a01b0383161580159061187e5750826001600160a01b0316846001600160a01b0316148061185a57506001600160a01b0380851660009081526005602090815260408083209387168352929052205460ff165b8061187e57506000828152600460205260409020546001600160a01b038481169116145b949350505050565b6001600160e01b031981168114610d8057600080fd5b6000602082840312156118ae57600080fd5b8135610ee081611886565b60005b838110156118d45781810151838201526020016118bc565b50506000910152565b600081518084526118f58160208601602086016118b9565b601f01601f19169290920160200192915050565b602081526000610ee060208301846118dd565b60006020828403121561192e57600080fd5b5035919050565b80356001600160a01b038116811461194c57600080fd5b919050565b6000806040838503121561196457600080fd5b61196d83611935565b946020939093013593505050565b60008060006060848603121561199057600080fd5b61199984611935565b95602085013595506040909401359392505050565b6000602082840312156119c057600080fd5b610ee082611935565b6000806000606084860312156119de57600080fd5b6119e784611935565b92506119f560208501611935565b9150604084013590509250925092565b60008060408385031215611a1857600080fd5b611a2183611935565b915060208301358015158114611a3657600080fd5b809150509250929050565b634e487b7160e01b600052604160045260246000fd5b60008060008060808587031215611a6d57600080fd5b611a7685611935565b9350611a8460208601611935565b925060408501359150606085013567ffffffffffffffff80821115611aa857600080fd5b818701915087601f830112611abc57600080fd5b813581811115611ace57611ace611a41565b604051601f8201601f19908116603f01168101908382118183101715611af657611af6611a41565b816040528281528a6020848701011115611b0f57600080fd5b82602086016020830137600060208483010152809550505050505092959194509250565b60008060408385031215611b4657600080fd5b611b4f83611935565b9150611b5d60208401611935565b90509250929050565b60008060408385031215611b7957600080fd5b50508035926020909101359150565b600181811c90821680611b9c57607f821691505b602082108103611bbc57634e487b7160e01b600052602260045260246000fd5b50919050565b634e487b7160e01b600052603260045260246000fd5b634e487b7160e01b600052601160045260246000fd5b600060018201611c0057611c00611bd8565b5060010190565b60008351611c198184602088016118b9565b835190830190611c2d8183602088016118b9565b01949350505050565b8082018082111561078357610783611bd8565b808202811582820484141761078357610783611bd8565b600082611c7d57634e487b7160e01b600052601260045260246000fd5b500490565b8181038181111561078357610783611bd8565b60006001600160a01b03808716835280861660208401525083604083015260806060830152611cc760808301846118dd565b9695505050505050565b600060208284031215611ce357600080fd5b8151610ee08161188656fea26469706673582212201c40135e5248dfbf0ce912b3905b5db60f5cba13e86d63e9a007a9ae3145b35a64736f6c63430008140033",
  "linkReferences": {},
  "deployedLinkReferences": {}
}