{
  "_format": "hh-sol-artifact-1",
  "contractName": "Subscription",
  "sourceName": "contracts/Subscription.sol",
  "abi": [
    {
      "inputs": [],
      "stateMutability": "nonpayable",
      "type": "constructor"
    },
    {
      "inputs": [
        {
          "internalType": "address",
          "name": "owner",
          "type": "address"
        }
      ],
      "name": "OwnableInvalidOwner",
      "type": "error"
    },
    {
      "inputs": [
        {
          "internalType": "address",
          "name": "account",
          "type": "address"
        }
      ],
      "name": "OwnableUnauthorizedAccount",
      "type": "error"
    },
    {
      "anonymous": false,
      "inputs": [
        {
          "indexed": true,
          "internalType": "address",
          "name": "previousOwner",
          "type": "address"
        },
        {
          "indexed": true,
          "internalType": "address",
          "name": "newOwner",
          "type": "address"
        }
      ],
      "name": "OwnershipTransferred",
      "type": "event"
    },
    {
      "inputs": [
        {
          "internalType": "address",
          "name": "user",
          "type": "address"
        }
      ],
      "name": "burnSubscription",
      "outputs": [],
      "stateMutability": "nonpayable",
      "type": "function"
    },
    {
      "inputs": [
        {
          "internalType": "uint256",
          "name": "price",
          "type": "uint256"
        },
        {
          "internalType": "uint256",
          "name": "royaltyPercentage",
          "type": "uint256"
        }
      ],
      "name": "calcSellingPrice",
      "outputs": [
        {
          "internalType": "uint256",
          "name": "",
          "type": "uint256"
        }
      ],
      "stateMutability": "pure",
      "type": "function"
    },
    {
      "inputs": [
        {
          "internalType": "address",
          "name": "user",
          "type": "address"
        }
      ],
      "name": "getSubscriberEndTimeInfo",
      "outputs": [
        {
          "internalType": "uint256",
          "name": "",
          "type": "uint256"
        }
      ],
      "stateMutability": "view",
      "type": "function"
    },
    {
      "inputs": [],
      "name": "getSubscriptionHoldersLength",
      "outputs": [
        {
          "internalType": "uint256",
          "name": "",
          "type": "uint256"
        }
      ],
      "stateMutability": "view",
      "type": "function"
    },
    {
      "inputs": [],
      "name": "getSubscriptionSellersLength",
      "outputs": [
        {
          "internalType": "uint256",
          "name": "",
          "type": "uint256"
        }
      ],
      "stateMutability": "view",
      "type": "function"
    },
    {
      "inputs": [
        {
          "internalType": "address",
          "name": "",
          "type": "address"
        }
      ],
      "name": "infoOfVault",
      "outputs": [
        {
          "internalType": "uint256",
          "name": "tokenId",
          "type": "uint256"
        },
        {
          "internalType": "uint256",
          "name": "sellPrice",
          "type": "uint256"
        },
        {
          "internalType": "uint256",
          "name": "royaltyPercentage",
          "type": "uint256"
        },
        {
          "internalType": "uint256",
          "name": "startTime",
          "type": "uint256"
        },
        {
          "internalType": "uint256",
          "name": "endTime",
          "type": "uint256"
        }
      ],
      "stateMutability": "view",
      "type": "function"
    },
    {
      "inputs": [
        {
          "internalType": "address",
          "name": "user",
          "type": "address"
        }
      ],
      "name": "insiderMint",
      "outputs": [],
      "stateMutability": "nonpayable",
      "type": "function"
    },
    {
      "inputs": [
        {
          "internalType": "address",
          "name": "",
          "type": "address"
        }
      ],
      "name": "isSelling",
      "outputs": [
        {
          "internalType": "bool",
          "name": "",
          "type": "bool"
        }
      ],
      "stateMutability": "view",
      "type": "function"
    },
    {
      "inputs": [
        {
          "internalType": "address",
          "name": "user",
          "type": "address"
        }
      ],
      "name": "mintSubscription",
      "outputs": [],
      "stateMutability": "payable",
      "type": "function"
    },
    {
      "inputs": [],
      "name": "owner",
      "outputs": [
        {
          "internalType": "address",
          "name": "",
          "type": "address"
        }
      ],
      "stateMutability": "view",
      "type": "function"
    },
    {
      "inputs": [
        {
          "internalType": "address",
          "name": "alreadySubscribedUser",
          "type": "address"
        }
      ],
      "name": "purchase",
      "outputs": [],
      "stateMutability": "payable",
      "type": "function"
    },
    {
      "inputs": [],
      "name": "redeem",
      "outputs": [],
      "stateMutability": "nonpayable",
      "type": "function"
    },
    {
      "inputs": [],
      "name": "renounceOwnership",
      "outputs": [],
      "stateMutability": "nonpayable",
      "type": "function"
    },
    {
      "inputs": [
        {
          "internalType": "address",
          "name": "user",
          "type": "address"
        }
      ],
      "name": "sellingOff",
      "outputs": [],
      "stateMutability": "nonpayable",
      "type": "function"
    },
    {
      "inputs": [
        {
          "internalType": "address",
          "name": "user",
          "type": "address"
        },
        {
          "internalType": "uint256",
          "name": "_price",
          "type": "uint256"
        },
        {
          "internalType": "uint256",
          "name": "_royalty",
          "type": "uint256"
        }
      ],
      "name": "sellingOn",
      "outputs": [],
      "stateMutability": "nonpayable",
      "type": "function"
    },
    {
      "inputs": [
        {
          "internalType": "uint256",
          "name": "",
          "type": "uint256"
        }
      ],
      "name": "subscriptionHolders",
      "outputs": [
        {
          "internalType": "address",
          "name": "",
          "type": "address"
        }
      ],
      "stateMutability": "view",
      "type": "function"
    },
    {
      "inputs": [
        {
          "internalType": "uint256",
          "name": "",
          "type": "uint256"
        }
      ],
      "name": "subscriptionSellers",
      "outputs": [
        {
          "internalType": "address",
          "name": "",
          "type": "address"
        }
      ],
      "stateMutability": "view",
      "type": "function"
    },
    {
      "inputs": [
        {
          "internalType": "address",
          "name": "newOwner",
          "type": "address"
        }
      ],
      "name": "transferOwnership",
      "outputs": [],
      "stateMutability": "nonpayable",
      "type": "function"
    }
  ],
  "bytecode": "0x6080604052678ac7230489e8000060025561025860035534801561002257600080fd5b50338061004957604051631e4fbdf760e01b81526000600482015260240160405180910390fd5b61005281610066565b50610061600180546001019055565b6100b6565b600080546001600160a01b038381166001600160a01b0319831681178455604051919092169283917f8be0079c531659141344cd1fd0a4f28419497f9722a3daafe3b4186f6b6457e09190a35050565b610c62806100c56000396000f3fe6080604052600436106101295760003560e01c80637bceef88116100a5578063be040fb011610074578063d76d547c11610059578063d76d547c146103f2578063f2fde38b14610412578063ff1ce8e21461043257600080fd5b8063be040fb01461039d578063d525be32146103b257600080fd5b80637bceef88146102b45780638da5cb5b14610326578063a40c4c4014610344578063bc3bdfad1461037d57600080fd5b8063190de114116100fc57806330f0ee15116100e157806330f0ee151461027757806370247acb1461028c578063715018a61461029f57600080fd5b8063190de1141461022c57806325b31a971461026457600080fd5b80630b3503dd1461012e5780631088312f146101c857806312b21eb5146101e857806317adbd8114610208575b600080fd5b34801561013a57600080fd5b506101c6610149366004610aff565b6001600160a01b039092166000818152600760209081526040808320805460ff19166001908117909155600580548083019091557f036b6384b5eca791c62761152d0c79bb0604c104a5fb6f4eb0703f3154bb3db00180546001600160a01b03191686179055938352600690915290209081019190915560020155565b005b3480156101d457600080fd5b506101c66101e3366004610b32565b610452565b3480156101f457600080fd5b506101c6610203366004610b32565b610518565b34801561021457600080fd5b506004545b6040519081526020015b60405180910390f35b34801561023857600080fd5b5061024c610247366004610b4d565b61068b565b6040516001600160a01b039091168152602001610223565b6101c6610272366004610b32565b6106b5565b34801561028357600080fd5b50600554610219565b6101c661029a366004610b32565b610827565b3480156102ab57600080fd5b506101c6610885565b3480156102c057600080fd5b506102fe6102cf366004610b32565b600660205260009081526040902080546001820154600283015460038401546004909401549293919290919085565b604080519586526020860194909452928401919091526060830152608082015260a001610223565b34801561033257600080fd5b506000546001600160a01b031661024c565b34801561035057600080fd5b5061021961035f366004610b32565b6001600160a01b031660009081526006602052604090206004015490565b34801561038957600080fd5b5061024c610398366004610b4d565b610899565b3480156103a957600080fd5b506101c66108a9565b3480156103be57600080fd5b506103e26103cd366004610b32565b60076020526000908152604090205460ff1681565b6040519015158152602001610223565b3480156103fe57600080fd5b506101c661040d366004610b32565b6108e3565b34801561041e57600080fd5b506101c661042d366004610b32565b6109ce565b34801561043e57600080fd5b5061021961044d366004610b66565b610a22565b6001600160a01b0381166000908152600760205260408120805460ff191690555b6005548110156104f357816001600160a01b03166005828154811061049a5761049a610b88565b6000918252602090912001546001600160a01b0316036104e157600581815481106104c7576104c7610b88565b600091825260209091200180546001600160a01b03191690555b806104eb81610bb4565b915050610473565b506001600160a01b031660009081526006602052604081206001810182905560020155565b60005b60045481101561059b57816001600160a01b03166004828154811061054257610542610b88565b6000918252602090912001546001600160a01b031603610589576004818154811061056f5761056f610b88565b600091825260209091200180546001600160a01b03191690555b8061059381610bb4565b91505061051b565b506001600160a01b03811660009081526007602052604090205460ff16156106425760005b60055481101561064057816001600160a01b0316600582815481106105e7576105e7610b88565b6000918252602090912001546001600160a01b03160361062e576005818154811061061457610614610b88565b600091825260209091200180546001600160a01b03191690555b8061063881610bb4565b9150506105c0565b505b6001600160a01b0316600090815260066020908152604080832083815560018101849055600281018490556003810184905560040183905560079091529020805460ff19169055565b6004818154811061069b57600080fd5b6000918252602090912001546001600160a01b0316905081565b6001600160a01b038116600090815260066020526040902060040154819042116106e6576106e281610518565b5050565b6001600160a01b03821660009081526007602052604090205460ff1615156001146107585760405162461bcd60e51b815260206004820152600c60248201527f4e6f7420666f722073616c65000000000000000000000000000000000000000060448201526064015b60405180910390fd5b6001600160a01b0382166000908152600660205260409020600101543410156107c35760405162461bcd60e51b815260206004820152601060248201527f4e6f7420656e6f7567682066756e647300000000000000000000000000000000604482015260640161074f565b6001600160a01b03821660009081526006602052604090206002015433906108fc906107f0903490610a22565b6040518115909202916000818181858888f19350505050158015610818573d6000803e3d6000fd5b5061082282610518565b6106e2335b6002543410156108795760405162461bcd60e51b815260206004820152601060248201527f4e6f7420656e6f7567682066756e647300000000000000000000000000000000604482015260640161074f565b610882816108e3565b50565b61088d610a4d565b6108976000610a93565b565b6005818154811061069b57600080fd5b600080546040516001600160a01b03909116914780156108fc02929091818181858888f19350505050158015610882573d6000803e3d6000fd5b60006108ee60015490565b90506108fe600180546001019055565b6004805460018101825560009182527f8a35acfbc15ff81a39ae7d344fd709f28e8600b4aa8c65c6b64bfe7fe36bd19b0180546001600160a01b0319166001600160a01b0385161790556040805160a08101825283815260208101839052908101919091524260608201819052600354608083019161097d9190610bcd565b90526001600160a01b03909216600090815260066020908152604091829020845181559084015160018201559083015160028201556060830151600382015560809092015160049092019190915550565b6109d6610a4d565b6001600160a01b038116610a19576040517f1e4fbdf70000000000000000000000000000000000000000000000000000000081526000600482015260240161074f565b61088281610a93565b60006064610a308385610be0565b610a3a9190610bf7565b610a449084610c19565b90505b92915050565b6000546001600160a01b03163314610897576040517f118cdaa700000000000000000000000000000000000000000000000000000000815233600482015260240161074f565b600080546001600160a01b038381166001600160a01b0319831681178455604051919092169283917f8be0079c531659141344cd1fd0a4f28419497f9722a3daafe3b4186f6b6457e09190a35050565b80356001600160a01b0381168114610afa57600080fd5b919050565b600080600060608486031215610b1457600080fd5b610b1d84610ae3565b95602085013595506040909401359392505050565b600060208284031215610b4457600080fd5b610a4482610ae3565b600060208284031215610b5f57600080fd5b5035919050565b60008060408385031215610b7957600080fd5b50508035926020909101359150565b634e487b7160e01b600052603260045260246000fd5b634e487b7160e01b600052601160045260246000fd5b600060018201610bc657610bc6610b9e565b5060010190565b80820180821115610a4757610a47610b9e565b8082028115828204841417610a4757610a47610b9e565b600082610c1457634e487b7160e01b600052601260045260246000fd5b500490565b81810381811115610a4757610a47610b9e56fea2646970667358221220f56ba5275249f579b0f9e47795baf2d4294ee1a31ead94aa6a9f22a5e44179d364736f6c63430008140033",
  "linkReferences": {},
  "deployedLinkReferences": {}
}